
L3T3V2.elf:     file format elf32-littlearm

Sections:
Idx Name          Size      VMA       LMA       File off  Algn
  0 .isr_vector   00000188  08000000  08000000  00010000  2**0
                  CONTENTS, ALLOC, LOAD, READONLY, DATA
  1 .text         000085b0  08000188  08000188  00010188  2**2
                  CONTENTS, ALLOC, LOAD, READONLY, CODE
  2 .rodata       0000001c  08008738  08008738  00018738  2**2
                  CONTENTS, ALLOC, LOAD, READONLY, DATA
  3 .ARM.extab    00000000  08008754  08008754  00020094  2**0
                  CONTENTS
  4 .ARM          00000008  08008754  08008754  00018754  2**2
                  CONTENTS, ALLOC, LOAD, READONLY, DATA
  5 .preinit_array 00000000  0800875c  0800875c  00020094  2**0
                  CONTENTS, ALLOC, LOAD, DATA
  6 .init_array   00000004  0800875c  0800875c  0001875c  2**2
                  CONTENTS, ALLOC, LOAD, DATA
  7 .fini_array   00000004  08008760  08008760  00018760  2**2
                  CONTENTS, ALLOC, LOAD, DATA
  8 .data         00000094  20000000  08008764  00020000  2**2
                  CONTENTS, ALLOC, LOAD, DATA
  9 .ccmram       00000000  10000000  10000000  00020094  2**0
                  CONTENTS
 10 .bss          00000878  20000094  20000094  00020094  2**2
                  ALLOC
 11 ._user_heap_stack 00000604  2000090c  2000090c  00020094  2**0
                  ALLOC
 12 .ARM.attributes 00000030  00000000  00000000  00020094  2**0
                  CONTENTS, READONLY
 13 .debug_info   00019a57  00000000  00000000  000200c4  2**0
                  CONTENTS, READONLY, DEBUGGING, OCTETS
 14 .debug_abbrev 000039f4  00000000  00000000  00039b1b  2**0
                  CONTENTS, READONLY, DEBUGGING, OCTETS
 15 .debug_aranges 00001520  00000000  00000000  0003d510  2**3
                  CONTENTS, READONLY, DEBUGGING, OCTETS
 16 .debug_ranges 000013a0  00000000  00000000  0003ea30  2**3
                  CONTENTS, READONLY, DEBUGGING, OCTETS
 17 .debug_macro  0002544b  00000000  00000000  0003fdd0  2**0
                  CONTENTS, READONLY, DEBUGGING, OCTETS
 18 .debug_line   0001aa63  00000000  00000000  0006521b  2**0
                  CONTENTS, READONLY, DEBUGGING, OCTETS
 19 .debug_str    000de416  00000000  00000000  0007fc7e  2**0
                  CONTENTS, READONLY, DEBUGGING, OCTETS
 20 .comment      00000050  00000000  00000000  0015e094  2**0
                  CONTENTS, READONLY
 21 .debug_frame  00005bd0  00000000  00000000  0015e0e4  2**2
                  CONTENTS, READONLY, DEBUGGING, OCTETS

Disassembly of section .text:

08000188 <__do_global_dtors_aux>:
 8000188:	b510      	push	{r4, lr}
 800018a:	4c05      	ldr	r4, [pc, #20]	; (80001a0 <__do_global_dtors_aux+0x18>)
 800018c:	7823      	ldrb	r3, [r4, #0]
 800018e:	b933      	cbnz	r3, 800019e <__do_global_dtors_aux+0x16>
 8000190:	4b04      	ldr	r3, [pc, #16]	; (80001a4 <__do_global_dtors_aux+0x1c>)
 8000192:	b113      	cbz	r3, 800019a <__do_global_dtors_aux+0x12>
 8000194:	4804      	ldr	r0, [pc, #16]	; (80001a8 <__do_global_dtors_aux+0x20>)
 8000196:	f3af 8000 	nop.w
 800019a:	2301      	movs	r3, #1
 800019c:	7023      	strb	r3, [r4, #0]
 800019e:	bd10      	pop	{r4, pc}
 80001a0:	20000094 	.word	0x20000094
 80001a4:	00000000 	.word	0x00000000
 80001a8:	08008720 	.word	0x08008720

080001ac <frame_dummy>:
 80001ac:	b508      	push	{r3, lr}
 80001ae:	4b03      	ldr	r3, [pc, #12]	; (80001bc <frame_dummy+0x10>)
 80001b0:	b11b      	cbz	r3, 80001ba <frame_dummy+0xe>
 80001b2:	4903      	ldr	r1, [pc, #12]	; (80001c0 <frame_dummy+0x14>)
 80001b4:	4803      	ldr	r0, [pc, #12]	; (80001c4 <frame_dummy+0x18>)
 80001b6:	f3af 8000 	nop.w
 80001ba:	bd08      	pop	{r3, pc}
 80001bc:	00000000 	.word	0x00000000
 80001c0:	20000098 	.word	0x20000098
 80001c4:	08008720 	.word	0x08008720

080001c8 <__aeabi_uldivmod>:
 80001c8:	b953      	cbnz	r3, 80001e0 <__aeabi_uldivmod+0x18>
 80001ca:	b94a      	cbnz	r2, 80001e0 <__aeabi_uldivmod+0x18>
 80001cc:	2900      	cmp	r1, #0
 80001ce:	bf08      	it	eq
 80001d0:	2800      	cmpeq	r0, #0
 80001d2:	bf1c      	itt	ne
 80001d4:	f04f 31ff 	movne.w	r1, #4294967295
 80001d8:	f04f 30ff 	movne.w	r0, #4294967295
 80001dc:	f000 b974 	b.w	80004c8 <__aeabi_idiv0>
 80001e0:	f1ad 0c08 	sub.w	ip, sp, #8
 80001e4:	e96d ce04 	strd	ip, lr, [sp, #-16]!
 80001e8:	f000 f806 	bl	80001f8 <__udivmoddi4>
 80001ec:	f8dd e004 	ldr.w	lr, [sp, #4]
 80001f0:	e9dd 2302 	ldrd	r2, r3, [sp, #8]
 80001f4:	b004      	add	sp, #16
 80001f6:	4770      	bx	lr

080001f8 <__udivmoddi4>:
 80001f8:	e92d 47f0 	stmdb	sp!, {r4, r5, r6, r7, r8, r9, sl, lr}
 80001fc:	9d08      	ldr	r5, [sp, #32]
 80001fe:	4604      	mov	r4, r0
 8000200:	468e      	mov	lr, r1
 8000202:	2b00      	cmp	r3, #0
 8000204:	d14d      	bne.n	80002a2 <__udivmoddi4+0xaa>
 8000206:	428a      	cmp	r2, r1
 8000208:	4694      	mov	ip, r2
 800020a:	d969      	bls.n	80002e0 <__udivmoddi4+0xe8>
 800020c:	fab2 f282 	clz	r2, r2
 8000210:	b152      	cbz	r2, 8000228 <__udivmoddi4+0x30>
 8000212:	fa01 f302 	lsl.w	r3, r1, r2
 8000216:	f1c2 0120 	rsb	r1, r2, #32
 800021a:	fa20 f101 	lsr.w	r1, r0, r1
 800021e:	fa0c fc02 	lsl.w	ip, ip, r2
 8000222:	ea41 0e03 	orr.w	lr, r1, r3
 8000226:	4094      	lsls	r4, r2
 8000228:	ea4f 481c 	mov.w	r8, ip, lsr #16
 800022c:	0c21      	lsrs	r1, r4, #16
 800022e:	fbbe f6f8 	udiv	r6, lr, r8
 8000232:	fa1f f78c 	uxth.w	r7, ip
 8000236:	fb08 e316 	mls	r3, r8, r6, lr
 800023a:	ea41 4303 	orr.w	r3, r1, r3, lsl #16
 800023e:	fb06 f107 	mul.w	r1, r6, r7
 8000242:	4299      	cmp	r1, r3
 8000244:	d90a      	bls.n	800025c <__udivmoddi4+0x64>
 8000246:	eb1c 0303 	adds.w	r3, ip, r3
 800024a:	f106 30ff 	add.w	r0, r6, #4294967295
 800024e:	f080 811f 	bcs.w	8000490 <__udivmoddi4+0x298>
 8000252:	4299      	cmp	r1, r3
 8000254:	f240 811c 	bls.w	8000490 <__udivmoddi4+0x298>
 8000258:	3e02      	subs	r6, #2
 800025a:	4463      	add	r3, ip
 800025c:	1a5b      	subs	r3, r3, r1
 800025e:	b2a4      	uxth	r4, r4
 8000260:	fbb3 f0f8 	udiv	r0, r3, r8
 8000264:	fb08 3310 	mls	r3, r8, r0, r3
 8000268:	ea44 4403 	orr.w	r4, r4, r3, lsl #16
 800026c:	fb00 f707 	mul.w	r7, r0, r7
 8000270:	42a7      	cmp	r7, r4
 8000272:	d90a      	bls.n	800028a <__udivmoddi4+0x92>
 8000274:	eb1c 0404 	adds.w	r4, ip, r4
 8000278:	f100 33ff 	add.w	r3, r0, #4294967295
 800027c:	f080 810a 	bcs.w	8000494 <__udivmoddi4+0x29c>
 8000280:	42a7      	cmp	r7, r4
 8000282:	f240 8107 	bls.w	8000494 <__udivmoddi4+0x29c>
 8000286:	4464      	add	r4, ip
 8000288:	3802      	subs	r0, #2
 800028a:	ea40 4006 	orr.w	r0, r0, r6, lsl #16
 800028e:	1be4      	subs	r4, r4, r7
 8000290:	2600      	movs	r6, #0
 8000292:	b11d      	cbz	r5, 800029c <__udivmoddi4+0xa4>
 8000294:	40d4      	lsrs	r4, r2
 8000296:	2300      	movs	r3, #0
 8000298:	e9c5 4300 	strd	r4, r3, [r5]
 800029c:	4631      	mov	r1, r6
 800029e:	e8bd 87f0 	ldmia.w	sp!, {r4, r5, r6, r7, r8, r9, sl, pc}
 80002a2:	428b      	cmp	r3, r1
 80002a4:	d909      	bls.n	80002ba <__udivmoddi4+0xc2>
 80002a6:	2d00      	cmp	r5, #0
 80002a8:	f000 80ef 	beq.w	800048a <__udivmoddi4+0x292>
 80002ac:	2600      	movs	r6, #0
 80002ae:	e9c5 0100 	strd	r0, r1, [r5]
 80002b2:	4630      	mov	r0, r6
 80002b4:	4631      	mov	r1, r6
 80002b6:	e8bd 87f0 	ldmia.w	sp!, {r4, r5, r6, r7, r8, r9, sl, pc}
 80002ba:	fab3 f683 	clz	r6, r3
 80002be:	2e00      	cmp	r6, #0
 80002c0:	d14a      	bne.n	8000358 <__udivmoddi4+0x160>
 80002c2:	428b      	cmp	r3, r1
 80002c4:	d302      	bcc.n	80002cc <__udivmoddi4+0xd4>
 80002c6:	4282      	cmp	r2, r0
 80002c8:	f200 80f9 	bhi.w	80004be <__udivmoddi4+0x2c6>
 80002cc:	1a84      	subs	r4, r0, r2
 80002ce:	eb61 0303 	sbc.w	r3, r1, r3
 80002d2:	2001      	movs	r0, #1
 80002d4:	469e      	mov	lr, r3
 80002d6:	2d00      	cmp	r5, #0
 80002d8:	d0e0      	beq.n	800029c <__udivmoddi4+0xa4>
 80002da:	e9c5 4e00 	strd	r4, lr, [r5]
 80002de:	e7dd      	b.n	800029c <__udivmoddi4+0xa4>
 80002e0:	b902      	cbnz	r2, 80002e4 <__udivmoddi4+0xec>
 80002e2:	deff      	udf	#255	; 0xff
 80002e4:	fab2 f282 	clz	r2, r2
 80002e8:	2a00      	cmp	r2, #0
 80002ea:	f040 8092 	bne.w	8000412 <__udivmoddi4+0x21a>
 80002ee:	eba1 010c 	sub.w	r1, r1, ip
 80002f2:	ea4f 471c 	mov.w	r7, ip, lsr #16
 80002f6:	fa1f fe8c 	uxth.w	lr, ip
 80002fa:	2601      	movs	r6, #1
 80002fc:	0c20      	lsrs	r0, r4, #16
 80002fe:	fbb1 f3f7 	udiv	r3, r1, r7
 8000302:	fb07 1113 	mls	r1, r7, r3, r1
 8000306:	ea40 4101 	orr.w	r1, r0, r1, lsl #16
 800030a:	fb0e f003 	mul.w	r0, lr, r3
 800030e:	4288      	cmp	r0, r1
 8000310:	d908      	bls.n	8000324 <__udivmoddi4+0x12c>
 8000312:	eb1c 0101 	adds.w	r1, ip, r1
 8000316:	f103 38ff 	add.w	r8, r3, #4294967295
 800031a:	d202      	bcs.n	8000322 <__udivmoddi4+0x12a>
 800031c:	4288      	cmp	r0, r1
 800031e:	f200 80cb 	bhi.w	80004b8 <__udivmoddi4+0x2c0>
 8000322:	4643      	mov	r3, r8
 8000324:	1a09      	subs	r1, r1, r0
 8000326:	b2a4      	uxth	r4, r4
 8000328:	fbb1 f0f7 	udiv	r0, r1, r7
 800032c:	fb07 1110 	mls	r1, r7, r0, r1
 8000330:	ea44 4401 	orr.w	r4, r4, r1, lsl #16
 8000334:	fb0e fe00 	mul.w	lr, lr, r0
 8000338:	45a6      	cmp	lr, r4
 800033a:	d908      	bls.n	800034e <__udivmoddi4+0x156>
 800033c:	eb1c 0404 	adds.w	r4, ip, r4
 8000340:	f100 31ff 	add.w	r1, r0, #4294967295
 8000344:	d202      	bcs.n	800034c <__udivmoddi4+0x154>
 8000346:	45a6      	cmp	lr, r4
 8000348:	f200 80bb 	bhi.w	80004c2 <__udivmoddi4+0x2ca>
 800034c:	4608      	mov	r0, r1
 800034e:	eba4 040e 	sub.w	r4, r4, lr
 8000352:	ea40 4003 	orr.w	r0, r0, r3, lsl #16
 8000356:	e79c      	b.n	8000292 <__udivmoddi4+0x9a>
 8000358:	f1c6 0720 	rsb	r7, r6, #32
 800035c:	40b3      	lsls	r3, r6
 800035e:	fa22 fc07 	lsr.w	ip, r2, r7
 8000362:	ea4c 0c03 	orr.w	ip, ip, r3
 8000366:	fa20 f407 	lsr.w	r4, r0, r7
 800036a:	fa01 f306 	lsl.w	r3, r1, r6
 800036e:	431c      	orrs	r4, r3
 8000370:	40f9      	lsrs	r1, r7
 8000372:	ea4f 491c 	mov.w	r9, ip, lsr #16
 8000376:	fa00 f306 	lsl.w	r3, r0, r6
 800037a:	fbb1 f8f9 	udiv	r8, r1, r9
 800037e:	0c20      	lsrs	r0, r4, #16
 8000380:	fa1f fe8c 	uxth.w	lr, ip
 8000384:	fb09 1118 	mls	r1, r9, r8, r1
 8000388:	ea40 4101 	orr.w	r1, r0, r1, lsl #16
 800038c:	fb08 f00e 	mul.w	r0, r8, lr
 8000390:	4288      	cmp	r0, r1
 8000392:	fa02 f206 	lsl.w	r2, r2, r6
 8000396:	d90b      	bls.n	80003b0 <__udivmoddi4+0x1b8>
 8000398:	eb1c 0101 	adds.w	r1, ip, r1
 800039c:	f108 3aff 	add.w	sl, r8, #4294967295
 80003a0:	f080 8088 	bcs.w	80004b4 <__udivmoddi4+0x2bc>
 80003a4:	4288      	cmp	r0, r1
 80003a6:	f240 8085 	bls.w	80004b4 <__udivmoddi4+0x2bc>
 80003aa:	f1a8 0802 	sub.w	r8, r8, #2
 80003ae:	4461      	add	r1, ip
 80003b0:	1a09      	subs	r1, r1, r0
 80003b2:	b2a4      	uxth	r4, r4
 80003b4:	fbb1 f0f9 	udiv	r0, r1, r9
 80003b8:	fb09 1110 	mls	r1, r9, r0, r1
 80003bc:	ea44 4101 	orr.w	r1, r4, r1, lsl #16
 80003c0:	fb00 fe0e 	mul.w	lr, r0, lr
 80003c4:	458e      	cmp	lr, r1
 80003c6:	d908      	bls.n	80003da <__udivmoddi4+0x1e2>
 80003c8:	eb1c 0101 	adds.w	r1, ip, r1
 80003cc:	f100 34ff 	add.w	r4, r0, #4294967295
 80003d0:	d26c      	bcs.n	80004ac <__udivmoddi4+0x2b4>
 80003d2:	458e      	cmp	lr, r1
 80003d4:	d96a      	bls.n	80004ac <__udivmoddi4+0x2b4>
 80003d6:	3802      	subs	r0, #2
 80003d8:	4461      	add	r1, ip
 80003da:	ea40 4008 	orr.w	r0, r0, r8, lsl #16
 80003de:	fba0 9402 	umull	r9, r4, r0, r2
 80003e2:	eba1 010e 	sub.w	r1, r1, lr
 80003e6:	42a1      	cmp	r1, r4
 80003e8:	46c8      	mov	r8, r9
 80003ea:	46a6      	mov	lr, r4
 80003ec:	d356      	bcc.n	800049c <__udivmoddi4+0x2a4>
 80003ee:	d053      	beq.n	8000498 <__udivmoddi4+0x2a0>
 80003f0:	b15d      	cbz	r5, 800040a <__udivmoddi4+0x212>
 80003f2:	ebb3 0208 	subs.w	r2, r3, r8
 80003f6:	eb61 010e 	sbc.w	r1, r1, lr
 80003fa:	fa01 f707 	lsl.w	r7, r1, r7
 80003fe:	fa22 f306 	lsr.w	r3, r2, r6
 8000402:	40f1      	lsrs	r1, r6
 8000404:	431f      	orrs	r7, r3
 8000406:	e9c5 7100 	strd	r7, r1, [r5]
 800040a:	2600      	movs	r6, #0
 800040c:	4631      	mov	r1, r6
 800040e:	e8bd 87f0 	ldmia.w	sp!, {r4, r5, r6, r7, r8, r9, sl, pc}
 8000412:	f1c2 0320 	rsb	r3, r2, #32
 8000416:	40d8      	lsrs	r0, r3
 8000418:	fa0c fc02 	lsl.w	ip, ip, r2
 800041c:	fa21 f303 	lsr.w	r3, r1, r3
 8000420:	4091      	lsls	r1, r2
 8000422:	4301      	orrs	r1, r0
 8000424:	ea4f 471c 	mov.w	r7, ip, lsr #16
 8000428:	fa1f fe8c 	uxth.w	lr, ip
 800042c:	fbb3 f0f7 	udiv	r0, r3, r7
 8000430:	fb07 3610 	mls	r6, r7, r0, r3
 8000434:	0c0b      	lsrs	r3, r1, #16
 8000436:	ea43 4306 	orr.w	r3, r3, r6, lsl #16
 800043a:	fb00 f60e 	mul.w	r6, r0, lr
 800043e:	429e      	cmp	r6, r3
 8000440:	fa04 f402 	lsl.w	r4, r4, r2
 8000444:	d908      	bls.n	8000458 <__udivmoddi4+0x260>
 8000446:	eb1c 0303 	adds.w	r3, ip, r3
 800044a:	f100 38ff 	add.w	r8, r0, #4294967295
 800044e:	d22f      	bcs.n	80004b0 <__udivmoddi4+0x2b8>
 8000450:	429e      	cmp	r6, r3
 8000452:	d92d      	bls.n	80004b0 <__udivmoddi4+0x2b8>
 8000454:	3802      	subs	r0, #2
 8000456:	4463      	add	r3, ip
 8000458:	1b9b      	subs	r3, r3, r6
 800045a:	b289      	uxth	r1, r1
 800045c:	fbb3 f6f7 	udiv	r6, r3, r7
 8000460:	fb07 3316 	mls	r3, r7, r6, r3
 8000464:	ea41 4103 	orr.w	r1, r1, r3, lsl #16
 8000468:	fb06 f30e 	mul.w	r3, r6, lr
 800046c:	428b      	cmp	r3, r1
 800046e:	d908      	bls.n	8000482 <__udivmoddi4+0x28a>
 8000470:	eb1c 0101 	adds.w	r1, ip, r1
 8000474:	f106 38ff 	add.w	r8, r6, #4294967295
 8000478:	d216      	bcs.n	80004a8 <__udivmoddi4+0x2b0>
 800047a:	428b      	cmp	r3, r1
 800047c:	d914      	bls.n	80004a8 <__udivmoddi4+0x2b0>
 800047e:	3e02      	subs	r6, #2
 8000480:	4461      	add	r1, ip
 8000482:	1ac9      	subs	r1, r1, r3
 8000484:	ea46 4600 	orr.w	r6, r6, r0, lsl #16
 8000488:	e738      	b.n	80002fc <__udivmoddi4+0x104>
 800048a:	462e      	mov	r6, r5
 800048c:	4628      	mov	r0, r5
 800048e:	e705      	b.n	800029c <__udivmoddi4+0xa4>
 8000490:	4606      	mov	r6, r0
 8000492:	e6e3      	b.n	800025c <__udivmoddi4+0x64>
 8000494:	4618      	mov	r0, r3
 8000496:	e6f8      	b.n	800028a <__udivmoddi4+0x92>
 8000498:	454b      	cmp	r3, r9
 800049a:	d2a9      	bcs.n	80003f0 <__udivmoddi4+0x1f8>
 800049c:	ebb9 0802 	subs.w	r8, r9, r2
 80004a0:	eb64 0e0c 	sbc.w	lr, r4, ip
 80004a4:	3801      	subs	r0, #1
 80004a6:	e7a3      	b.n	80003f0 <__udivmoddi4+0x1f8>
 80004a8:	4646      	mov	r6, r8
 80004aa:	e7ea      	b.n	8000482 <__udivmoddi4+0x28a>
 80004ac:	4620      	mov	r0, r4
 80004ae:	e794      	b.n	80003da <__udivmoddi4+0x1e2>
 80004b0:	4640      	mov	r0, r8
 80004b2:	e7d1      	b.n	8000458 <__udivmoddi4+0x260>
 80004b4:	46d0      	mov	r8, sl
 80004b6:	e77b      	b.n	80003b0 <__udivmoddi4+0x1b8>
 80004b8:	3b02      	subs	r3, #2
 80004ba:	4461      	add	r1, ip
 80004bc:	e732      	b.n	8000324 <__udivmoddi4+0x12c>
 80004be:	4630      	mov	r0, r6
 80004c0:	e709      	b.n	80002d6 <__udivmoddi4+0xde>
 80004c2:	4464      	add	r4, ip
 80004c4:	3802      	subs	r0, #2
 80004c6:	e742      	b.n	800034e <__udivmoddi4+0x156>

080004c8 <__aeabi_idiv0>:
 80004c8:	4770      	bx	lr
 80004ca:	bf00      	nop

080004cc <filter>:

#define NZEROS 3
#define NPOLES 3

float filter(float adc_input)
{
 80004cc:	b480      	push	{r7}
 80004ce:	b083      	sub	sp, #12
 80004d0:	af00      	add	r7, sp, #0
 80004d2:	ed87 0a01 	vstr	s0, [r7, #4]

	static float xv[NZEROS+1], yv[NPOLES+1];
    static float GAIN = 55.25187588f;

      xv[0] = xv[1]; xv[1] = xv[2]; xv[2] = xv[3];
 80004d6:	4b30      	ldr	r3, [pc, #192]	; (8000598 <filter+0xcc>)
 80004d8:	685b      	ldr	r3, [r3, #4]
 80004da:	4a2f      	ldr	r2, [pc, #188]	; (8000598 <filter+0xcc>)
 80004dc:	6013      	str	r3, [r2, #0]
 80004de:	4b2e      	ldr	r3, [pc, #184]	; (8000598 <filter+0xcc>)
 80004e0:	689b      	ldr	r3, [r3, #8]
 80004e2:	4a2d      	ldr	r2, [pc, #180]	; (8000598 <filter+0xcc>)
 80004e4:	6053      	str	r3, [r2, #4]
 80004e6:	4b2c      	ldr	r3, [pc, #176]	; (8000598 <filter+0xcc>)
 80004e8:	68db      	ldr	r3, [r3, #12]
 80004ea:	4a2b      	ldr	r2, [pc, #172]	; (8000598 <filter+0xcc>)
 80004ec:	6093      	str	r3, [r2, #8]
      xv[3] = adc_input / GAIN;
 80004ee:	4b2b      	ldr	r3, [pc, #172]	; (800059c <filter+0xd0>)
 80004f0:	ed93 7a00 	vldr	s14, [r3]
 80004f4:	edd7 6a01 	vldr	s13, [r7, #4]
 80004f8:	eec6 7a87 	vdiv.f32	s15, s13, s14
 80004fc:	4b26      	ldr	r3, [pc, #152]	; (8000598 <filter+0xcc>)
 80004fe:	edc3 7a03 	vstr	s15, [r3, #12]
      yv[0] = yv[1]; yv[1] = yv[2]; yv[2] = yv[3];
 8000502:	4b27      	ldr	r3, [pc, #156]	; (80005a0 <filter+0xd4>)
 8000504:	685b      	ldr	r3, [r3, #4]
 8000506:	4a26      	ldr	r2, [pc, #152]	; (80005a0 <filter+0xd4>)
 8000508:	6013      	str	r3, [r2, #0]
 800050a:	4b25      	ldr	r3, [pc, #148]	; (80005a0 <filter+0xd4>)
 800050c:	689b      	ldr	r3, [r3, #8]
 800050e:	4a24      	ldr	r2, [pc, #144]	; (80005a0 <filter+0xd4>)
 8000510:	6053      	str	r3, [r2, #4]
 8000512:	4b23      	ldr	r3, [pc, #140]	; (80005a0 <filter+0xd4>)
 8000514:	68db      	ldr	r3, [r3, #12]
 8000516:	4a22      	ldr	r2, [pc, #136]	; (80005a0 <filter+0xd4>)
 8000518:	6093      	str	r3, [r2, #8]
      yv[3] =   (xv[0] + xv[3]) + 3 * (xv[1] + xv[2])
 800051a:	4b1f      	ldr	r3, [pc, #124]	; (8000598 <filter+0xcc>)
 800051c:	ed93 7a00 	vldr	s14, [r3]
 8000520:	4b1d      	ldr	r3, [pc, #116]	; (8000598 <filter+0xcc>)
 8000522:	edd3 7a03 	vldr	s15, [r3, #12]
 8000526:	ee37 7a27 	vadd.f32	s14, s14, s15
 800052a:	4b1b      	ldr	r3, [pc, #108]	; (8000598 <filter+0xcc>)
 800052c:	edd3 6a01 	vldr	s13, [r3, #4]
 8000530:	4b19      	ldr	r3, [pc, #100]	; (8000598 <filter+0xcc>)
 8000532:	edd3 7a02 	vldr	s15, [r3, #8]
 8000536:	ee76 7aa7 	vadd.f32	s15, s13, s15
 800053a:	eef0 6a08 	vmov.f32	s13, #8	; 0x40400000  3.0
 800053e:	ee67 7aa6 	vmul.f32	s15, s15, s13
 8000542:	ee37 7a27 	vadd.f32	s14, s14, s15
                   + (  0.2780599176f * yv[0]) + ( -1.1828932620f * yv[1])
 8000546:	4b16      	ldr	r3, [pc, #88]	; (80005a0 <filter+0xd4>)
 8000548:	edd3 7a00 	vldr	s15, [r3]
 800054c:	eddf 6a15 	vldr	s13, [pc, #84]	; 80005a4 <filter+0xd8>
 8000550:	ee67 7aa6 	vmul.f32	s15, s15, s13
 8000554:	ee37 7a27 	vadd.f32	s14, s14, s15
 8000558:	4b11      	ldr	r3, [pc, #68]	; (80005a0 <filter+0xd4>)
 800055a:	edd3 7a01 	vldr	s15, [r3, #4]
 800055e:	eddf 6a12 	vldr	s13, [pc, #72]	; 80005a8 <filter+0xdc>
 8000562:	ee67 7aa6 	vmul.f32	s15, s15, s13
 8000566:	ee37 7a27 	vadd.f32	s14, s14, s15
                   + (  1.7600418803f * yv[2]);
 800056a:	4b0d      	ldr	r3, [pc, #52]	; (80005a0 <filter+0xd4>)
 800056c:	edd3 7a02 	vldr	s15, [r3, #8]
 8000570:	eddf 6a0e 	vldr	s13, [pc, #56]	; 80005ac <filter+0xe0>
 8000574:	ee67 7aa6 	vmul.f32	s15, s15, s13
 8000578:	ee77 7a27 	vadd.f32	s15, s14, s15
      yv[3] =   (xv[0] + xv[3]) + 3 * (xv[1] + xv[2])
 800057c:	4b08      	ldr	r3, [pc, #32]	; (80005a0 <filter+0xd4>)
 800057e:	edc3 7a03 	vstr	s15, [r3, #12]
      adc_input = yv[3];
 8000582:	4b07      	ldr	r3, [pc, #28]	; (80005a0 <filter+0xd4>)
 8000584:	68db      	ldr	r3, [r3, #12]
 8000586:	607b      	str	r3, [r7, #4]
}
 8000588:	bf00      	nop
 800058a:	eeb0 0a67 	vmov.f32	s0, s15
 800058e:	370c      	adds	r7, #12
 8000590:	46bd      	mov	sp, r7
 8000592:	f85d 7b04 	ldr.w	r7, [sp], #4
 8000596:	4770      	bx	lr
 8000598:	200001f4 	.word	0x200001f4
 800059c:	20000000 	.word	0x20000000
 80005a0:	20000204 	.word	0x20000204
 80005a4:	3e8e5ddf 	.word	0x3e8e5ddf
 80005a8:	bf97690c 	.word	0xbf97690c
 80005ac:	3fe1490d 	.word	0x3fe1490d

080005b0 <HAL_ADC_ConvCpltCallback>:
/* USER CODE BEGIN 0 */

      float ADC_value = 0;

     void HAL_ADC_ConvCpltCallback(ADC_HandleTypeDef *hadc1)
     {
 80005b0:	b580      	push	{r7, lr}
 80005b2:	b082      	sub	sp, #8
 80005b4:	af00      	add	r7, sp, #0
 80005b6:	6078      	str	r0, [r7, #4]
     	ADC_value = (float)HAL_ADC_GetValue(hadc1) - 2048.0f;
 80005b8:	6878      	ldr	r0, [r7, #4]
 80005ba:	f000 ffdf 	bl	800157c <HAL_ADC_GetValue>
 80005be:	ee07 0a90 	vmov	s15, r0
 80005c2:	eef8 7a67 	vcvt.f32.u32	s15, s15
 80005c6:	ed9f 7a05 	vldr	s14, [pc, #20]	; 80005dc <HAL_ADC_ConvCpltCallback+0x2c>
 80005ca:	ee77 7ac7 	vsub.f32	s15, s15, s14
 80005ce:	4b04      	ldr	r3, [pc, #16]	; (80005e0 <HAL_ADC_ConvCpltCallback+0x30>)
 80005d0:	edc3 7a00 	vstr	s15, [r3]
     }
 80005d4:	bf00      	nop
 80005d6:	3708      	adds	r7, #8
 80005d8:	46bd      	mov	sp, r7
 80005da:	bd80      	pop	{r7, pc}
 80005dc:	45000000 	.word	0x45000000
 80005e0:	200001f0 	.word	0x200001f0

080005e4 <HAL_TIM_PeriodElapsedCallback>:

     void HAL_TIM_PeriodElapsedCallback(TIM_HandleTypeDef *htim)
     {
 80005e4:	b580      	push	{r7, lr}
 80005e6:	b084      	sub	sp, #16
 80005e8:	af00      	add	r7, sp, #0
 80005ea:	6078      	str	r0, [r7, #4]
     	if (htim == &htim2)
 80005ec:	687b      	ldr	r3, [r7, #4]
 80005ee:	4a11      	ldr	r2, [pc, #68]	; (8000634 <HAL_TIM_PeriodElapsedCallback+0x50>)
 80005f0:	4293      	cmp	r3, r2
 80005f2:	d11b      	bne.n	800062c <HAL_TIM_PeriodElapsedCallback+0x48>
     	{
     		float signal_after_filter = filter(ADC_value);
 80005f4:	4b10      	ldr	r3, [pc, #64]	; (8000638 <HAL_TIM_PeriodElapsedCallback+0x54>)
 80005f6:	edd3 7a00 	vldr	s15, [r3]
 80005fa:	eeb0 0a67 	vmov.f32	s0, s15
 80005fe:	f7ff ff65 	bl	80004cc <filter>
 8000602:	ed87 0a03 	vstr	s0, [r7, #12]
     		signal_after_filter += 2048;
 8000606:	edd7 7a03 	vldr	s15, [r7, #12]
 800060a:	ed9f 7a0c 	vldr	s14, [pc, #48]	; 800063c <HAL_TIM_PeriodElapsedCallback+0x58>
 800060e:	ee77 7a87 	vadd.f32	s15, s15, s14
 8000612:	edc7 7a03 	vstr	s15, [r7, #12]
     		HAL_DAC_SetValue(&hdac, DAC_CHANNEL_2, DAC_ALIGN_12B_R, (uint32_t)signal_after_filter);
 8000616:	edd7 7a03 	vldr	s15, [r7, #12]
 800061a:	eefc 7ae7 	vcvt.u32.f32	s15, s15
 800061e:	ee17 3a90 	vmov	r3, s15
 8000622:	2200      	movs	r2, #0
 8000624:	2110      	movs	r1, #16
 8000626:	4806      	ldr	r0, [pc, #24]	; (8000640 <HAL_TIM_PeriodElapsedCallback+0x5c>)
 8000628:	f001 fb77 	bl	8001d1a <HAL_DAC_SetValue>
     	}
     }
 800062c:	bf00      	nop
 800062e:	3710      	adds	r7, #16
 8000630:	46bd      	mov	sp, r7
 8000632:	bd80      	pop	{r7, pc}
 8000634:	20000160 	.word	0x20000160
 8000638:	200001f0 	.word	0x200001f0
 800063c:	45000000 	.word	0x45000000
 8000640:	200000f8 	.word	0x200000f8

08000644 <main>:
/**
  * @brief  The application entry point.
  * @retval int
  */
int main(void)
{
 8000644:	b580      	push	{r7, lr}
 8000646:	af00      	add	r7, sp, #0
  /* USER CODE END 1 */

  /* MCU Configuration--------------------------------------------------------*/

  /* Reset of all peripherals, Initializes the Flash interface and the Systick. */
  HAL_Init();
 8000648:	f000 fcd0 	bl	8000fec <HAL_Init>
  /* USER CODE BEGIN Init */

  /* USER CODE END Init */

  /* Configure the system clock */
  SystemClock_Config();
 800064c:	f000 f826 	bl	800069c <SystemClock_Config>
  /* USER CODE BEGIN SysInit */

  /* USER CODE END SysInit */

  /* Initialize all configured peripherals */
  MX_GPIO_Init();
 8000650:	f000 f9d0 	bl	80009f4 <MX_GPIO_Init>
  MX_I2C1_Init();
 8000654:	f000 f908 	bl	8000868 <MX_I2C1_Init>
  MX_USB_HOST_Init();
 8000658:	f007 fc1a 	bl	8007e90 <MX_USB_HOST_Init>
  MX_ADC1_Init();
 800065c:	f000 f888 	bl	8000770 <MX_ADC1_Init>
  MX_DAC_Init();
 8000660:	f000 f8d8 	bl	8000814 <MX_DAC_Init>
  MX_TIM2_Init();
 8000664:	f000 f92e 	bl	80008c4 <MX_TIM2_Init>
  MX_TIM3_Init();
 8000668:	f000 f978 	bl	800095c <MX_TIM3_Init>
  /* USER CODE BEGIN 2 */
  HAL_ADC_Start_IT(&hadc1);
 800066c:	4807      	ldr	r0, [pc, #28]	; (800068c <main+0x48>)
 800066e:	f000 fd97 	bl	80011a0 <HAL_ADC_Start_IT>
  HAL_TIM_Base_Start(&htim3);
 8000672:	4807      	ldr	r0, [pc, #28]	; (8000690 <main+0x4c>)
 8000674:	f003 ff9e 	bl	80045b4 <HAL_TIM_Base_Start>
  HAL_TIM_Base_Start_IT(&htim2);
 8000678:	4806      	ldr	r0, [pc, #24]	; (8000694 <main+0x50>)
 800067a:	f004 f803 	bl	8004684 <HAL_TIM_Base_Start_IT>
  HAL_DAC_Start(&hdac, DAC_CHANNEL_2);
 800067e:	2110      	movs	r1, #16
 8000680:	4805      	ldr	r0, [pc, #20]	; (8000698 <main+0x54>)
 8000682:	f001 faf8 	bl	8001c76 <HAL_DAC_Start>
  /* Infinite loop */
  /* USER CODE BEGIN WHILE */
  while (1)
  {
    /* USER CODE END WHILE */
    MX_USB_HOST_Process();
 8000686:	f007 fc29 	bl	8007edc <MX_USB_HOST_Process>
 800068a:	e7fc      	b.n	8000686 <main+0x42>
 800068c:	200000b0 	.word	0x200000b0
 8000690:	200001a8 	.word	0x200001a8
 8000694:	20000160 	.word	0x20000160
 8000698:	200000f8 	.word	0x200000f8

0800069c <SystemClock_Config>:
/**
  * @brief System Clock Configuration
  * @retval None
  */
void SystemClock_Config(void)
{
 800069c:	b580      	push	{r7, lr}
 800069e:	b094      	sub	sp, #80	; 0x50
 80006a0:	af00      	add	r7, sp, #0
  RCC_OscInitTypeDef RCC_OscInitStruct = {0};
 80006a2:	f107 0320 	add.w	r3, r7, #32
 80006a6:	2230      	movs	r2, #48	; 0x30
 80006a8:	2100      	movs	r1, #0
 80006aa:	4618      	mov	r0, r3
 80006ac:	f007 ff32 	bl	8008514 <memset>
  RCC_ClkInitTypeDef RCC_ClkInitStruct = {0};
 80006b0:	f107 030c 	add.w	r3, r7, #12
 80006b4:	2200      	movs	r2, #0
 80006b6:	601a      	str	r2, [r3, #0]
 80006b8:	605a      	str	r2, [r3, #4]
 80006ba:	609a      	str	r2, [r3, #8]
 80006bc:	60da      	str	r2, [r3, #12]
 80006be:	611a      	str	r2, [r3, #16]

  /** Configure the main internal regulator output voltage
  */
  __HAL_RCC_PWR_CLK_ENABLE();
 80006c0:	2300      	movs	r3, #0
 80006c2:	60bb      	str	r3, [r7, #8]
 80006c4:	4b28      	ldr	r3, [pc, #160]	; (8000768 <SystemClock_Config+0xcc>)
 80006c6:	6c1b      	ldr	r3, [r3, #64]	; 0x40
 80006c8:	4a27      	ldr	r2, [pc, #156]	; (8000768 <SystemClock_Config+0xcc>)
 80006ca:	f043 5380 	orr.w	r3, r3, #268435456	; 0x10000000
 80006ce:	6413      	str	r3, [r2, #64]	; 0x40
 80006d0:	4b25      	ldr	r3, [pc, #148]	; (8000768 <SystemClock_Config+0xcc>)
 80006d2:	6c1b      	ldr	r3, [r3, #64]	; 0x40
 80006d4:	f003 5380 	and.w	r3, r3, #268435456	; 0x10000000
 80006d8:	60bb      	str	r3, [r7, #8]
 80006da:	68bb      	ldr	r3, [r7, #8]
  __HAL_PWR_VOLTAGESCALING_CONFIG(PWR_REGULATOR_VOLTAGE_SCALE1);
 80006dc:	2300      	movs	r3, #0
 80006de:	607b      	str	r3, [r7, #4]
 80006e0:	4b22      	ldr	r3, [pc, #136]	; (800076c <SystemClock_Config+0xd0>)
 80006e2:	681b      	ldr	r3, [r3, #0]
 80006e4:	4a21      	ldr	r2, [pc, #132]	; (800076c <SystemClock_Config+0xd0>)
 80006e6:	f443 4380 	orr.w	r3, r3, #16384	; 0x4000
 80006ea:	6013      	str	r3, [r2, #0]
 80006ec:	4b1f      	ldr	r3, [pc, #124]	; (800076c <SystemClock_Config+0xd0>)
 80006ee:	681b      	ldr	r3, [r3, #0]
 80006f0:	f403 4380 	and.w	r3, r3, #16384	; 0x4000
 80006f4:	607b      	str	r3, [r7, #4]
 80006f6:	687b      	ldr	r3, [r7, #4]

  /** Initializes the RCC Oscillators according to the specified parameters
  * in the RCC_OscInitTypeDef structure.
  */
  RCC_OscInitStruct.OscillatorType = RCC_OSCILLATORTYPE_HSE;
 80006f8:	2301      	movs	r3, #1
 80006fa:	623b      	str	r3, [r7, #32]
  RCC_OscInitStruct.HSEState = RCC_HSE_ON;
 80006fc:	f44f 3380 	mov.w	r3, #65536	; 0x10000
 8000700:	627b      	str	r3, [r7, #36]	; 0x24
  RCC_OscInitStruct.PLL.PLLState = RCC_PLL_ON;
 8000702:	2302      	movs	r3, #2
 8000704:	63bb      	str	r3, [r7, #56]	; 0x38
  RCC_OscInitStruct.PLL.PLLSource = RCC_PLLSOURCE_HSE;
 8000706:	f44f 0380 	mov.w	r3, #4194304	; 0x400000
 800070a:	63fb      	str	r3, [r7, #60]	; 0x3c
  RCC_OscInitStruct.PLL.PLLM = 8;
 800070c:	2308      	movs	r3, #8
 800070e:	643b      	str	r3, [r7, #64]	; 0x40
  RCC_OscInitStruct.PLL.PLLN = 336;
 8000710:	f44f 73a8 	mov.w	r3, #336	; 0x150
 8000714:	647b      	str	r3, [r7, #68]	; 0x44
  RCC_OscInitStruct.PLL.PLLP = RCC_PLLP_DIV2;
 8000716:	2302      	movs	r3, #2
 8000718:	64bb      	str	r3, [r7, #72]	; 0x48
  RCC_OscInitStruct.PLL.PLLQ = 7;
 800071a:	2307      	movs	r3, #7
 800071c:	64fb      	str	r3, [r7, #76]	; 0x4c
  if (HAL_RCC_OscConfig(&RCC_OscInitStruct) != HAL_OK)
 800071e:	f107 0320 	add.w	r3, r7, #32
 8000722:	4618      	mov	r0, r3
 8000724:	f003 fa72 	bl	8003c0c <HAL_RCC_OscConfig>
 8000728:	4603      	mov	r3, r0
 800072a:	2b00      	cmp	r3, #0
 800072c:	d001      	beq.n	8000732 <SystemClock_Config+0x96>
  {
    Error_Handler();
 800072e:	f000 fa61 	bl	8000bf4 <Error_Handler>
  }

  /** Initializes the CPU, AHB and APB buses clocks
  */
  RCC_ClkInitStruct.ClockType = RCC_CLOCKTYPE_HCLK|RCC_CLOCKTYPE_SYSCLK
 8000732:	230f      	movs	r3, #15
 8000734:	60fb      	str	r3, [r7, #12]
                              |RCC_CLOCKTYPE_PCLK1|RCC_CLOCKTYPE_PCLK2;
  RCC_ClkInitStruct.SYSCLKSource = RCC_SYSCLKSOURCE_PLLCLK;
 8000736:	2302      	movs	r3, #2
 8000738:	613b      	str	r3, [r7, #16]
  RCC_ClkInitStruct.AHBCLKDivider = RCC_SYSCLK_DIV1;
 800073a:	2300      	movs	r3, #0
 800073c:	617b      	str	r3, [r7, #20]
  RCC_ClkInitStruct.APB1CLKDivider = RCC_HCLK_DIV4;
 800073e:	f44f 53a0 	mov.w	r3, #5120	; 0x1400
 8000742:	61bb      	str	r3, [r7, #24]
  RCC_ClkInitStruct.APB2CLKDivider = RCC_HCLK_DIV2;
 8000744:	f44f 5380 	mov.w	r3, #4096	; 0x1000
 8000748:	61fb      	str	r3, [r7, #28]

  if (HAL_RCC_ClockConfig(&RCC_ClkInitStruct, FLASH_LATENCY_5) != HAL_OK)
 800074a:	f107 030c 	add.w	r3, r7, #12
 800074e:	2105      	movs	r1, #5
 8000750:	4618      	mov	r0, r3
 8000752:	f003 fcd3 	bl	80040fc <HAL_RCC_ClockConfig>
 8000756:	4603      	mov	r3, r0
 8000758:	2b00      	cmp	r3, #0
 800075a:	d001      	beq.n	8000760 <SystemClock_Config+0xc4>
  {
    Error_Handler();
 800075c:	f000 fa4a 	bl	8000bf4 <Error_Handler>
  }
}
 8000760:	bf00      	nop
 8000762:	3750      	adds	r7, #80	; 0x50
 8000764:	46bd      	mov	sp, r7
 8000766:	bd80      	pop	{r7, pc}
 8000768:	40023800 	.word	0x40023800
 800076c:	40007000 	.word	0x40007000

08000770 <MX_ADC1_Init>:
  * @brief ADC1 Initialization Function
  * @param None
  * @retval None
  */
static void MX_ADC1_Init(void)
{
 8000770:	b580      	push	{r7, lr}
 8000772:	b084      	sub	sp, #16
 8000774:	af00      	add	r7, sp, #0

  /* USER CODE BEGIN ADC1_Init 0 */

  /* USER CODE END ADC1_Init 0 */

  ADC_ChannelConfTypeDef sConfig = {0};
 8000776:	463b      	mov	r3, r7
 8000778:	2200      	movs	r2, #0
 800077a:	601a      	str	r2, [r3, #0]
 800077c:	605a      	str	r2, [r3, #4]
 800077e:	609a      	str	r2, [r3, #8]
 8000780:	60da      	str	r2, [r3, #12]

  /* USER CODE END ADC1_Init 1 */

  /** Configure the global features of the ADC (Clock, Resolution, Data Alignment and number of conversion)
  */
  hadc1.Instance = ADC1;
 8000782:	4b22      	ldr	r3, [pc, #136]	; (800080c <MX_ADC1_Init+0x9c>)
 8000784:	4a22      	ldr	r2, [pc, #136]	; (8000810 <MX_ADC1_Init+0xa0>)
 8000786:	601a      	str	r2, [r3, #0]
  hadc1.Init.ClockPrescaler = ADC_CLOCK_SYNC_PCLK_DIV4;
 8000788:	4b20      	ldr	r3, [pc, #128]	; (800080c <MX_ADC1_Init+0x9c>)
 800078a:	f44f 3280 	mov.w	r2, #65536	; 0x10000
 800078e:	605a      	str	r2, [r3, #4]
  hadc1.Init.Resolution = ADC_RESOLUTION_12B;
 8000790:	4b1e      	ldr	r3, [pc, #120]	; (800080c <MX_ADC1_Init+0x9c>)
 8000792:	2200      	movs	r2, #0
 8000794:	609a      	str	r2, [r3, #8]
  hadc1.Init.ScanConvMode = DISABLE;
 8000796:	4b1d      	ldr	r3, [pc, #116]	; (800080c <MX_ADC1_Init+0x9c>)
 8000798:	2200      	movs	r2, #0
 800079a:	611a      	str	r2, [r3, #16]
  hadc1.Init.ContinuousConvMode = DISABLE;
 800079c:	4b1b      	ldr	r3, [pc, #108]	; (800080c <MX_ADC1_Init+0x9c>)
 800079e:	2200      	movs	r2, #0
 80007a0:	761a      	strb	r2, [r3, #24]
  hadc1.Init.DiscontinuousConvMode = DISABLE;
 80007a2:	4b1a      	ldr	r3, [pc, #104]	; (800080c <MX_ADC1_Init+0x9c>)
 80007a4:	2200      	movs	r2, #0
 80007a6:	f883 2020 	strb.w	r2, [r3, #32]
  hadc1.Init.ExternalTrigConvEdge = ADC_EXTERNALTRIGCONVEDGE_RISING;
 80007aa:	4b18      	ldr	r3, [pc, #96]	; (800080c <MX_ADC1_Init+0x9c>)
 80007ac:	f04f 5280 	mov.w	r2, #268435456	; 0x10000000
 80007b0:	62da      	str	r2, [r3, #44]	; 0x2c
  hadc1.Init.ExternalTrigConv = ADC_EXTERNALTRIGCONV_T3_TRGO;
 80007b2:	4b16      	ldr	r3, [pc, #88]	; (800080c <MX_ADC1_Init+0x9c>)
 80007b4:	f04f 6200 	mov.w	r2, #134217728	; 0x8000000
 80007b8:	629a      	str	r2, [r3, #40]	; 0x28
  hadc1.Init.DataAlign = ADC_DATAALIGN_RIGHT;
 80007ba:	4b14      	ldr	r3, [pc, #80]	; (800080c <MX_ADC1_Init+0x9c>)
 80007bc:	2200      	movs	r2, #0
 80007be:	60da      	str	r2, [r3, #12]
  hadc1.Init.NbrOfConversion = 1;
 80007c0:	4b12      	ldr	r3, [pc, #72]	; (800080c <MX_ADC1_Init+0x9c>)
 80007c2:	2201      	movs	r2, #1
 80007c4:	61da      	str	r2, [r3, #28]
  hadc1.Init.DMAContinuousRequests = DISABLE;
 80007c6:	4b11      	ldr	r3, [pc, #68]	; (800080c <MX_ADC1_Init+0x9c>)
 80007c8:	2200      	movs	r2, #0
 80007ca:	f883 2030 	strb.w	r2, [r3, #48]	; 0x30
  hadc1.Init.EOCSelection = ADC_EOC_SINGLE_CONV;
 80007ce:	4b0f      	ldr	r3, [pc, #60]	; (800080c <MX_ADC1_Init+0x9c>)
 80007d0:	2201      	movs	r2, #1
 80007d2:	615a      	str	r2, [r3, #20]
  if (HAL_ADC_Init(&hadc1) != HAL_OK)
 80007d4:	480d      	ldr	r0, [pc, #52]	; (800080c <MX_ADC1_Init+0x9c>)
 80007d6:	f000 fc9f 	bl	8001118 <HAL_ADC_Init>
 80007da:	4603      	mov	r3, r0
 80007dc:	2b00      	cmp	r3, #0
 80007de:	d001      	beq.n	80007e4 <MX_ADC1_Init+0x74>
  {
    Error_Handler();
 80007e0:	f000 fa08 	bl	8000bf4 <Error_Handler>
  }

  /** Configure for the selected ADC regular channel its corresponding rank in the sequencer and its sample time.
  */
  sConfig.Channel = ADC_CHANNEL_1;
 80007e4:	2301      	movs	r3, #1
 80007e6:	603b      	str	r3, [r7, #0]
  sConfig.Rank = 1;
 80007e8:	2301      	movs	r3, #1
 80007ea:	607b      	str	r3, [r7, #4]
  sConfig.SamplingTime = ADC_SAMPLETIME_3CYCLES;
 80007ec:	2300      	movs	r3, #0
 80007ee:	60bb      	str	r3, [r7, #8]
  if (HAL_ADC_ConfigChannel(&hadc1, &sConfig) != HAL_OK)
 80007f0:	463b      	mov	r3, r7
 80007f2:	4619      	mov	r1, r3
 80007f4:	4805      	ldr	r0, [pc, #20]	; (800080c <MX_ADC1_Init+0x9c>)
 80007f6:	f000 fee3 	bl	80015c0 <HAL_ADC_ConfigChannel>
 80007fa:	4603      	mov	r3, r0
 80007fc:	2b00      	cmp	r3, #0
 80007fe:	d001      	beq.n	8000804 <MX_ADC1_Init+0x94>
  {
    Error_Handler();
 8000800:	f000 f9f8 	bl	8000bf4 <Error_Handler>
  }
  /* USER CODE BEGIN ADC1_Init 2 */

  /* USER CODE END ADC1_Init 2 */

}
 8000804:	bf00      	nop
 8000806:	3710      	adds	r7, #16
 8000808:	46bd      	mov	sp, r7
 800080a:	bd80      	pop	{r7, pc}
 800080c:	200000b0 	.word	0x200000b0
 8000810:	40012000 	.word	0x40012000

08000814 <MX_DAC_Init>:
  * @brief DAC Initialization Function
  * @param None
  * @retval None
  */
static void MX_DAC_Init(void)
{
 8000814:	b580      	push	{r7, lr}
 8000816:	b082      	sub	sp, #8
 8000818:	af00      	add	r7, sp, #0

  /* USER CODE BEGIN DAC_Init 0 */

  /* USER CODE END DAC_Init 0 */

  DAC_ChannelConfTypeDef sConfig = {0};
 800081a:	463b      	mov	r3, r7
 800081c:	2200      	movs	r2, #0
 800081e:	601a      	str	r2, [r3, #0]
 8000820:	605a      	str	r2, [r3, #4]

  /* USER CODE END DAC_Init 1 */

  /** DAC Initialization
  */
  hdac.Instance = DAC;
 8000822:	4b0f      	ldr	r3, [pc, #60]	; (8000860 <MX_DAC_Init+0x4c>)
 8000824:	4a0f      	ldr	r2, [pc, #60]	; (8000864 <MX_DAC_Init+0x50>)
 8000826:	601a      	str	r2, [r3, #0]
  if (HAL_DAC_Init(&hdac) != HAL_OK)
 8000828:	480d      	ldr	r0, [pc, #52]	; (8000860 <MX_DAC_Init+0x4c>)
 800082a:	f001 fa02 	bl	8001c32 <HAL_DAC_Init>
 800082e:	4603      	mov	r3, r0
 8000830:	2b00      	cmp	r3, #0
 8000832:	d001      	beq.n	8000838 <MX_DAC_Init+0x24>
  {
    Error_Handler();
 8000834:	f000 f9de 	bl	8000bf4 <Error_Handler>
  }

  /** DAC channel OUT2 config
  */
  sConfig.DAC_Trigger = DAC_TRIGGER_T2_TRGO;
 8000838:	2324      	movs	r3, #36	; 0x24
 800083a:	603b      	str	r3, [r7, #0]
  sConfig.DAC_OutputBuffer = DAC_OUTPUTBUFFER_ENABLE;
 800083c:	2300      	movs	r3, #0
 800083e:	607b      	str	r3, [r7, #4]
  if (HAL_DAC_ConfigChannel(&hdac, &sConfig, DAC_CHANNEL_2) != HAL_OK)
 8000840:	463b      	mov	r3, r7
 8000842:	2210      	movs	r2, #16
 8000844:	4619      	mov	r1, r3
 8000846:	4806      	ldr	r0, [pc, #24]	; (8000860 <MX_DAC_Init+0x4c>)
 8000848:	f001 fa8c 	bl	8001d64 <HAL_DAC_ConfigChannel>
 800084c:	4603      	mov	r3, r0
 800084e:	2b00      	cmp	r3, #0
 8000850:	d001      	beq.n	8000856 <MX_DAC_Init+0x42>
  {
    Error_Handler();
 8000852:	f000 f9cf 	bl	8000bf4 <Error_Handler>
  }
  /* USER CODE BEGIN DAC_Init 2 */

  /* USER CODE END DAC_Init 2 */

}
 8000856:	bf00      	nop
 8000858:	3708      	adds	r7, #8
 800085a:	46bd      	mov	sp, r7
 800085c:	bd80      	pop	{r7, pc}
 800085e:	bf00      	nop
 8000860:	200000f8 	.word	0x200000f8
 8000864:	40007400 	.word	0x40007400

08000868 <MX_I2C1_Init>:
  * @brief I2C1 Initialization Function
  * @param None
  * @retval None
  */
static void MX_I2C1_Init(void)
{
 8000868:	b580      	push	{r7, lr}
 800086a:	af00      	add	r7, sp, #0
  /* USER CODE END I2C1_Init 0 */

  /* USER CODE BEGIN I2C1_Init 1 */

  /* USER CODE END I2C1_Init 1 */
  hi2c1.Instance = I2C1;
 800086c:	4b12      	ldr	r3, [pc, #72]	; (80008b8 <MX_I2C1_Init+0x50>)
 800086e:	4a13      	ldr	r2, [pc, #76]	; (80008bc <MX_I2C1_Init+0x54>)
 8000870:	601a      	str	r2, [r3, #0]
  hi2c1.Init.ClockSpeed = 100000;
 8000872:	4b11      	ldr	r3, [pc, #68]	; (80008b8 <MX_I2C1_Init+0x50>)
 8000874:	4a12      	ldr	r2, [pc, #72]	; (80008c0 <MX_I2C1_Init+0x58>)
 8000876:	605a      	str	r2, [r3, #4]
  hi2c1.Init.DutyCycle = I2C_DUTYCYCLE_2;
 8000878:	4b0f      	ldr	r3, [pc, #60]	; (80008b8 <MX_I2C1_Init+0x50>)
 800087a:	2200      	movs	r2, #0
 800087c:	609a      	str	r2, [r3, #8]
  hi2c1.Init.OwnAddress1 = 0;
 800087e:	4b0e      	ldr	r3, [pc, #56]	; (80008b8 <MX_I2C1_Init+0x50>)
 8000880:	2200      	movs	r2, #0
 8000882:	60da      	str	r2, [r3, #12]
  hi2c1.Init.AddressingMode = I2C_ADDRESSINGMODE_7BIT;
 8000884:	4b0c      	ldr	r3, [pc, #48]	; (80008b8 <MX_I2C1_Init+0x50>)
 8000886:	f44f 4280 	mov.w	r2, #16384	; 0x4000
 800088a:	611a      	str	r2, [r3, #16]
  hi2c1.Init.DualAddressMode = I2C_DUALADDRESS_DISABLE;
 800088c:	4b0a      	ldr	r3, [pc, #40]	; (80008b8 <MX_I2C1_Init+0x50>)
 800088e:	2200      	movs	r2, #0
 8000890:	615a      	str	r2, [r3, #20]
  hi2c1.Init.OwnAddress2 = 0;
 8000892:	4b09      	ldr	r3, [pc, #36]	; (80008b8 <MX_I2C1_Init+0x50>)
 8000894:	2200      	movs	r2, #0
 8000896:	619a      	str	r2, [r3, #24]
  hi2c1.Init.GeneralCallMode = I2C_GENERALCALL_DISABLE;
 8000898:	4b07      	ldr	r3, [pc, #28]	; (80008b8 <MX_I2C1_Init+0x50>)
 800089a:	2200      	movs	r2, #0
 800089c:	61da      	str	r2, [r3, #28]
  hi2c1.Init.NoStretchMode = I2C_NOSTRETCH_DISABLE;
 800089e:	4b06      	ldr	r3, [pc, #24]	; (80008b8 <MX_I2C1_Init+0x50>)
 80008a0:	2200      	movs	r2, #0
 80008a2:	621a      	str	r2, [r3, #32]
  if (HAL_I2C_Init(&hi2c1) != HAL_OK)
 80008a4:	4804      	ldr	r0, [pc, #16]	; (80008b8 <MX_I2C1_Init+0x50>)
 80008a6:	f003 f86d 	bl	8003984 <HAL_I2C_Init>
 80008aa:	4603      	mov	r3, r0
 80008ac:	2b00      	cmp	r3, #0
 80008ae:	d001      	beq.n	80008b4 <MX_I2C1_Init+0x4c>
  {
    Error_Handler();
 80008b0:	f000 f9a0 	bl	8000bf4 <Error_Handler>
  }
  /* USER CODE BEGIN I2C1_Init 2 */

  /* USER CODE END I2C1_Init 2 */

}
 80008b4:	bf00      	nop
 80008b6:	bd80      	pop	{r7, pc}
 80008b8:	2000010c 	.word	0x2000010c
 80008bc:	40005400 	.word	0x40005400
 80008c0:	000186a0 	.word	0x000186a0

080008c4 <MX_TIM2_Init>:
  * @brief TIM2 Initialization Function
  * @param None
  * @retval None
  */
static void MX_TIM2_Init(void)
{
 80008c4:	b580      	push	{r7, lr}
 80008c6:	b086      	sub	sp, #24
 80008c8:	af00      	add	r7, sp, #0

  /* USER CODE BEGIN TIM2_Init 0 */

  /* USER CODE END TIM2_Init 0 */

  TIM_ClockConfigTypeDef sClockSourceConfig = {0};
 80008ca:	f107 0308 	add.w	r3, r7, #8
 80008ce:	2200      	movs	r2, #0
 80008d0:	601a      	str	r2, [r3, #0]
 80008d2:	605a      	str	r2, [r3, #4]
 80008d4:	609a      	str	r2, [r3, #8]
 80008d6:	60da      	str	r2, [r3, #12]
  TIM_MasterConfigTypeDef sMasterConfig = {0};
 80008d8:	463b      	mov	r3, r7
 80008da:	2200      	movs	r2, #0
 80008dc:	601a      	str	r2, [r3, #0]
 80008de:	605a      	str	r2, [r3, #4]

  /* USER CODE BEGIN TIM2_Init 1 */

  /* USER CODE END TIM2_Init 1 */
  htim2.Instance = TIM2;
 80008e0:	4b1d      	ldr	r3, [pc, #116]	; (8000958 <MX_TIM2_Init+0x94>)
 80008e2:	f04f 4280 	mov.w	r2, #1073741824	; 0x40000000
 80008e6:	601a      	str	r2, [r3, #0]
  htim2.Init.Prescaler = 20;
 80008e8:	4b1b      	ldr	r3, [pc, #108]	; (8000958 <MX_TIM2_Init+0x94>)
 80008ea:	2214      	movs	r2, #20
 80008ec:	605a      	str	r2, [r3, #4]
  htim2.Init.CounterMode = TIM_COUNTERMODE_UP;
 80008ee:	4b1a      	ldr	r3, [pc, #104]	; (8000958 <MX_TIM2_Init+0x94>)
 80008f0:	2200      	movs	r2, #0
 80008f2:	609a      	str	r2, [r3, #8]
  htim2.Init.Period = 39;
 80008f4:	4b18      	ldr	r3, [pc, #96]	; (8000958 <MX_TIM2_Init+0x94>)
 80008f6:	2227      	movs	r2, #39	; 0x27
 80008f8:	60da      	str	r2, [r3, #12]
  htim2.Init.ClockDivision = TIM_CLOCKDIVISION_DIV1;
 80008fa:	4b17      	ldr	r3, [pc, #92]	; (8000958 <MX_TIM2_Init+0x94>)
 80008fc:	2200      	movs	r2, #0
 80008fe:	611a      	str	r2, [r3, #16]
  htim2.Init.AutoReloadPreload = TIM_AUTORELOAD_PRELOAD_ENABLE;
 8000900:	4b15      	ldr	r3, [pc, #84]	; (8000958 <MX_TIM2_Init+0x94>)
 8000902:	2280      	movs	r2, #128	; 0x80
 8000904:	619a      	str	r2, [r3, #24]
  if (HAL_TIM_Base_Init(&htim2) != HAL_OK)
 8000906:	4814      	ldr	r0, [pc, #80]	; (8000958 <MX_TIM2_Init+0x94>)
 8000908:	f003 fe04 	bl	8004514 <HAL_TIM_Base_Init>
 800090c:	4603      	mov	r3, r0
 800090e:	2b00      	cmp	r3, #0
 8000910:	d001      	beq.n	8000916 <MX_TIM2_Init+0x52>
  {
    Error_Handler();
 8000912:	f000 f96f 	bl	8000bf4 <Error_Handler>
  }
  sClockSourceConfig.ClockSource = TIM_CLOCKSOURCE_INTERNAL;
 8000916:	f44f 5380 	mov.w	r3, #4096	; 0x1000
 800091a:	60bb      	str	r3, [r7, #8]
  if (HAL_TIM_ConfigClockSource(&htim2, &sClockSourceConfig) != HAL_OK)
 800091c:	f107 0308 	add.w	r3, r7, #8
 8000920:	4619      	mov	r1, r3
 8000922:	480d      	ldr	r0, [pc, #52]	; (8000958 <MX_TIM2_Init+0x94>)
 8000924:	f004 f826 	bl	8004974 <HAL_TIM_ConfigClockSource>
 8000928:	4603      	mov	r3, r0
 800092a:	2b00      	cmp	r3, #0
 800092c:	d001      	beq.n	8000932 <MX_TIM2_Init+0x6e>
  {
    Error_Handler();
 800092e:	f000 f961 	bl	8000bf4 <Error_Handler>
  }
  sMasterConfig.MasterOutputTrigger = TIM_TRGO_UPDATE;
 8000932:	2320      	movs	r3, #32
 8000934:	603b      	str	r3, [r7, #0]
  sMasterConfig.MasterSlaveMode = TIM_MASTERSLAVEMODE_DISABLE;
 8000936:	2300      	movs	r3, #0
 8000938:	607b      	str	r3, [r7, #4]
  if (HAL_TIMEx_MasterConfigSynchronization(&htim2, &sMasterConfig) != HAL_OK)
 800093a:	463b      	mov	r3, r7
 800093c:	4619      	mov	r1, r3
 800093e:	4806      	ldr	r0, [pc, #24]	; (8000958 <MX_TIM2_Init+0x94>)
 8000940:	f004 fa42 	bl	8004dc8 <HAL_TIMEx_MasterConfigSynchronization>
 8000944:	4603      	mov	r3, r0
 8000946:	2b00      	cmp	r3, #0
 8000948:	d001      	beq.n	800094e <MX_TIM2_Init+0x8a>
  {
    Error_Handler();
 800094a:	f000 f953 	bl	8000bf4 <Error_Handler>
  }
  /* USER CODE BEGIN TIM2_Init 2 */

  /* USER CODE END TIM2_Init 2 */

}
 800094e:	bf00      	nop
 8000950:	3718      	adds	r7, #24
 8000952:	46bd      	mov	sp, r7
 8000954:	bd80      	pop	{r7, pc}
 8000956:	bf00      	nop
 8000958:	20000160 	.word	0x20000160

0800095c <MX_TIM3_Init>:
  * @brief TIM3 Initialization Function
  * @param None
  * @retval None
  */
static void MX_TIM3_Init(void)
{
 800095c:	b580      	push	{r7, lr}
 800095e:	b086      	sub	sp, #24
 8000960:	af00      	add	r7, sp, #0

  /* USER CODE BEGIN TIM3_Init 0 */

  /* USER CODE END TIM3_Init 0 */

  TIM_ClockConfigTypeDef sClockSourceConfig = {0};
 8000962:	f107 0308 	add.w	r3, r7, #8
 8000966:	2200      	movs	r2, #0
 8000968:	601a      	str	r2, [r3, #0]
 800096a:	605a      	str	r2, [r3, #4]
 800096c:	609a      	str	r2, [r3, #8]
 800096e:	60da      	str	r2, [r3, #12]
  TIM_MasterConfigTypeDef sMasterConfig = {0};
 8000970:	463b      	mov	r3, r7
 8000972:	2200      	movs	r2, #0
 8000974:	601a      	str	r2, [r3, #0]
 8000976:	605a      	str	r2, [r3, #4]

  /* USER CODE BEGIN TIM3_Init 1 */

  /* USER CODE END TIM3_Init 1 */
  htim3.Instance = TIM3;
 8000978:	4b1c      	ldr	r3, [pc, #112]	; (80009ec <MX_TIM3_Init+0x90>)
 800097a:	4a1d      	ldr	r2, [pc, #116]	; (80009f0 <MX_TIM3_Init+0x94>)
 800097c:	601a      	str	r2, [r3, #0]
  htim3.Init.Prescaler = 83;
 800097e:	4b1b      	ldr	r3, [pc, #108]	; (80009ec <MX_TIM3_Init+0x90>)
 8000980:	2253      	movs	r2, #83	; 0x53
 8000982:	605a      	str	r2, [r3, #4]
  htim3.Init.CounterMode = TIM_COUNTERMODE_UP;
 8000984:	4b19      	ldr	r3, [pc, #100]	; (80009ec <MX_TIM3_Init+0x90>)
 8000986:	2200      	movs	r2, #0
 8000988:	609a      	str	r2, [r3, #8]
  htim3.Init.Period = 19;
 800098a:	4b18      	ldr	r3, [pc, #96]	; (80009ec <MX_TIM3_Init+0x90>)
 800098c:	2213      	movs	r2, #19
 800098e:	60da      	str	r2, [r3, #12]
  htim3.Init.ClockDivision = TIM_CLOCKDIVISION_DIV1;
 8000990:	4b16      	ldr	r3, [pc, #88]	; (80009ec <MX_TIM3_Init+0x90>)
 8000992:	2200      	movs	r2, #0
 8000994:	611a      	str	r2, [r3, #16]
  htim3.Init.AutoReloadPreload = TIM_AUTORELOAD_PRELOAD_ENABLE;
 8000996:	4b15      	ldr	r3, [pc, #84]	; (80009ec <MX_TIM3_Init+0x90>)
 8000998:	2280      	movs	r2, #128	; 0x80
 800099a:	619a      	str	r2, [r3, #24]
  if (HAL_TIM_Base_Init(&htim3) != HAL_OK)
 800099c:	4813      	ldr	r0, [pc, #76]	; (80009ec <MX_TIM3_Init+0x90>)
 800099e:	f003 fdb9 	bl	8004514 <HAL_TIM_Base_Init>
 80009a2:	4603      	mov	r3, r0
 80009a4:	2b00      	cmp	r3, #0
 80009a6:	d001      	beq.n	80009ac <MX_TIM3_Init+0x50>
  {
    Error_Handler();
 80009a8:	f000 f924 	bl	8000bf4 <Error_Handler>
  }
  sClockSourceConfig.ClockSource = TIM_CLOCKSOURCE_INTERNAL;
 80009ac:	f44f 5380 	mov.w	r3, #4096	; 0x1000
 80009b0:	60bb      	str	r3, [r7, #8]
  if (HAL_TIM_ConfigClockSource(&htim3, &sClockSourceConfig) != HAL_OK)
 80009b2:	f107 0308 	add.w	r3, r7, #8
 80009b6:	4619      	mov	r1, r3
 80009b8:	480c      	ldr	r0, [pc, #48]	; (80009ec <MX_TIM3_Init+0x90>)
 80009ba:	f003 ffdb 	bl	8004974 <HAL_TIM_ConfigClockSource>
 80009be:	4603      	mov	r3, r0
 80009c0:	2b00      	cmp	r3, #0
 80009c2:	d001      	beq.n	80009c8 <MX_TIM3_Init+0x6c>
  {
    Error_Handler();
 80009c4:	f000 f916 	bl	8000bf4 <Error_Handler>
  }
  sMasterConfig.MasterOutputTrigger = TIM_TRGO_UPDATE;
 80009c8:	2320      	movs	r3, #32
 80009ca:	603b      	str	r3, [r7, #0]
  sMasterConfig.MasterSlaveMode = TIM_MASTERSLAVEMODE_DISABLE;
 80009cc:	2300      	movs	r3, #0
 80009ce:	607b      	str	r3, [r7, #4]
  if (HAL_TIMEx_MasterConfigSynchronization(&htim3, &sMasterConfig) != HAL_OK)
 80009d0:	463b      	mov	r3, r7
 80009d2:	4619      	mov	r1, r3
 80009d4:	4805      	ldr	r0, [pc, #20]	; (80009ec <MX_TIM3_Init+0x90>)
 80009d6:	f004 f9f7 	bl	8004dc8 <HAL_TIMEx_MasterConfigSynchronization>
 80009da:	4603      	mov	r3, r0
 80009dc:	2b00      	cmp	r3, #0
 80009de:	d001      	beq.n	80009e4 <MX_TIM3_Init+0x88>
  {
    Error_Handler();
 80009e0:	f000 f908 	bl	8000bf4 <Error_Handler>
  }
  /* USER CODE BEGIN TIM3_Init 2 */

  /* USER CODE END TIM3_Init 2 */

}
 80009e4:	bf00      	nop
 80009e6:	3718      	adds	r7, #24
 80009e8:	46bd      	mov	sp, r7
 80009ea:	bd80      	pop	{r7, pc}
 80009ec:	200001a8 	.word	0x200001a8
 80009f0:	40000400 	.word	0x40000400

080009f4 <MX_GPIO_Init>:
  * @brief GPIO Initialization Function
  * @param None
  * @retval None
  */
static void MX_GPIO_Init(void)
{
 80009f4:	b580      	push	{r7, lr}
 80009f6:	b08c      	sub	sp, #48	; 0x30
 80009f8:	af00      	add	r7, sp, #0
  GPIO_InitTypeDef GPIO_InitStruct = {0};
 80009fa:	f107 031c 	add.w	r3, r7, #28
 80009fe:	2200      	movs	r2, #0
 8000a00:	601a      	str	r2, [r3, #0]
 8000a02:	605a      	str	r2, [r3, #4]
 8000a04:	609a      	str	r2, [r3, #8]
 8000a06:	60da      	str	r2, [r3, #12]
 8000a08:	611a      	str	r2, [r3, #16]

  /* GPIO Ports Clock Enable */
  __HAL_RCC_GPIOE_CLK_ENABLE();
 8000a0a:	2300      	movs	r3, #0
 8000a0c:	61bb      	str	r3, [r7, #24]
 8000a0e:	4b74      	ldr	r3, [pc, #464]	; (8000be0 <MX_GPIO_Init+0x1ec>)
 8000a10:	6b1b      	ldr	r3, [r3, #48]	; 0x30
 8000a12:	4a73      	ldr	r2, [pc, #460]	; (8000be0 <MX_GPIO_Init+0x1ec>)
 8000a14:	f043 0310 	orr.w	r3, r3, #16
 8000a18:	6313      	str	r3, [r2, #48]	; 0x30
 8000a1a:	4b71      	ldr	r3, [pc, #452]	; (8000be0 <MX_GPIO_Init+0x1ec>)
 8000a1c:	6b1b      	ldr	r3, [r3, #48]	; 0x30
 8000a1e:	f003 0310 	and.w	r3, r3, #16
 8000a22:	61bb      	str	r3, [r7, #24]
 8000a24:	69bb      	ldr	r3, [r7, #24]
  __HAL_RCC_GPIOC_CLK_ENABLE();
 8000a26:	2300      	movs	r3, #0
 8000a28:	617b      	str	r3, [r7, #20]
 8000a2a:	4b6d      	ldr	r3, [pc, #436]	; (8000be0 <MX_GPIO_Init+0x1ec>)
 8000a2c:	6b1b      	ldr	r3, [r3, #48]	; 0x30
 8000a2e:	4a6c      	ldr	r2, [pc, #432]	; (8000be0 <MX_GPIO_Init+0x1ec>)
 8000a30:	f043 0304 	orr.w	r3, r3, #4
 8000a34:	6313      	str	r3, [r2, #48]	; 0x30
 8000a36:	4b6a      	ldr	r3, [pc, #424]	; (8000be0 <MX_GPIO_Init+0x1ec>)
 8000a38:	6b1b      	ldr	r3, [r3, #48]	; 0x30
 8000a3a:	f003 0304 	and.w	r3, r3, #4
 8000a3e:	617b      	str	r3, [r7, #20]
 8000a40:	697b      	ldr	r3, [r7, #20]
  __HAL_RCC_GPIOH_CLK_ENABLE();
 8000a42:	2300      	movs	r3, #0
 8000a44:	613b      	str	r3, [r7, #16]
 8000a46:	4b66      	ldr	r3, [pc, #408]	; (8000be0 <MX_GPIO_Init+0x1ec>)
 8000a48:	6b1b      	ldr	r3, [r3, #48]	; 0x30
 8000a4a:	4a65      	ldr	r2, [pc, #404]	; (8000be0 <MX_GPIO_Init+0x1ec>)
 8000a4c:	f043 0380 	orr.w	r3, r3, #128	; 0x80
 8000a50:	6313      	str	r3, [r2, #48]	; 0x30
 8000a52:	4b63      	ldr	r3, [pc, #396]	; (8000be0 <MX_GPIO_Init+0x1ec>)
 8000a54:	6b1b      	ldr	r3, [r3, #48]	; 0x30
 8000a56:	f003 0380 	and.w	r3, r3, #128	; 0x80
 8000a5a:	613b      	str	r3, [r7, #16]
 8000a5c:	693b      	ldr	r3, [r7, #16]
  __HAL_RCC_GPIOA_CLK_ENABLE();
 8000a5e:	2300      	movs	r3, #0
 8000a60:	60fb      	str	r3, [r7, #12]
 8000a62:	4b5f      	ldr	r3, [pc, #380]	; (8000be0 <MX_GPIO_Init+0x1ec>)
 8000a64:	6b1b      	ldr	r3, [r3, #48]	; 0x30
 8000a66:	4a5e      	ldr	r2, [pc, #376]	; (8000be0 <MX_GPIO_Init+0x1ec>)
 8000a68:	f043 0301 	orr.w	r3, r3, #1
 8000a6c:	6313      	str	r3, [r2, #48]	; 0x30
 8000a6e:	4b5c      	ldr	r3, [pc, #368]	; (8000be0 <MX_GPIO_Init+0x1ec>)
 8000a70:	6b1b      	ldr	r3, [r3, #48]	; 0x30
 8000a72:	f003 0301 	and.w	r3, r3, #1
 8000a76:	60fb      	str	r3, [r7, #12]
 8000a78:	68fb      	ldr	r3, [r7, #12]
  __HAL_RCC_GPIOB_CLK_ENABLE();
 8000a7a:	2300      	movs	r3, #0
 8000a7c:	60bb      	str	r3, [r7, #8]
 8000a7e:	4b58      	ldr	r3, [pc, #352]	; (8000be0 <MX_GPIO_Init+0x1ec>)
 8000a80:	6b1b      	ldr	r3, [r3, #48]	; 0x30
 8000a82:	4a57      	ldr	r2, [pc, #348]	; (8000be0 <MX_GPIO_Init+0x1ec>)
 8000a84:	f043 0302 	orr.w	r3, r3, #2
 8000a88:	6313      	str	r3, [r2, #48]	; 0x30
 8000a8a:	4b55      	ldr	r3, [pc, #340]	; (8000be0 <MX_GPIO_Init+0x1ec>)
 8000a8c:	6b1b      	ldr	r3, [r3, #48]	; 0x30
 8000a8e:	f003 0302 	and.w	r3, r3, #2
 8000a92:	60bb      	str	r3, [r7, #8]
 8000a94:	68bb      	ldr	r3, [r7, #8]
  __HAL_RCC_GPIOD_CLK_ENABLE();
 8000a96:	2300      	movs	r3, #0
 8000a98:	607b      	str	r3, [r7, #4]
 8000a9a:	4b51      	ldr	r3, [pc, #324]	; (8000be0 <MX_GPIO_Init+0x1ec>)
 8000a9c:	6b1b      	ldr	r3, [r3, #48]	; 0x30
 8000a9e:	4a50      	ldr	r2, [pc, #320]	; (8000be0 <MX_GPIO_Init+0x1ec>)
 8000aa0:	f043 0308 	orr.w	r3, r3, #8
 8000aa4:	6313      	str	r3, [r2, #48]	; 0x30
 8000aa6:	4b4e      	ldr	r3, [pc, #312]	; (8000be0 <MX_GPIO_Init+0x1ec>)
 8000aa8:	6b1b      	ldr	r3, [r3, #48]	; 0x30
 8000aaa:	f003 0308 	and.w	r3, r3, #8
 8000aae:	607b      	str	r3, [r7, #4]
 8000ab0:	687b      	ldr	r3, [r7, #4]

  /*Configure GPIO pin Output Level */
  HAL_GPIO_WritePin(CS_I2C_SPI_GPIO_Port, CS_I2C_SPI_Pin, GPIO_PIN_RESET);
 8000ab2:	2200      	movs	r2, #0
 8000ab4:	2108      	movs	r1, #8
 8000ab6:	484b      	ldr	r0, [pc, #300]	; (8000be4 <MX_GPIO_Init+0x1f0>)
 8000ab8:	f001 fb40 	bl	800213c <HAL_GPIO_WritePin>

  /*Configure GPIO pin Output Level */
  HAL_GPIO_WritePin(OTG_FS_PowerSwitchOn_GPIO_Port, OTG_FS_PowerSwitchOn_Pin, GPIO_PIN_SET);
 8000abc:	2201      	movs	r2, #1
 8000abe:	2101      	movs	r1, #1
 8000ac0:	4849      	ldr	r0, [pc, #292]	; (8000be8 <MX_GPIO_Init+0x1f4>)
 8000ac2:	f001 fb3b 	bl	800213c <HAL_GPIO_WritePin>

  /*Configure GPIO pin Output Level */
  HAL_GPIO_WritePin(GPIOD, LD4_Pin|LD3_Pin|LD5_Pin|LD6_Pin
 8000ac6:	2200      	movs	r2, #0
 8000ac8:	f24f 0110 	movw	r1, #61456	; 0xf010
 8000acc:	4847      	ldr	r0, [pc, #284]	; (8000bec <MX_GPIO_Init+0x1f8>)
 8000ace:	f001 fb35 	bl	800213c <HAL_GPIO_WritePin>
                          |Audio_RST_Pin, GPIO_PIN_RESET);

  /*Configure GPIO pin : CS_I2C_SPI_Pin */
  GPIO_InitStruct.Pin = CS_I2C_SPI_Pin;
 8000ad2:	2308      	movs	r3, #8
 8000ad4:	61fb      	str	r3, [r7, #28]
  GPIO_InitStruct.Mode = GPIO_MODE_OUTPUT_PP;
 8000ad6:	2301      	movs	r3, #1
 8000ad8:	623b      	str	r3, [r7, #32]
  GPIO_InitStruct.Pull = GPIO_NOPULL;
 8000ada:	2300      	movs	r3, #0
 8000adc:	627b      	str	r3, [r7, #36]	; 0x24
  GPIO_InitStruct.Speed = GPIO_SPEED_FREQ_LOW;
 8000ade:	2300      	movs	r3, #0
 8000ae0:	62bb      	str	r3, [r7, #40]	; 0x28
  HAL_GPIO_Init(CS_I2C_SPI_GPIO_Port, &GPIO_InitStruct);
 8000ae2:	f107 031c 	add.w	r3, r7, #28
 8000ae6:	4619      	mov	r1, r3
 8000ae8:	483e      	ldr	r0, [pc, #248]	; (8000be4 <MX_GPIO_Init+0x1f0>)
 8000aea:	f001 f98b 	bl	8001e04 <HAL_GPIO_Init>

  /*Configure GPIO pin : OTG_FS_PowerSwitchOn_Pin */
  GPIO_InitStruct.Pin = OTG_FS_PowerSwitchOn_Pin;
 8000aee:	2301      	movs	r3, #1
 8000af0:	61fb      	str	r3, [r7, #28]
  GPIO_InitStruct.Mode = GPIO_MODE_OUTPUT_PP;
 8000af2:	2301      	movs	r3, #1
 8000af4:	623b      	str	r3, [r7, #32]
  GPIO_InitStruct.Pull = GPIO_NOPULL;
 8000af6:	2300      	movs	r3, #0
 8000af8:	627b      	str	r3, [r7, #36]	; 0x24
  GPIO_InitStruct.Speed = GPIO_SPEED_FREQ_LOW;
 8000afa:	2300      	movs	r3, #0
 8000afc:	62bb      	str	r3, [r7, #40]	; 0x28
  HAL_GPIO_Init(OTG_FS_PowerSwitchOn_GPIO_Port, &GPIO_InitStruct);
 8000afe:	f107 031c 	add.w	r3, r7, #28
 8000b02:	4619      	mov	r1, r3
 8000b04:	4838      	ldr	r0, [pc, #224]	; (8000be8 <MX_GPIO_Init+0x1f4>)
 8000b06:	f001 f97d 	bl	8001e04 <HAL_GPIO_Init>

  /*Configure GPIO pin : PDM_OUT_Pin */
  GPIO_InitStruct.Pin = PDM_OUT_Pin;
 8000b0a:	2308      	movs	r3, #8
 8000b0c:	61fb      	str	r3, [r7, #28]
  GPIO_InitStruct.Mode = GPIO_MODE_AF_PP;
 8000b0e:	2302      	movs	r3, #2
 8000b10:	623b      	str	r3, [r7, #32]
  GPIO_InitStruct.Pull = GPIO_NOPULL;
 8000b12:	2300      	movs	r3, #0
 8000b14:	627b      	str	r3, [r7, #36]	; 0x24
  GPIO_InitStruct.Speed = GPIO_SPEED_FREQ_LOW;
 8000b16:	2300      	movs	r3, #0
 8000b18:	62bb      	str	r3, [r7, #40]	; 0x28
  GPIO_InitStruct.Alternate = GPIO_AF5_SPI2;
 8000b1a:	2305      	movs	r3, #5
 8000b1c:	62fb      	str	r3, [r7, #44]	; 0x2c
  HAL_GPIO_Init(PDM_OUT_GPIO_Port, &GPIO_InitStruct);
 8000b1e:	f107 031c 	add.w	r3, r7, #28
 8000b22:	4619      	mov	r1, r3
 8000b24:	4830      	ldr	r0, [pc, #192]	; (8000be8 <MX_GPIO_Init+0x1f4>)
 8000b26:	f001 f96d 	bl	8001e04 <HAL_GPIO_Init>

  /*Configure GPIO pin : BOOT1_Pin */
  GPIO_InitStruct.Pin = BOOT1_Pin;
 8000b2a:	2304      	movs	r3, #4
 8000b2c:	61fb      	str	r3, [r7, #28]
  GPIO_InitStruct.Mode = GPIO_MODE_INPUT;
 8000b2e:	2300      	movs	r3, #0
 8000b30:	623b      	str	r3, [r7, #32]
  GPIO_InitStruct.Pull = GPIO_NOPULL;
 8000b32:	2300      	movs	r3, #0
 8000b34:	627b      	str	r3, [r7, #36]	; 0x24
  HAL_GPIO_Init(BOOT1_GPIO_Port, &GPIO_InitStruct);
 8000b36:	f107 031c 	add.w	r3, r7, #28
 8000b3a:	4619      	mov	r1, r3
 8000b3c:	482c      	ldr	r0, [pc, #176]	; (8000bf0 <MX_GPIO_Init+0x1fc>)
 8000b3e:	f001 f961 	bl	8001e04 <HAL_GPIO_Init>

  /*Configure GPIO pin : CLK_IN_Pin */
  GPIO_InitStruct.Pin = CLK_IN_Pin;
 8000b42:	f44f 6380 	mov.w	r3, #1024	; 0x400
 8000b46:	61fb      	str	r3, [r7, #28]
  GPIO_InitStruct.Mode = GPIO_MODE_AF_PP;
 8000b48:	2302      	movs	r3, #2
 8000b4a:	623b      	str	r3, [r7, #32]
  GPIO_InitStruct.Pull = GPIO_NOPULL;
 8000b4c:	2300      	movs	r3, #0
 8000b4e:	627b      	str	r3, [r7, #36]	; 0x24
  GPIO_InitStruct.Speed = GPIO_SPEED_FREQ_LOW;
 8000b50:	2300      	movs	r3, #0
 8000b52:	62bb      	str	r3, [r7, #40]	; 0x28
  GPIO_InitStruct.Alternate = GPIO_AF5_SPI2;
 8000b54:	2305      	movs	r3, #5
 8000b56:	62fb      	str	r3, [r7, #44]	; 0x2c
  HAL_GPIO_Init(CLK_IN_GPIO_Port, &GPIO_InitStruct);
 8000b58:	f107 031c 	add.w	r3, r7, #28
 8000b5c:	4619      	mov	r1, r3
 8000b5e:	4824      	ldr	r0, [pc, #144]	; (8000bf0 <MX_GPIO_Init+0x1fc>)
 8000b60:	f001 f950 	bl	8001e04 <HAL_GPIO_Init>

  /*Configure GPIO pins : LD4_Pin LD3_Pin LD5_Pin LD6_Pin
                           Audio_RST_Pin */
  GPIO_InitStruct.Pin = LD4_Pin|LD3_Pin|LD5_Pin|LD6_Pin
 8000b64:	f24f 0310 	movw	r3, #61456	; 0xf010
 8000b68:	61fb      	str	r3, [r7, #28]
                          |Audio_RST_Pin;
  GPIO_InitStruct.Mode = GPIO_MODE_OUTPUT_PP;
 8000b6a:	2301      	movs	r3, #1
 8000b6c:	623b      	str	r3, [r7, #32]
  GPIO_InitStruct.Pull = GPIO_NOPULL;
 8000b6e:	2300      	movs	r3, #0
 8000b70:	627b      	str	r3, [r7, #36]	; 0x24
  GPIO_InitStruct.Speed = GPIO_SPEED_FREQ_LOW;
 8000b72:	2300      	movs	r3, #0
 8000b74:	62bb      	str	r3, [r7, #40]	; 0x28
  HAL_GPIO_Init(GPIOD, &GPIO_InitStruct);
 8000b76:	f107 031c 	add.w	r3, r7, #28
 8000b7a:	4619      	mov	r1, r3
 8000b7c:	481b      	ldr	r0, [pc, #108]	; (8000bec <MX_GPIO_Init+0x1f8>)
 8000b7e:	f001 f941 	bl	8001e04 <HAL_GPIO_Init>

  /*Configure GPIO pins : I2S3_MCK_Pin I2S3_SCK_Pin I2S3_SD_Pin */
  GPIO_InitStruct.Pin = I2S3_MCK_Pin|I2S3_SCK_Pin|I2S3_SD_Pin;
 8000b82:	f44f 53a4 	mov.w	r3, #5248	; 0x1480
 8000b86:	61fb      	str	r3, [r7, #28]
  GPIO_InitStruct.Mode = GPIO_MODE_AF_PP;
 8000b88:	2302      	movs	r3, #2
 8000b8a:	623b      	str	r3, [r7, #32]
  GPIO_InitStruct.Pull = GPIO_NOPULL;
 8000b8c:	2300      	movs	r3, #0
 8000b8e:	627b      	str	r3, [r7, #36]	; 0x24
  GPIO_InitStruct.Speed = GPIO_SPEED_FREQ_LOW;
 8000b90:	2300      	movs	r3, #0
 8000b92:	62bb      	str	r3, [r7, #40]	; 0x28
  GPIO_InitStruct.Alternate = GPIO_AF6_SPI3;
 8000b94:	2306      	movs	r3, #6
 8000b96:	62fb      	str	r3, [r7, #44]	; 0x2c
  HAL_GPIO_Init(GPIOC, &GPIO_InitStruct);
 8000b98:	f107 031c 	add.w	r3, r7, #28
 8000b9c:	4619      	mov	r1, r3
 8000b9e:	4812      	ldr	r0, [pc, #72]	; (8000be8 <MX_GPIO_Init+0x1f4>)
 8000ba0:	f001 f930 	bl	8001e04 <HAL_GPIO_Init>

  /*Configure GPIO pin : OTG_FS_OverCurrent_Pin */
  GPIO_InitStruct.Pin = OTG_FS_OverCurrent_Pin;
 8000ba4:	2320      	movs	r3, #32
 8000ba6:	61fb      	str	r3, [r7, #28]
  GPIO_InitStruct.Mode = GPIO_MODE_INPUT;
 8000ba8:	2300      	movs	r3, #0
 8000baa:	623b      	str	r3, [r7, #32]
  GPIO_InitStruct.Pull = GPIO_NOPULL;
 8000bac:	2300      	movs	r3, #0
 8000bae:	627b      	str	r3, [r7, #36]	; 0x24
  HAL_GPIO_Init(OTG_FS_OverCurrent_GPIO_Port, &GPIO_InitStruct);
 8000bb0:	f107 031c 	add.w	r3, r7, #28
 8000bb4:	4619      	mov	r1, r3
 8000bb6:	480d      	ldr	r0, [pc, #52]	; (8000bec <MX_GPIO_Init+0x1f8>)
 8000bb8:	f001 f924 	bl	8001e04 <HAL_GPIO_Init>

  /*Configure GPIO pin : MEMS_INT2_Pin */
  GPIO_InitStruct.Pin = MEMS_INT2_Pin;
 8000bbc:	2302      	movs	r3, #2
 8000bbe:	61fb      	str	r3, [r7, #28]
  GPIO_InitStruct.Mode = GPIO_MODE_EVT_RISING;
 8000bc0:	f44f 1390 	mov.w	r3, #1179648	; 0x120000
 8000bc4:	623b      	str	r3, [r7, #32]
  GPIO_InitStruct.Pull = GPIO_NOPULL;
 8000bc6:	2300      	movs	r3, #0
 8000bc8:	627b      	str	r3, [r7, #36]	; 0x24
  HAL_GPIO_Init(MEMS_INT2_GPIO_Port, &GPIO_InitStruct);
 8000bca:	f107 031c 	add.w	r3, r7, #28
 8000bce:	4619      	mov	r1, r3
 8000bd0:	4804      	ldr	r0, [pc, #16]	; (8000be4 <MX_GPIO_Init+0x1f0>)
 8000bd2:	f001 f917 	bl	8001e04 <HAL_GPIO_Init>

}
 8000bd6:	bf00      	nop
 8000bd8:	3730      	adds	r7, #48	; 0x30
 8000bda:	46bd      	mov	sp, r7
 8000bdc:	bd80      	pop	{r7, pc}
 8000bde:	bf00      	nop
 8000be0:	40023800 	.word	0x40023800
 8000be4:	40021000 	.word	0x40021000
 8000be8:	40020800 	.word	0x40020800
 8000bec:	40020c00 	.word	0x40020c00
 8000bf0:	40020400 	.word	0x40020400

08000bf4 <Error_Handler>:
/**
  * @brief  This function is executed in case of error occurrence.
  * @retval None
  */
void Error_Handler(void)
{
 8000bf4:	b480      	push	{r7}
 8000bf6:	af00      	add	r7, sp, #0
  \details Disables IRQ interrupts by setting the I-bit in the CPSR.
           Can only be executed in Privileged modes.
 */
__STATIC_FORCEINLINE void __disable_irq(void)
{
  __ASM volatile ("cpsid i" : : : "memory");
 8000bf8:	b672      	cpsid	i
}
 8000bfa:	bf00      	nop
  /* USER CODE BEGIN Error_Handler_Debug */
  /* User can add his own implementation to report the HAL error return state */
  __disable_irq();
  while (1)
 8000bfc:	e7fe      	b.n	8000bfc <Error_Handler+0x8>
	...

08000c00 <HAL_MspInit>:
/* USER CODE END 0 */
/**
  * Initializes the Global MSP.
  */
void HAL_MspInit(void)
{
 8000c00:	b580      	push	{r7, lr}
 8000c02:	b082      	sub	sp, #8
 8000c04:	af00      	add	r7, sp, #0
  /* USER CODE BEGIN MspInit 0 */

  /* USER CODE END MspInit 0 */

  __HAL_RCC_SYSCFG_CLK_ENABLE();
 8000c06:	2300      	movs	r3, #0
 8000c08:	607b      	str	r3, [r7, #4]
 8000c0a:	4b10      	ldr	r3, [pc, #64]	; (8000c4c <HAL_MspInit+0x4c>)
 8000c0c:	6c5b      	ldr	r3, [r3, #68]	; 0x44
 8000c0e:	4a0f      	ldr	r2, [pc, #60]	; (8000c4c <HAL_MspInit+0x4c>)
 8000c10:	f443 4380 	orr.w	r3, r3, #16384	; 0x4000
 8000c14:	6453      	str	r3, [r2, #68]	; 0x44
 8000c16:	4b0d      	ldr	r3, [pc, #52]	; (8000c4c <HAL_MspInit+0x4c>)
 8000c18:	6c5b      	ldr	r3, [r3, #68]	; 0x44
 8000c1a:	f403 4380 	and.w	r3, r3, #16384	; 0x4000
 8000c1e:	607b      	str	r3, [r7, #4]
 8000c20:	687b      	ldr	r3, [r7, #4]
  __HAL_RCC_PWR_CLK_ENABLE();
 8000c22:	2300      	movs	r3, #0
 8000c24:	603b      	str	r3, [r7, #0]
 8000c26:	4b09      	ldr	r3, [pc, #36]	; (8000c4c <HAL_MspInit+0x4c>)
 8000c28:	6c1b      	ldr	r3, [r3, #64]	; 0x40
 8000c2a:	4a08      	ldr	r2, [pc, #32]	; (8000c4c <HAL_MspInit+0x4c>)
 8000c2c:	f043 5380 	orr.w	r3, r3, #268435456	; 0x10000000
 8000c30:	6413      	str	r3, [r2, #64]	; 0x40
 8000c32:	4b06      	ldr	r3, [pc, #24]	; (8000c4c <HAL_MspInit+0x4c>)
 8000c34:	6c1b      	ldr	r3, [r3, #64]	; 0x40
 8000c36:	f003 5380 	and.w	r3, r3, #268435456	; 0x10000000
 8000c3a:	603b      	str	r3, [r7, #0]
 8000c3c:	683b      	ldr	r3, [r7, #0]

  HAL_NVIC_SetPriorityGrouping(NVIC_PRIORITYGROUP_0);
 8000c3e:	2007      	movs	r0, #7
 8000c40:	f000 ffb6 	bl	8001bb0 <HAL_NVIC_SetPriorityGrouping>
  /* System interrupt init*/

  /* USER CODE BEGIN MspInit 1 */

  /* USER CODE END MspInit 1 */
}
 8000c44:	bf00      	nop
 8000c46:	3708      	adds	r7, #8
 8000c48:	46bd      	mov	sp, r7
 8000c4a:	bd80      	pop	{r7, pc}
 8000c4c:	40023800 	.word	0x40023800

08000c50 <HAL_ADC_MspInit>:
* This function configures the hardware resources used in this example
* @param hadc: ADC handle pointer
* @retval None
*/
void HAL_ADC_MspInit(ADC_HandleTypeDef* hadc)
{
 8000c50:	b580      	push	{r7, lr}
 8000c52:	b08a      	sub	sp, #40	; 0x28
 8000c54:	af00      	add	r7, sp, #0
 8000c56:	6078      	str	r0, [r7, #4]
  GPIO_InitTypeDef GPIO_InitStruct = {0};
 8000c58:	f107 0314 	add.w	r3, r7, #20
 8000c5c:	2200      	movs	r2, #0
 8000c5e:	601a      	str	r2, [r3, #0]
 8000c60:	605a      	str	r2, [r3, #4]
 8000c62:	609a      	str	r2, [r3, #8]
 8000c64:	60da      	str	r2, [r3, #12]
 8000c66:	611a      	str	r2, [r3, #16]
  if(hadc->Instance==ADC1)
 8000c68:	687b      	ldr	r3, [r7, #4]
 8000c6a:	681b      	ldr	r3, [r3, #0]
 8000c6c:	4a1b      	ldr	r2, [pc, #108]	; (8000cdc <HAL_ADC_MspInit+0x8c>)
 8000c6e:	4293      	cmp	r3, r2
 8000c70:	d12f      	bne.n	8000cd2 <HAL_ADC_MspInit+0x82>
  {
  /* USER CODE BEGIN ADC1_MspInit 0 */

  /* USER CODE END ADC1_MspInit 0 */
    /* Peripheral clock enable */
    __HAL_RCC_ADC1_CLK_ENABLE();
 8000c72:	2300      	movs	r3, #0
 8000c74:	613b      	str	r3, [r7, #16]
 8000c76:	4b1a      	ldr	r3, [pc, #104]	; (8000ce0 <HAL_ADC_MspInit+0x90>)
 8000c78:	6c5b      	ldr	r3, [r3, #68]	; 0x44
 8000c7a:	4a19      	ldr	r2, [pc, #100]	; (8000ce0 <HAL_ADC_MspInit+0x90>)
 8000c7c:	f443 7380 	orr.w	r3, r3, #256	; 0x100
 8000c80:	6453      	str	r3, [r2, #68]	; 0x44
 8000c82:	4b17      	ldr	r3, [pc, #92]	; (8000ce0 <HAL_ADC_MspInit+0x90>)
 8000c84:	6c5b      	ldr	r3, [r3, #68]	; 0x44
 8000c86:	f403 7380 	and.w	r3, r3, #256	; 0x100
 8000c8a:	613b      	str	r3, [r7, #16]
 8000c8c:	693b      	ldr	r3, [r7, #16]

    __HAL_RCC_GPIOA_CLK_ENABLE();
 8000c8e:	2300      	movs	r3, #0
 8000c90:	60fb      	str	r3, [r7, #12]
 8000c92:	4b13      	ldr	r3, [pc, #76]	; (8000ce0 <HAL_ADC_MspInit+0x90>)
 8000c94:	6b1b      	ldr	r3, [r3, #48]	; 0x30
 8000c96:	4a12      	ldr	r2, [pc, #72]	; (8000ce0 <HAL_ADC_MspInit+0x90>)
 8000c98:	f043 0301 	orr.w	r3, r3, #1
 8000c9c:	6313      	str	r3, [r2, #48]	; 0x30
 8000c9e:	4b10      	ldr	r3, [pc, #64]	; (8000ce0 <HAL_ADC_MspInit+0x90>)
 8000ca0:	6b1b      	ldr	r3, [r3, #48]	; 0x30
 8000ca2:	f003 0301 	and.w	r3, r3, #1
 8000ca6:	60fb      	str	r3, [r7, #12]
 8000ca8:	68fb      	ldr	r3, [r7, #12]
    /**ADC1 GPIO Configuration
    PA1     ------> ADC1_IN1
    */
    GPIO_InitStruct.Pin = GPIO_PIN_1;
 8000caa:	2302      	movs	r3, #2
 8000cac:	617b      	str	r3, [r7, #20]
    GPIO_InitStruct.Mode = GPIO_MODE_ANALOG;
 8000cae:	2303      	movs	r3, #3
 8000cb0:	61bb      	str	r3, [r7, #24]
    GPIO_InitStruct.Pull = GPIO_NOPULL;
 8000cb2:	2300      	movs	r3, #0
 8000cb4:	61fb      	str	r3, [r7, #28]
    HAL_GPIO_Init(GPIOA, &GPIO_InitStruct);
 8000cb6:	f107 0314 	add.w	r3, r7, #20
 8000cba:	4619      	mov	r1, r3
 8000cbc:	4809      	ldr	r0, [pc, #36]	; (8000ce4 <HAL_ADC_MspInit+0x94>)
 8000cbe:	f001 f8a1 	bl	8001e04 <HAL_GPIO_Init>

    /* ADC1 interrupt Init */
    HAL_NVIC_SetPriority(ADC_IRQn, 0, 0);
 8000cc2:	2200      	movs	r2, #0
 8000cc4:	2100      	movs	r1, #0
 8000cc6:	2012      	movs	r0, #18
 8000cc8:	f000 ff7d 	bl	8001bc6 <HAL_NVIC_SetPriority>
    HAL_NVIC_EnableIRQ(ADC_IRQn);
 8000ccc:	2012      	movs	r0, #18
 8000cce:	f000 ff96 	bl	8001bfe <HAL_NVIC_EnableIRQ>
  /* USER CODE BEGIN ADC1_MspInit 1 */

  /* USER CODE END ADC1_MspInit 1 */
  }

}
 8000cd2:	bf00      	nop
 8000cd4:	3728      	adds	r7, #40	; 0x28
 8000cd6:	46bd      	mov	sp, r7
 8000cd8:	bd80      	pop	{r7, pc}
 8000cda:	bf00      	nop
 8000cdc:	40012000 	.word	0x40012000
 8000ce0:	40023800 	.word	0x40023800
 8000ce4:	40020000 	.word	0x40020000

08000ce8 <HAL_DAC_MspInit>:
* This function configures the hardware resources used in this example
* @param hdac: DAC handle pointer
* @retval None
*/
void HAL_DAC_MspInit(DAC_HandleTypeDef* hdac)
{
 8000ce8:	b580      	push	{r7, lr}
 8000cea:	b08a      	sub	sp, #40	; 0x28
 8000cec:	af00      	add	r7, sp, #0
 8000cee:	6078      	str	r0, [r7, #4]
  GPIO_InitTypeDef GPIO_InitStruct = {0};
 8000cf0:	f107 0314 	add.w	r3, r7, #20
 8000cf4:	2200      	movs	r2, #0
 8000cf6:	601a      	str	r2, [r3, #0]
 8000cf8:	605a      	str	r2, [r3, #4]
 8000cfa:	609a      	str	r2, [r3, #8]
 8000cfc:	60da      	str	r2, [r3, #12]
 8000cfe:	611a      	str	r2, [r3, #16]
  if(hdac->Instance==DAC)
 8000d00:	687b      	ldr	r3, [r7, #4]
 8000d02:	681b      	ldr	r3, [r3, #0]
 8000d04:	4a17      	ldr	r2, [pc, #92]	; (8000d64 <HAL_DAC_MspInit+0x7c>)
 8000d06:	4293      	cmp	r3, r2
 8000d08:	d127      	bne.n	8000d5a <HAL_DAC_MspInit+0x72>
  {
  /* USER CODE BEGIN DAC_MspInit 0 */

  /* USER CODE END DAC_MspInit 0 */
    /* Peripheral clock enable */
    __HAL_RCC_DAC_CLK_ENABLE();
 8000d0a:	2300      	movs	r3, #0
 8000d0c:	613b      	str	r3, [r7, #16]
 8000d0e:	4b16      	ldr	r3, [pc, #88]	; (8000d68 <HAL_DAC_MspInit+0x80>)
 8000d10:	6c1b      	ldr	r3, [r3, #64]	; 0x40
 8000d12:	4a15      	ldr	r2, [pc, #84]	; (8000d68 <HAL_DAC_MspInit+0x80>)
 8000d14:	f043 5300 	orr.w	r3, r3, #536870912	; 0x20000000
 8000d18:	6413      	str	r3, [r2, #64]	; 0x40
 8000d1a:	4b13      	ldr	r3, [pc, #76]	; (8000d68 <HAL_DAC_MspInit+0x80>)
 8000d1c:	6c1b      	ldr	r3, [r3, #64]	; 0x40
 8000d1e:	f003 5300 	and.w	r3, r3, #536870912	; 0x20000000
 8000d22:	613b      	str	r3, [r7, #16]
 8000d24:	693b      	ldr	r3, [r7, #16]

    __HAL_RCC_GPIOA_CLK_ENABLE();
 8000d26:	2300      	movs	r3, #0
 8000d28:	60fb      	str	r3, [r7, #12]
 8000d2a:	4b0f      	ldr	r3, [pc, #60]	; (8000d68 <HAL_DAC_MspInit+0x80>)
 8000d2c:	6b1b      	ldr	r3, [r3, #48]	; 0x30
 8000d2e:	4a0e      	ldr	r2, [pc, #56]	; (8000d68 <HAL_DAC_MspInit+0x80>)
 8000d30:	f043 0301 	orr.w	r3, r3, #1
 8000d34:	6313      	str	r3, [r2, #48]	; 0x30
 8000d36:	4b0c      	ldr	r3, [pc, #48]	; (8000d68 <HAL_DAC_MspInit+0x80>)
 8000d38:	6b1b      	ldr	r3, [r3, #48]	; 0x30
 8000d3a:	f003 0301 	and.w	r3, r3, #1
 8000d3e:	60fb      	str	r3, [r7, #12]
 8000d40:	68fb      	ldr	r3, [r7, #12]
    /**DAC GPIO Configuration
    PA5     ------> DAC_OUT2
    */
    GPIO_InitStruct.Pin = GPIO_PIN_5;
 8000d42:	2320      	movs	r3, #32
 8000d44:	617b      	str	r3, [r7, #20]
    GPIO_InitStruct.Mode = GPIO_MODE_ANALOG;
 8000d46:	2303      	movs	r3, #3
 8000d48:	61bb      	str	r3, [r7, #24]
    GPIO_InitStruct.Pull = GPIO_NOPULL;
 8000d4a:	2300      	movs	r3, #0
 8000d4c:	61fb      	str	r3, [r7, #28]
    HAL_GPIO_Init(GPIOA, &GPIO_InitStruct);
 8000d4e:	f107 0314 	add.w	r3, r7, #20
 8000d52:	4619      	mov	r1, r3
 8000d54:	4805      	ldr	r0, [pc, #20]	; (8000d6c <HAL_DAC_MspInit+0x84>)
 8000d56:	f001 f855 	bl	8001e04 <HAL_GPIO_Init>
  /* USER CODE BEGIN DAC_MspInit 1 */

  /* USER CODE END DAC_MspInit 1 */
  }

}
 8000d5a:	bf00      	nop
 8000d5c:	3728      	adds	r7, #40	; 0x28
 8000d5e:	46bd      	mov	sp, r7
 8000d60:	bd80      	pop	{r7, pc}
 8000d62:	bf00      	nop
 8000d64:	40007400 	.word	0x40007400
 8000d68:	40023800 	.word	0x40023800
 8000d6c:	40020000 	.word	0x40020000

08000d70 <HAL_I2C_MspInit>:
* This function configures the hardware resources used in this example
* @param hi2c: I2C handle pointer
* @retval None
*/
void HAL_I2C_MspInit(I2C_HandleTypeDef* hi2c)
{
 8000d70:	b580      	push	{r7, lr}
 8000d72:	b08a      	sub	sp, #40	; 0x28
 8000d74:	af00      	add	r7, sp, #0
 8000d76:	6078      	str	r0, [r7, #4]
  GPIO_InitTypeDef GPIO_InitStruct = {0};
 8000d78:	f107 0314 	add.w	r3, r7, #20
 8000d7c:	2200      	movs	r2, #0
 8000d7e:	601a      	str	r2, [r3, #0]
 8000d80:	605a      	str	r2, [r3, #4]
 8000d82:	609a      	str	r2, [r3, #8]
 8000d84:	60da      	str	r2, [r3, #12]
 8000d86:	611a      	str	r2, [r3, #16]
  if(hi2c->Instance==I2C1)
 8000d88:	687b      	ldr	r3, [r7, #4]
 8000d8a:	681b      	ldr	r3, [r3, #0]
 8000d8c:	4a19      	ldr	r2, [pc, #100]	; (8000df4 <HAL_I2C_MspInit+0x84>)
 8000d8e:	4293      	cmp	r3, r2
 8000d90:	d12c      	bne.n	8000dec <HAL_I2C_MspInit+0x7c>
  {
  /* USER CODE BEGIN I2C1_MspInit 0 */

  /* USER CODE END I2C1_MspInit 0 */

    __HAL_RCC_GPIOB_CLK_ENABLE();
 8000d92:	2300      	movs	r3, #0
 8000d94:	613b      	str	r3, [r7, #16]
 8000d96:	4b18      	ldr	r3, [pc, #96]	; (8000df8 <HAL_I2C_MspInit+0x88>)
 8000d98:	6b1b      	ldr	r3, [r3, #48]	; 0x30
 8000d9a:	4a17      	ldr	r2, [pc, #92]	; (8000df8 <HAL_I2C_MspInit+0x88>)
 8000d9c:	f043 0302 	orr.w	r3, r3, #2
 8000da0:	6313      	str	r3, [r2, #48]	; 0x30
 8000da2:	4b15      	ldr	r3, [pc, #84]	; (8000df8 <HAL_I2C_MspInit+0x88>)
 8000da4:	6b1b      	ldr	r3, [r3, #48]	; 0x30
 8000da6:	f003 0302 	and.w	r3, r3, #2
 8000daa:	613b      	str	r3, [r7, #16]
 8000dac:	693b      	ldr	r3, [r7, #16]
    /**I2C1 GPIO Configuration
    PB6     ------> I2C1_SCL
    PB9     ------> I2C1_SDA
    */
    GPIO_InitStruct.Pin = Audio_SCL_Pin|Audio_SDA_Pin;
 8000dae:	f44f 7310 	mov.w	r3, #576	; 0x240
 8000db2:	617b      	str	r3, [r7, #20]
    GPIO_InitStruct.Mode = GPIO_MODE_AF_OD;
 8000db4:	2312      	movs	r3, #18
 8000db6:	61bb      	str	r3, [r7, #24]
    GPIO_InitStruct.Pull = GPIO_PULLUP;
 8000db8:	2301      	movs	r3, #1
 8000dba:	61fb      	str	r3, [r7, #28]
    GPIO_InitStruct.Speed = GPIO_SPEED_FREQ_LOW;
 8000dbc:	2300      	movs	r3, #0
 8000dbe:	623b      	str	r3, [r7, #32]
    GPIO_InitStruct.Alternate = GPIO_AF4_I2C1;
 8000dc0:	2304      	movs	r3, #4
 8000dc2:	627b      	str	r3, [r7, #36]	; 0x24
    HAL_GPIO_Init(GPIOB, &GPIO_InitStruct);
 8000dc4:	f107 0314 	add.w	r3, r7, #20
 8000dc8:	4619      	mov	r1, r3
 8000dca:	480c      	ldr	r0, [pc, #48]	; (8000dfc <HAL_I2C_MspInit+0x8c>)
 8000dcc:	f001 f81a 	bl	8001e04 <HAL_GPIO_Init>

    /* Peripheral clock enable */
    __HAL_RCC_I2C1_CLK_ENABLE();
 8000dd0:	2300      	movs	r3, #0
 8000dd2:	60fb      	str	r3, [r7, #12]
 8000dd4:	4b08      	ldr	r3, [pc, #32]	; (8000df8 <HAL_I2C_MspInit+0x88>)
 8000dd6:	6c1b      	ldr	r3, [r3, #64]	; 0x40
 8000dd8:	4a07      	ldr	r2, [pc, #28]	; (8000df8 <HAL_I2C_MspInit+0x88>)
 8000dda:	f443 1300 	orr.w	r3, r3, #2097152	; 0x200000
 8000dde:	6413      	str	r3, [r2, #64]	; 0x40
 8000de0:	4b05      	ldr	r3, [pc, #20]	; (8000df8 <HAL_I2C_MspInit+0x88>)
 8000de2:	6c1b      	ldr	r3, [r3, #64]	; 0x40
 8000de4:	f403 1300 	and.w	r3, r3, #2097152	; 0x200000
 8000de8:	60fb      	str	r3, [r7, #12]
 8000dea:	68fb      	ldr	r3, [r7, #12]
  /* USER CODE BEGIN I2C1_MspInit 1 */

  /* USER CODE END I2C1_MspInit 1 */
  }

}
 8000dec:	bf00      	nop
 8000dee:	3728      	adds	r7, #40	; 0x28
 8000df0:	46bd      	mov	sp, r7
 8000df2:	bd80      	pop	{r7, pc}
 8000df4:	40005400 	.word	0x40005400
 8000df8:	40023800 	.word	0x40023800
 8000dfc:	40020400 	.word	0x40020400

08000e00 <HAL_TIM_Base_MspInit>:
* This function configures the hardware resources used in this example
* @param htim_base: TIM_Base handle pointer
* @retval None
*/
void HAL_TIM_Base_MspInit(TIM_HandleTypeDef* htim_base)
{
 8000e00:	b580      	push	{r7, lr}
 8000e02:	b084      	sub	sp, #16
 8000e04:	af00      	add	r7, sp, #0
 8000e06:	6078      	str	r0, [r7, #4]
  if(htim_base->Instance==TIM2)
 8000e08:	687b      	ldr	r3, [r7, #4]
 8000e0a:	681b      	ldr	r3, [r3, #0]
 8000e0c:	f1b3 4f80 	cmp.w	r3, #1073741824	; 0x40000000
 8000e10:	d116      	bne.n	8000e40 <HAL_TIM_Base_MspInit+0x40>
  {
  /* USER CODE BEGIN TIM2_MspInit 0 */

  /* USER CODE END TIM2_MspInit 0 */
    /* Peripheral clock enable */
    __HAL_RCC_TIM2_CLK_ENABLE();
 8000e12:	2300      	movs	r3, #0
 8000e14:	60fb      	str	r3, [r7, #12]
 8000e16:	4b16      	ldr	r3, [pc, #88]	; (8000e70 <HAL_TIM_Base_MspInit+0x70>)
 8000e18:	6c1b      	ldr	r3, [r3, #64]	; 0x40
 8000e1a:	4a15      	ldr	r2, [pc, #84]	; (8000e70 <HAL_TIM_Base_MspInit+0x70>)
 8000e1c:	f043 0301 	orr.w	r3, r3, #1
 8000e20:	6413      	str	r3, [r2, #64]	; 0x40
 8000e22:	4b13      	ldr	r3, [pc, #76]	; (8000e70 <HAL_TIM_Base_MspInit+0x70>)
 8000e24:	6c1b      	ldr	r3, [r3, #64]	; 0x40
 8000e26:	f003 0301 	and.w	r3, r3, #1
 8000e2a:	60fb      	str	r3, [r7, #12]
 8000e2c:	68fb      	ldr	r3, [r7, #12]
    /* TIM2 interrupt Init */
    HAL_NVIC_SetPriority(TIM2_IRQn, 0, 0);
 8000e2e:	2200      	movs	r2, #0
 8000e30:	2100      	movs	r1, #0
 8000e32:	201c      	movs	r0, #28
 8000e34:	f000 fec7 	bl	8001bc6 <HAL_NVIC_SetPriority>
    HAL_NVIC_EnableIRQ(TIM2_IRQn);
 8000e38:	201c      	movs	r0, #28
 8000e3a:	f000 fee0 	bl	8001bfe <HAL_NVIC_EnableIRQ>
  /* USER CODE BEGIN TIM3_MspInit 1 */

  /* USER CODE END TIM3_MspInit 1 */
  }

}
 8000e3e:	e012      	b.n	8000e66 <HAL_TIM_Base_MspInit+0x66>
  else if(htim_base->Instance==TIM3)
 8000e40:	687b      	ldr	r3, [r7, #4]
 8000e42:	681b      	ldr	r3, [r3, #0]
 8000e44:	4a0b      	ldr	r2, [pc, #44]	; (8000e74 <HAL_TIM_Base_MspInit+0x74>)
 8000e46:	4293      	cmp	r3, r2
 8000e48:	d10d      	bne.n	8000e66 <HAL_TIM_Base_MspInit+0x66>
    __HAL_RCC_TIM3_CLK_ENABLE();
 8000e4a:	2300      	movs	r3, #0
 8000e4c:	60bb      	str	r3, [r7, #8]
 8000e4e:	4b08      	ldr	r3, [pc, #32]	; (8000e70 <HAL_TIM_Base_MspInit+0x70>)
 8000e50:	6c1b      	ldr	r3, [r3, #64]	; 0x40
 8000e52:	4a07      	ldr	r2, [pc, #28]	; (8000e70 <HAL_TIM_Base_MspInit+0x70>)
 8000e54:	f043 0302 	orr.w	r3, r3, #2
 8000e58:	6413      	str	r3, [r2, #64]	; 0x40
 8000e5a:	4b05      	ldr	r3, [pc, #20]	; (8000e70 <HAL_TIM_Base_MspInit+0x70>)
 8000e5c:	6c1b      	ldr	r3, [r3, #64]	; 0x40
 8000e5e:	f003 0302 	and.w	r3, r3, #2
 8000e62:	60bb      	str	r3, [r7, #8]
 8000e64:	68bb      	ldr	r3, [r7, #8]
}
 8000e66:	bf00      	nop
 8000e68:	3710      	adds	r7, #16
 8000e6a:	46bd      	mov	sp, r7
 8000e6c:	bd80      	pop	{r7, pc}
 8000e6e:	bf00      	nop
 8000e70:	40023800 	.word	0x40023800
 8000e74:	40000400 	.word	0x40000400

08000e78 <NMI_Handler>:
/******************************************************************************/
/**
  * @brief This function handles Non maskable interrupt.
  */
void NMI_Handler(void)
{
 8000e78:	b480      	push	{r7}
 8000e7a:	af00      	add	r7, sp, #0
  /* USER CODE BEGIN NonMaskableInt_IRQn 0 */

  /* USER CODE END NonMaskableInt_IRQn 0 */
  /* USER CODE BEGIN NonMaskableInt_IRQn 1 */
  while (1)
 8000e7c:	e7fe      	b.n	8000e7c <NMI_Handler+0x4>

08000e7e <HardFault_Handler>:

/**
  * @brief This function handles Hard fault interrupt.
  */
void HardFault_Handler(void)
{
 8000e7e:	b480      	push	{r7}
 8000e80:	af00      	add	r7, sp, #0
  /* USER CODE BEGIN HardFault_IRQn 0 */

  /* USER CODE END HardFault_IRQn 0 */
  while (1)
 8000e82:	e7fe      	b.n	8000e82 <HardFault_Handler+0x4>

08000e84 <MemManage_Handler>:

/**
  * @brief This function handles Memory management fault.
  */
void MemManage_Handler(void)
{
 8000e84:	b480      	push	{r7}
 8000e86:	af00      	add	r7, sp, #0
  /* USER CODE BEGIN MemoryManagement_IRQn 0 */

  /* USER CODE END MemoryManagement_IRQn 0 */
  while (1)
 8000e88:	e7fe      	b.n	8000e88 <MemManage_Handler+0x4>

08000e8a <BusFault_Handler>:

/**
  * @brief This function handles Pre-fetch fault, memory access fault.
  */
void BusFault_Handler(void)
{
 8000e8a:	b480      	push	{r7}
 8000e8c:	af00      	add	r7, sp, #0
  /* USER CODE BEGIN BusFault_IRQn 0 */

  /* USER CODE END BusFault_IRQn 0 */
  while (1)
 8000e8e:	e7fe      	b.n	8000e8e <BusFault_Handler+0x4>

08000e90 <UsageFault_Handler>:

/**
  * @brief This function handles Undefined instruction or illegal state.
  */
void UsageFault_Handler(void)
{
 8000e90:	b480      	push	{r7}
 8000e92:	af00      	add	r7, sp, #0
  /* USER CODE BEGIN UsageFault_IRQn 0 */

  /* USER CODE END UsageFault_IRQn 0 */
  while (1)
 8000e94:	e7fe      	b.n	8000e94 <UsageFault_Handler+0x4>

08000e96 <SVC_Handler>:

/**
  * @brief This function handles System service call via SWI instruction.
  */
void SVC_Handler(void)
{
 8000e96:	b480      	push	{r7}
 8000e98:	af00      	add	r7, sp, #0

  /* USER CODE END SVCall_IRQn 0 */
  /* USER CODE BEGIN SVCall_IRQn 1 */

  /* USER CODE END SVCall_IRQn 1 */
}
 8000e9a:	bf00      	nop
 8000e9c:	46bd      	mov	sp, r7
 8000e9e:	f85d 7b04 	ldr.w	r7, [sp], #4
 8000ea2:	4770      	bx	lr

08000ea4 <DebugMon_Handler>:

/**
  * @brief This function handles Debug monitor.
  */
void DebugMon_Handler(void)
{
 8000ea4:	b480      	push	{r7}
 8000ea6:	af00      	add	r7, sp, #0

  /* USER CODE END DebugMonitor_IRQn 0 */
  /* USER CODE BEGIN DebugMonitor_IRQn 1 */

  /* USER CODE END DebugMonitor_IRQn 1 */
}
 8000ea8:	bf00      	nop
 8000eaa:	46bd      	mov	sp, r7
 8000eac:	f85d 7b04 	ldr.w	r7, [sp], #4
 8000eb0:	4770      	bx	lr

08000eb2 <PendSV_Handler>:

/**
  * @brief This function handles Pendable request for system service.
  */
void PendSV_Handler(void)
{
 8000eb2:	b480      	push	{r7}
 8000eb4:	af00      	add	r7, sp, #0

  /* USER CODE END PendSV_IRQn 0 */
  /* USER CODE BEGIN PendSV_IRQn 1 */

  /* USER CODE END PendSV_IRQn 1 */
}
 8000eb6:	bf00      	nop
 8000eb8:	46bd      	mov	sp, r7
 8000eba:	f85d 7b04 	ldr.w	r7, [sp], #4
 8000ebe:	4770      	bx	lr

08000ec0 <SysTick_Handler>:

/**
  * @brief This function handles System tick timer.
  */
void SysTick_Handler(void)
{
 8000ec0:	b580      	push	{r7, lr}
 8000ec2:	af00      	add	r7, sp, #0
  /* USER CODE BEGIN SysTick_IRQn 0 */

  /* USER CODE END SysTick_IRQn 0 */
  HAL_IncTick();
 8000ec4:	f000 f8e4 	bl	8001090 <HAL_IncTick>
  /* USER CODE BEGIN SysTick_IRQn 1 */

  /* USER CODE END SysTick_IRQn 1 */
}
 8000ec8:	bf00      	nop
 8000eca:	bd80      	pop	{r7, pc}

08000ecc <ADC_IRQHandler>:

/**
  * @brief This function handles ADC1, ADC2 and ADC3 global interrupts.
  */
void ADC_IRQHandler(void)
{
 8000ecc:	b580      	push	{r7, lr}
 8000ece:	af00      	add	r7, sp, #0
  /* USER CODE BEGIN ADC_IRQn 0 */

  /* USER CODE END ADC_IRQn 0 */
  HAL_ADC_IRQHandler(&hadc1);
 8000ed0:	4802      	ldr	r0, [pc, #8]	; (8000edc <ADC_IRQHandler+0x10>)
 8000ed2:	f000 fa43 	bl	800135c <HAL_ADC_IRQHandler>
  /* USER CODE BEGIN ADC_IRQn 1 */

  /* USER CODE END ADC_IRQn 1 */
}
 8000ed6:	bf00      	nop
 8000ed8:	bd80      	pop	{r7, pc}
 8000eda:	bf00      	nop
 8000edc:	200000b0 	.word	0x200000b0

08000ee0 <TIM2_IRQHandler>:

/**
  * @brief This function handles TIM2 global interrupt.
  */
void TIM2_IRQHandler(void)
{
 8000ee0:	b580      	push	{r7, lr}
 8000ee2:	af00      	add	r7, sp, #0
  /* USER CODE BEGIN TIM2_IRQn 0 */

  /* USER CODE END TIM2_IRQn 0 */
  HAL_TIM_IRQHandler(&htim2);
 8000ee4:	4802      	ldr	r0, [pc, #8]	; (8000ef0 <TIM2_IRQHandler+0x10>)
 8000ee6:	f003 fc3d 	bl	8004764 <HAL_TIM_IRQHandler>
  /* USER CODE BEGIN TIM2_IRQn 1 */

  /* USER CODE END TIM2_IRQn 1 */
}
 8000eea:	bf00      	nop
 8000eec:	bd80      	pop	{r7, pc}
 8000eee:	bf00      	nop
 8000ef0:	20000160 	.word	0x20000160

08000ef4 <OTG_FS_IRQHandler>:

/**
  * @brief This function handles USB On The Go FS global interrupt.
  */
void OTG_FS_IRQHandler(void)
{
 8000ef4:	b580      	push	{r7, lr}
 8000ef6:	af00      	add	r7, sp, #0
  /* USER CODE BEGIN OTG_FS_IRQn 0 */

  /* USER CODE END OTG_FS_IRQn 0 */
  HAL_HCD_IRQHandler(&hhcd_USB_OTG_FS);
 8000ef8:	4802      	ldr	r0, [pc, #8]	; (8000f04 <OTG_FS_IRQHandler+0x10>)
 8000efa:	f001 fba3 	bl	8002644 <HAL_HCD_IRQHandler>
  /* USER CODE BEGIN OTG_FS_IRQn 1 */

  /* USER CODE END OTG_FS_IRQn 1 */
}
 8000efe:	bf00      	nop
 8000f00:	bd80      	pop	{r7, pc}
 8000f02:	bf00      	nop
 8000f04:	200005f8 	.word	0x200005f8

08000f08 <_sbrk>:
 *
 * @param incr Memory size
 * @return Pointer to allocated memory
 */
void *_sbrk(ptrdiff_t incr)
{
 8000f08:	b580      	push	{r7, lr}
 8000f0a:	b086      	sub	sp, #24
 8000f0c:	af00      	add	r7, sp, #0
 8000f0e:	6078      	str	r0, [r7, #4]
  extern uint8_t _end; /* Symbol defined in the linker script */
  extern uint8_t _estack; /* Symbol defined in the linker script */
  extern uint32_t _Min_Stack_Size; /* Symbol defined in the linker script */
  const uint32_t stack_limit = (uint32_t)&_estack - (uint32_t)&_Min_Stack_Size;
 8000f10:	4a14      	ldr	r2, [pc, #80]	; (8000f64 <_sbrk+0x5c>)
 8000f12:	4b15      	ldr	r3, [pc, #84]	; (8000f68 <_sbrk+0x60>)
 8000f14:	1ad3      	subs	r3, r2, r3
 8000f16:	617b      	str	r3, [r7, #20]
  const uint8_t *max_heap = (uint8_t *)stack_limit;
 8000f18:	697b      	ldr	r3, [r7, #20]
 8000f1a:	613b      	str	r3, [r7, #16]
  uint8_t *prev_heap_end;

  /* Initialize heap end at first call */
  if (NULL == __sbrk_heap_end)
 8000f1c:	4b13      	ldr	r3, [pc, #76]	; (8000f6c <_sbrk+0x64>)
 8000f1e:	681b      	ldr	r3, [r3, #0]
 8000f20:	2b00      	cmp	r3, #0
 8000f22:	d102      	bne.n	8000f2a <_sbrk+0x22>
  {
    __sbrk_heap_end = &_end;
 8000f24:	4b11      	ldr	r3, [pc, #68]	; (8000f6c <_sbrk+0x64>)
 8000f26:	4a12      	ldr	r2, [pc, #72]	; (8000f70 <_sbrk+0x68>)
 8000f28:	601a      	str	r2, [r3, #0]
  }

  /* Protect heap from growing into the reserved MSP stack */
  if (__sbrk_heap_end + incr > max_heap)
 8000f2a:	4b10      	ldr	r3, [pc, #64]	; (8000f6c <_sbrk+0x64>)
 8000f2c:	681a      	ldr	r2, [r3, #0]
 8000f2e:	687b      	ldr	r3, [r7, #4]
 8000f30:	4413      	add	r3, r2
 8000f32:	693a      	ldr	r2, [r7, #16]
 8000f34:	429a      	cmp	r2, r3
 8000f36:	d207      	bcs.n	8000f48 <_sbrk+0x40>
  {
    errno = ENOMEM;
 8000f38:	f007 fab2 	bl	80084a0 <__errno>
 8000f3c:	4603      	mov	r3, r0
 8000f3e:	220c      	movs	r2, #12
 8000f40:	601a      	str	r2, [r3, #0]
    return (void *)-1;
 8000f42:	f04f 33ff 	mov.w	r3, #4294967295
 8000f46:	e009      	b.n	8000f5c <_sbrk+0x54>
  }

  prev_heap_end = __sbrk_heap_end;
 8000f48:	4b08      	ldr	r3, [pc, #32]	; (8000f6c <_sbrk+0x64>)
 8000f4a:	681b      	ldr	r3, [r3, #0]
 8000f4c:	60fb      	str	r3, [r7, #12]
  __sbrk_heap_end += incr;
 8000f4e:	4b07      	ldr	r3, [pc, #28]	; (8000f6c <_sbrk+0x64>)
 8000f50:	681a      	ldr	r2, [r3, #0]
 8000f52:	687b      	ldr	r3, [r7, #4]
 8000f54:	4413      	add	r3, r2
 8000f56:	4a05      	ldr	r2, [pc, #20]	; (8000f6c <_sbrk+0x64>)
 8000f58:	6013      	str	r3, [r2, #0]

  return (void *)prev_heap_end;
 8000f5a:	68fb      	ldr	r3, [r7, #12]
}
 8000f5c:	4618      	mov	r0, r3
 8000f5e:	3718      	adds	r7, #24
 8000f60:	46bd      	mov	sp, r7
 8000f62:	bd80      	pop	{r7, pc}
 8000f64:	20020000 	.word	0x20020000
 8000f68:	00000400 	.word	0x00000400
 8000f6c:	20000214 	.word	0x20000214
 8000f70:	20000910 	.word	0x20000910

08000f74 <SystemInit>:
  *         configuration.
  * @param  None
  * @retval None
  */
void SystemInit(void)
{
 8000f74:	b480      	push	{r7}
 8000f76:	af00      	add	r7, sp, #0
  /* FPU settings ------------------------------------------------------------*/
  #if (__FPU_PRESENT == 1) && (__FPU_USED == 1)
    SCB->CPACR |= ((3UL << 10*2)|(3UL << 11*2));  /* set CP10 and CP11 Full Access */
 8000f78:	4b06      	ldr	r3, [pc, #24]	; (8000f94 <SystemInit+0x20>)
 8000f7a:	f8d3 3088 	ldr.w	r3, [r3, #136]	; 0x88
 8000f7e:	4a05      	ldr	r2, [pc, #20]	; (8000f94 <SystemInit+0x20>)
 8000f80:	f443 0370 	orr.w	r3, r3, #15728640	; 0xf00000
 8000f84:	f8c2 3088 	str.w	r3, [r2, #136]	; 0x88

  /* Configure the Vector Table location -------------------------------------*/
#if defined(USER_VECT_TAB_ADDRESS)
  SCB->VTOR = VECT_TAB_BASE_ADDRESS | VECT_TAB_OFFSET; /* Vector Table Relocation in Internal SRAM */
#endif /* USER_VECT_TAB_ADDRESS */
}
 8000f88:	bf00      	nop
 8000f8a:	46bd      	mov	sp, r7
 8000f8c:	f85d 7b04 	ldr.w	r7, [sp], #4
 8000f90:	4770      	bx	lr
 8000f92:	bf00      	nop
 8000f94:	e000ed00 	.word	0xe000ed00

08000f98 <Reset_Handler>:

    .section  .text.Reset_Handler
  .weak  Reset_Handler
  .type  Reset_Handler, %function
Reset_Handler:  
  ldr   sp, =_estack     /* set stack pointer */
 8000f98:	f8df d034 	ldr.w	sp, [pc, #52]	; 8000fd0 <LoopFillZerobss+0x12>

/* Copy the data segment initializers from flash to SRAM */  
  ldr r0, =_sdata
 8000f9c:	480d      	ldr	r0, [pc, #52]	; (8000fd4 <LoopFillZerobss+0x16>)
  ldr r1, =_edata
 8000f9e:	490e      	ldr	r1, [pc, #56]	; (8000fd8 <LoopFillZerobss+0x1a>)
  ldr r2, =_sidata
 8000fa0:	4a0e      	ldr	r2, [pc, #56]	; (8000fdc <LoopFillZerobss+0x1e>)
  movs r3, #0
 8000fa2:	2300      	movs	r3, #0
  b LoopCopyDataInit
 8000fa4:	e002      	b.n	8000fac <LoopCopyDataInit>

08000fa6 <CopyDataInit>:

CopyDataInit:
  ldr r4, [r2, r3]
 8000fa6:	58d4      	ldr	r4, [r2, r3]
  str r4, [r0, r3]
 8000fa8:	50c4      	str	r4, [r0, r3]
  adds r3, r3, #4
 8000faa:	3304      	adds	r3, #4

08000fac <LoopCopyDataInit>:

LoopCopyDataInit:
  adds r4, r0, r3
 8000fac:	18c4      	adds	r4, r0, r3
  cmp r4, r1
 8000fae:	428c      	cmp	r4, r1
  bcc CopyDataInit
 8000fb0:	d3f9      	bcc.n	8000fa6 <CopyDataInit>
  
/* Zero fill the bss segment. */
  ldr r2, =_sbss
 8000fb2:	4a0b      	ldr	r2, [pc, #44]	; (8000fe0 <LoopFillZerobss+0x22>)
  ldr r4, =_ebss
 8000fb4:	4c0b      	ldr	r4, [pc, #44]	; (8000fe4 <LoopFillZerobss+0x26>)
  movs r3, #0
 8000fb6:	2300      	movs	r3, #0
  b LoopFillZerobss
 8000fb8:	e001      	b.n	8000fbe <LoopFillZerobss>

08000fba <FillZerobss>:

FillZerobss:
  str  r3, [r2]
 8000fba:	6013      	str	r3, [r2, #0]
  adds r2, r2, #4
 8000fbc:	3204      	adds	r2, #4

08000fbe <LoopFillZerobss>:

LoopFillZerobss:
  cmp r2, r4
 8000fbe:	42a2      	cmp	r2, r4
  bcc FillZerobss
 8000fc0:	d3fb      	bcc.n	8000fba <FillZerobss>

/* Call the clock system initialization function.*/
  bl  SystemInit   
 8000fc2:	f7ff ffd7 	bl	8000f74 <SystemInit>
/* Call static constructors */
    bl __libc_init_array
 8000fc6:	f007 fa71 	bl	80084ac <__libc_init_array>
/* Call the application's entry point.*/
  bl  main
 8000fca:	f7ff fb3b 	bl	8000644 <main>
  bx  lr    
 8000fce:	4770      	bx	lr
  ldr   sp, =_estack     /* set stack pointer */
 8000fd0:	20020000 	.word	0x20020000
  ldr r0, =_sdata
 8000fd4:	20000000 	.word	0x20000000
  ldr r1, =_edata
 8000fd8:	20000094 	.word	0x20000094
  ldr r2, =_sidata
 8000fdc:	08008764 	.word	0x08008764
  ldr r2, =_sbss
 8000fe0:	20000094 	.word	0x20000094
  ldr r4, =_ebss
 8000fe4:	2000090c 	.word	0x2000090c

08000fe8 <CAN1_RX0_IRQHandler>:
 * @retval None       
*/
    .section  .text.Default_Handler,"ax",%progbits
Default_Handler:
Infinite_Loop:
  b  Infinite_Loop
 8000fe8:	e7fe      	b.n	8000fe8 <CAN1_RX0_IRQHandler>
	...

08000fec <HAL_Init>:
  *         need to ensure that the SysTick time base is always set to 1 millisecond
  *         to have correct HAL operation.
  * @retval HAL status
  */
HAL_StatusTypeDef HAL_Init(void)
{
 8000fec:	b580      	push	{r7, lr}
 8000fee:	af00      	add	r7, sp, #0
  /* Configure Flash prefetch, Instruction cache, Data cache */ 
#if (INSTRUCTION_CACHE_ENABLE != 0U)
  __HAL_FLASH_INSTRUCTION_CACHE_ENABLE();
 8000ff0:	4b0e      	ldr	r3, [pc, #56]	; (800102c <HAL_Init+0x40>)
 8000ff2:	681b      	ldr	r3, [r3, #0]
 8000ff4:	4a0d      	ldr	r2, [pc, #52]	; (800102c <HAL_Init+0x40>)
 8000ff6:	f443 7300 	orr.w	r3, r3, #512	; 0x200
 8000ffa:	6013      	str	r3, [r2, #0]
#endif /* INSTRUCTION_CACHE_ENABLE */

#if (DATA_CACHE_ENABLE != 0U)
  __HAL_FLASH_DATA_CACHE_ENABLE();
 8000ffc:	4b0b      	ldr	r3, [pc, #44]	; (800102c <HAL_Init+0x40>)
 8000ffe:	681b      	ldr	r3, [r3, #0]
 8001000:	4a0a      	ldr	r2, [pc, #40]	; (800102c <HAL_Init+0x40>)
 8001002:	f443 6380 	orr.w	r3, r3, #1024	; 0x400
 8001006:	6013      	str	r3, [r2, #0]
#endif /* DATA_CACHE_ENABLE */

#if (PREFETCH_ENABLE != 0U)
  __HAL_FLASH_PREFETCH_BUFFER_ENABLE();
 8001008:	4b08      	ldr	r3, [pc, #32]	; (800102c <HAL_Init+0x40>)
 800100a:	681b      	ldr	r3, [r3, #0]
 800100c:	4a07      	ldr	r2, [pc, #28]	; (800102c <HAL_Init+0x40>)
 800100e:	f443 7380 	orr.w	r3, r3, #256	; 0x100
 8001012:	6013      	str	r3, [r2, #0]
#endif /* PREFETCH_ENABLE */

  /* Set Interrupt Group Priority */
  HAL_NVIC_SetPriorityGrouping(NVIC_PRIORITYGROUP_4);
 8001014:	2003      	movs	r0, #3
 8001016:	f000 fdcb 	bl	8001bb0 <HAL_NVIC_SetPriorityGrouping>

  /* Use systick as time base source and configure 1ms tick (default clock after Reset is HSI) */
  HAL_InitTick(TICK_INT_PRIORITY);
 800101a:	2000      	movs	r0, #0
 800101c:	f000 f808 	bl	8001030 <HAL_InitTick>

  /* Init the low level hardware */
  HAL_MspInit();
 8001020:	f7ff fdee 	bl	8000c00 <HAL_MspInit>

  /* Return function status */
  return HAL_OK;
 8001024:	2300      	movs	r3, #0
}
 8001026:	4618      	mov	r0, r3
 8001028:	bd80      	pop	{r7, pc}
 800102a:	bf00      	nop
 800102c:	40023c00 	.word	0x40023c00

08001030 <HAL_InitTick>:
  *       implementation  in user file.
  * @param TickPriority Tick interrupt priority.
  * @retval HAL status
  */
__weak HAL_StatusTypeDef HAL_InitTick(uint32_t TickPriority)
{
 8001030:	b580      	push	{r7, lr}
 8001032:	b082      	sub	sp, #8
 8001034:	af00      	add	r7, sp, #0
 8001036:	6078      	str	r0, [r7, #4]
  /* Configure the SysTick to have interrupt in 1ms time basis*/
  if (HAL_SYSTICK_Config(SystemCoreClock / (1000U / uwTickFreq)) > 0U)
 8001038:	4b12      	ldr	r3, [pc, #72]	; (8001084 <HAL_InitTick+0x54>)
 800103a:	681a      	ldr	r2, [r3, #0]
 800103c:	4b12      	ldr	r3, [pc, #72]	; (8001088 <HAL_InitTick+0x58>)
 800103e:	781b      	ldrb	r3, [r3, #0]
 8001040:	4619      	mov	r1, r3
 8001042:	f44f 737a 	mov.w	r3, #1000	; 0x3e8
 8001046:	fbb3 f3f1 	udiv	r3, r3, r1
 800104a:	fbb2 f3f3 	udiv	r3, r2, r3
 800104e:	4618      	mov	r0, r3
 8001050:	f000 fde3 	bl	8001c1a <HAL_SYSTICK_Config>
 8001054:	4603      	mov	r3, r0
 8001056:	2b00      	cmp	r3, #0
 8001058:	d001      	beq.n	800105e <HAL_InitTick+0x2e>
  {
    return HAL_ERROR;
 800105a:	2301      	movs	r3, #1
 800105c:	e00e      	b.n	800107c <HAL_InitTick+0x4c>
  }

  /* Configure the SysTick IRQ priority */
  if (TickPriority < (1UL << __NVIC_PRIO_BITS))
 800105e:	687b      	ldr	r3, [r7, #4]
 8001060:	2b0f      	cmp	r3, #15
 8001062:	d80a      	bhi.n	800107a <HAL_InitTick+0x4a>
  {
    HAL_NVIC_SetPriority(SysTick_IRQn, TickPriority, 0U);
 8001064:	2200      	movs	r2, #0
 8001066:	6879      	ldr	r1, [r7, #4]
 8001068:	f04f 30ff 	mov.w	r0, #4294967295
 800106c:	f000 fdab 	bl	8001bc6 <HAL_NVIC_SetPriority>
    uwTickPrio = TickPriority;
 8001070:	4a06      	ldr	r2, [pc, #24]	; (800108c <HAL_InitTick+0x5c>)
 8001072:	687b      	ldr	r3, [r7, #4]
 8001074:	6013      	str	r3, [r2, #0]
  {
    return HAL_ERROR;
  }

  /* Return function status */
  return HAL_OK;
 8001076:	2300      	movs	r3, #0
 8001078:	e000      	b.n	800107c <HAL_InitTick+0x4c>
    return HAL_ERROR;
 800107a:	2301      	movs	r3, #1
}
 800107c:	4618      	mov	r0, r3
 800107e:	3708      	adds	r7, #8
 8001080:	46bd      	mov	sp, r7
 8001082:	bd80      	pop	{r7, pc}
 8001084:	20000004 	.word	0x20000004
 8001088:	2000000c 	.word	0x2000000c
 800108c:	20000008 	.word	0x20000008

08001090 <HAL_IncTick>:
 * @note This function is declared as __weak to be overwritten in case of other 
  *      implementations in user file.
  * @retval None
  */
__weak void HAL_IncTick(void)
{
 8001090:	b480      	push	{r7}
 8001092:	af00      	add	r7, sp, #0
  uwTick += uwTickFreq;
 8001094:	4b06      	ldr	r3, [pc, #24]	; (80010b0 <HAL_IncTick+0x20>)
 8001096:	781b      	ldrb	r3, [r3, #0]
 8001098:	461a      	mov	r2, r3
 800109a:	4b06      	ldr	r3, [pc, #24]	; (80010b4 <HAL_IncTick+0x24>)
 800109c:	681b      	ldr	r3, [r3, #0]
 800109e:	4413      	add	r3, r2
 80010a0:	4a04      	ldr	r2, [pc, #16]	; (80010b4 <HAL_IncTick+0x24>)
 80010a2:	6013      	str	r3, [r2, #0]
}
 80010a4:	bf00      	nop
 80010a6:	46bd      	mov	sp, r7
 80010a8:	f85d 7b04 	ldr.w	r7, [sp], #4
 80010ac:	4770      	bx	lr
 80010ae:	bf00      	nop
 80010b0:	2000000c 	.word	0x2000000c
 80010b4:	20000218 	.word	0x20000218

080010b8 <HAL_GetTick>:
  * @note This function is declared as __weak to be overwritten in case of other 
  *       implementations in user file.
  * @retval tick value
  */
__weak uint32_t HAL_GetTick(void)
{
 80010b8:	b480      	push	{r7}
 80010ba:	af00      	add	r7, sp, #0
  return uwTick;
 80010bc:	4b03      	ldr	r3, [pc, #12]	; (80010cc <HAL_GetTick+0x14>)
 80010be:	681b      	ldr	r3, [r3, #0]
}
 80010c0:	4618      	mov	r0, r3
 80010c2:	46bd      	mov	sp, r7
 80010c4:	f85d 7b04 	ldr.w	r7, [sp], #4
 80010c8:	4770      	bx	lr
 80010ca:	bf00      	nop
 80010cc:	20000218 	.word	0x20000218

080010d0 <HAL_Delay>:
  *       implementations in user file.
  * @param Delay specifies the delay time length, in milliseconds.
  * @retval None
  */
__weak void HAL_Delay(uint32_t Delay)
{
 80010d0:	b580      	push	{r7, lr}
 80010d2:	b084      	sub	sp, #16
 80010d4:	af00      	add	r7, sp, #0
 80010d6:	6078      	str	r0, [r7, #4]
  uint32_t tickstart = HAL_GetTick();
 80010d8:	f7ff ffee 	bl	80010b8 <HAL_GetTick>
 80010dc:	60b8      	str	r0, [r7, #8]
  uint32_t wait = Delay;
 80010de:	687b      	ldr	r3, [r7, #4]
 80010e0:	60fb      	str	r3, [r7, #12]

  /* Add a freq to guarantee minimum wait */
  if (wait < HAL_MAX_DELAY)
 80010e2:	68fb      	ldr	r3, [r7, #12]
 80010e4:	f1b3 3fff 	cmp.w	r3, #4294967295
 80010e8:	d005      	beq.n	80010f6 <HAL_Delay+0x26>
  {
    wait += (uint32_t)(uwTickFreq);
 80010ea:	4b0a      	ldr	r3, [pc, #40]	; (8001114 <HAL_Delay+0x44>)
 80010ec:	781b      	ldrb	r3, [r3, #0]
 80010ee:	461a      	mov	r2, r3
 80010f0:	68fb      	ldr	r3, [r7, #12]
 80010f2:	4413      	add	r3, r2
 80010f4:	60fb      	str	r3, [r7, #12]
  }

  while((HAL_GetTick() - tickstart) < wait)
 80010f6:	bf00      	nop
 80010f8:	f7ff ffde 	bl	80010b8 <HAL_GetTick>
 80010fc:	4602      	mov	r2, r0
 80010fe:	68bb      	ldr	r3, [r7, #8]
 8001100:	1ad3      	subs	r3, r2, r3
 8001102:	68fa      	ldr	r2, [r7, #12]
 8001104:	429a      	cmp	r2, r3
 8001106:	d8f7      	bhi.n	80010f8 <HAL_Delay+0x28>
  {
  }
}
 8001108:	bf00      	nop
 800110a:	bf00      	nop
 800110c:	3710      	adds	r7, #16
 800110e:	46bd      	mov	sp, r7
 8001110:	bd80      	pop	{r7, pc}
 8001112:	bf00      	nop
 8001114:	2000000c 	.word	0x2000000c

08001118 <HAL_ADC_Init>:
  * @param  hadc pointer to a ADC_HandleTypeDef structure that contains
  *         the configuration information for the specified ADC.  
  * @retval HAL status
  */
HAL_StatusTypeDef HAL_ADC_Init(ADC_HandleTypeDef* hadc)
{
 8001118:	b580      	push	{r7, lr}
 800111a:	b084      	sub	sp, #16
 800111c:	af00      	add	r7, sp, #0
 800111e:	6078      	str	r0, [r7, #4]
  HAL_StatusTypeDef tmp_hal_status = HAL_OK;
 8001120:	2300      	movs	r3, #0
 8001122:	73fb      	strb	r3, [r7, #15]
  
  /* Check ADC handle */
  if(hadc == NULL)
 8001124:	687b      	ldr	r3, [r7, #4]
 8001126:	2b00      	cmp	r3, #0
 8001128:	d101      	bne.n	800112e <HAL_ADC_Init+0x16>
  {
    return HAL_ERROR;
 800112a:	2301      	movs	r3, #1
 800112c:	e033      	b.n	8001196 <HAL_ADC_Init+0x7e>
  if(hadc->Init.ExternalTrigConv != ADC_SOFTWARE_START)
  {
    assert_param(IS_ADC_EXT_TRIG_EDGE(hadc->Init.ExternalTrigConvEdge));
  }
  
  if(hadc->State == HAL_ADC_STATE_RESET)
 800112e:	687b      	ldr	r3, [r7, #4]
 8001130:	6c1b      	ldr	r3, [r3, #64]	; 0x40
 8001132:	2b00      	cmp	r3, #0
 8001134:	d109      	bne.n	800114a <HAL_ADC_Init+0x32>

    /* Init the low level hardware */
    hadc->MspInitCallback(hadc);
#else
    /* Init the low level hardware */
    HAL_ADC_MspInit(hadc);
 8001136:	6878      	ldr	r0, [r7, #4]
 8001138:	f7ff fd8a 	bl	8000c50 <HAL_ADC_MspInit>
#endif /* USE_HAL_ADC_REGISTER_CALLBACKS */

    /* Initialize ADC error code */
    ADC_CLEAR_ERRORCODE(hadc);
 800113c:	687b      	ldr	r3, [r7, #4]
 800113e:	2200      	movs	r2, #0
 8001140:	645a      	str	r2, [r3, #68]	; 0x44
    
    /* Allocate lock resource and initialize it */
    hadc->Lock = HAL_UNLOCKED;
 8001142:	687b      	ldr	r3, [r7, #4]
 8001144:	2200      	movs	r2, #0
 8001146:	f883 203c 	strb.w	r2, [r3, #60]	; 0x3c
  }
  
  /* Configuration of ADC parameters if previous preliminary actions are      */ 
  /* correctly completed.                                                     */
  if (HAL_IS_BIT_CLR(hadc->State, HAL_ADC_STATE_ERROR_INTERNAL))
 800114a:	687b      	ldr	r3, [r7, #4]
 800114c:	6c1b      	ldr	r3, [r3, #64]	; 0x40
 800114e:	f003 0310 	and.w	r3, r3, #16
 8001152:	2b00      	cmp	r3, #0
 8001154:	d118      	bne.n	8001188 <HAL_ADC_Init+0x70>
  {
    /* Set ADC state */
    ADC_STATE_CLR_SET(hadc->State,
 8001156:	687b      	ldr	r3, [r7, #4]
 8001158:	6c1b      	ldr	r3, [r3, #64]	; 0x40
 800115a:	f423 5388 	bic.w	r3, r3, #4352	; 0x1100
 800115e:	f023 0302 	bic.w	r3, r3, #2
 8001162:	f043 0202 	orr.w	r2, r3, #2
 8001166:	687b      	ldr	r3, [r7, #4]
 8001168:	641a      	str	r2, [r3, #64]	; 0x40
                      HAL_ADC_STATE_REG_BUSY | HAL_ADC_STATE_INJ_BUSY,
                      HAL_ADC_STATE_BUSY_INTERNAL);
    
    /* Set ADC parameters */
    ADC_Init(hadc);
 800116a:	6878      	ldr	r0, [r7, #4]
 800116c:	f000 fb4a 	bl	8001804 <ADC_Init>
    
    /* Set ADC error code to none */
    ADC_CLEAR_ERRORCODE(hadc);
 8001170:	687b      	ldr	r3, [r7, #4]
 8001172:	2200      	movs	r2, #0
 8001174:	645a      	str	r2, [r3, #68]	; 0x44
    
    /* Set the ADC state */
    ADC_STATE_CLR_SET(hadc->State,
 8001176:	687b      	ldr	r3, [r7, #4]
 8001178:	6c1b      	ldr	r3, [r3, #64]	; 0x40
 800117a:	f023 0303 	bic.w	r3, r3, #3
 800117e:	f043 0201 	orr.w	r2, r3, #1
 8001182:	687b      	ldr	r3, [r7, #4]
 8001184:	641a      	str	r2, [r3, #64]	; 0x40
 8001186:	e001      	b.n	800118c <HAL_ADC_Init+0x74>
                      HAL_ADC_STATE_BUSY_INTERNAL,
                      HAL_ADC_STATE_READY);
  }
  else
  {
    tmp_hal_status = HAL_ERROR;
 8001188:	2301      	movs	r3, #1
 800118a:	73fb      	strb	r3, [r7, #15]
  }
  
  /* Release Lock */
  __HAL_UNLOCK(hadc);
 800118c:	687b      	ldr	r3, [r7, #4]
 800118e:	2200      	movs	r2, #0
 8001190:	f883 203c 	strb.w	r2, [r3, #60]	; 0x3c

  /* Return function status */
  return tmp_hal_status;
 8001194:	7bfb      	ldrb	r3, [r7, #15]
}
 8001196:	4618      	mov	r0, r3
 8001198:	3710      	adds	r7, #16
 800119a:	46bd      	mov	sp, r7
 800119c:	bd80      	pop	{r7, pc}
	...

080011a0 <HAL_ADC_Start_IT>:
  * @param  hadc pointer to a ADC_HandleTypeDef structure that contains
  *         the configuration information for the specified ADC.
  * @retval HAL status.
  */
HAL_StatusTypeDef HAL_ADC_Start_IT(ADC_HandleTypeDef* hadc)
{
 80011a0:	b480      	push	{r7}
 80011a2:	b085      	sub	sp, #20
 80011a4:	af00      	add	r7, sp, #0
 80011a6:	6078      	str	r0, [r7, #4]
  __IO uint32_t counter = 0U;
 80011a8:	2300      	movs	r3, #0
 80011aa:	60bb      	str	r3, [r7, #8]
  /* Check the parameters */
  assert_param(IS_FUNCTIONAL_STATE(hadc->Init.ContinuousConvMode));
  assert_param(IS_ADC_EXT_TRIG_EDGE(hadc->Init.ExternalTrigConvEdge)); 
  
  /* Process locked */
  __HAL_LOCK(hadc);
 80011ac:	687b      	ldr	r3, [r7, #4]
 80011ae:	f893 303c 	ldrb.w	r3, [r3, #60]	; 0x3c
 80011b2:	2b01      	cmp	r3, #1
 80011b4:	d101      	bne.n	80011ba <HAL_ADC_Start_IT+0x1a>
 80011b6:	2302      	movs	r3, #2
 80011b8:	e0bd      	b.n	8001336 <HAL_ADC_Start_IT+0x196>
 80011ba:	687b      	ldr	r3, [r7, #4]
 80011bc:	2201      	movs	r2, #1
 80011be:	f883 203c 	strb.w	r2, [r3, #60]	; 0x3c
  
  /* Enable the ADC peripheral */
  /* Check if ADC peripheral is disabled in order to enable it and wait during 
  Tstab time the ADC's stabilization */
  if((hadc->Instance->CR2 & ADC_CR2_ADON) != ADC_CR2_ADON)
 80011c2:	687b      	ldr	r3, [r7, #4]
 80011c4:	681b      	ldr	r3, [r3, #0]
 80011c6:	689b      	ldr	r3, [r3, #8]
 80011c8:	f003 0301 	and.w	r3, r3, #1
 80011cc:	2b01      	cmp	r3, #1
 80011ce:	d018      	beq.n	8001202 <HAL_ADC_Start_IT+0x62>
  {  
    /* Enable the Peripheral */
    __HAL_ADC_ENABLE(hadc);
 80011d0:	687b      	ldr	r3, [r7, #4]
 80011d2:	681b      	ldr	r3, [r3, #0]
 80011d4:	689a      	ldr	r2, [r3, #8]
 80011d6:	687b      	ldr	r3, [r7, #4]
 80011d8:	681b      	ldr	r3, [r3, #0]
 80011da:	f042 0201 	orr.w	r2, r2, #1
 80011de:	609a      	str	r2, [r3, #8]
    
    /* Delay for ADC stabilization time */
    /* Compute number of CPU cycles to wait for */
    counter = (ADC_STAB_DELAY_US * (SystemCoreClock / 1000000U));
 80011e0:	4b58      	ldr	r3, [pc, #352]	; (8001344 <HAL_ADC_Start_IT+0x1a4>)
 80011e2:	681b      	ldr	r3, [r3, #0]
 80011e4:	4a58      	ldr	r2, [pc, #352]	; (8001348 <HAL_ADC_Start_IT+0x1a8>)
 80011e6:	fba2 2303 	umull	r2, r3, r2, r3
 80011ea:	0c9a      	lsrs	r2, r3, #18
 80011ec:	4613      	mov	r3, r2
 80011ee:	005b      	lsls	r3, r3, #1
 80011f0:	4413      	add	r3, r2
 80011f2:	60bb      	str	r3, [r7, #8]
    while(counter != 0U)
 80011f4:	e002      	b.n	80011fc <HAL_ADC_Start_IT+0x5c>
    {
      counter--;
 80011f6:	68bb      	ldr	r3, [r7, #8]
 80011f8:	3b01      	subs	r3, #1
 80011fa:	60bb      	str	r3, [r7, #8]
    while(counter != 0U)
 80011fc:	68bb      	ldr	r3, [r7, #8]
 80011fe:	2b00      	cmp	r3, #0
 8001200:	d1f9      	bne.n	80011f6 <HAL_ADC_Start_IT+0x56>
    }
  }
  
  /* Start conversion if ADC is effectively enabled */
  if(HAL_IS_BIT_SET(hadc->Instance->CR2, ADC_CR2_ADON))
 8001202:	687b      	ldr	r3, [r7, #4]
 8001204:	681b      	ldr	r3, [r3, #0]
 8001206:	689b      	ldr	r3, [r3, #8]
 8001208:	f003 0301 	and.w	r3, r3, #1
 800120c:	2b01      	cmp	r3, #1
 800120e:	f040 8085 	bne.w	800131c <HAL_ADC_Start_IT+0x17c>
  {
    /* Set ADC state                                                          */
    /* - Clear state bitfield related to regular group conversion results     */
    /* - Set state bitfield related to regular group operation                */
    ADC_STATE_CLR_SET(hadc->State,
 8001212:	687b      	ldr	r3, [r7, #4]
 8001214:	6c1b      	ldr	r3, [r3, #64]	; 0x40
 8001216:	f423 63e0 	bic.w	r3, r3, #1792	; 0x700
 800121a:	f023 0301 	bic.w	r3, r3, #1
 800121e:	f443 7280 	orr.w	r2, r3, #256	; 0x100
 8001222:	687b      	ldr	r3, [r7, #4]
 8001224:	641a      	str	r2, [r3, #64]	; 0x40
                      HAL_ADC_STATE_READY | HAL_ADC_STATE_REG_EOC | HAL_ADC_STATE_REG_OVR,
                      HAL_ADC_STATE_REG_BUSY);
    
    /* If conversions on group regular are also triggering group injected,    */
    /* update ADC state.                                                      */
    if (READ_BIT(hadc->Instance->CR1, ADC_CR1_JAUTO) != RESET)
 8001226:	687b      	ldr	r3, [r7, #4]
 8001228:	681b      	ldr	r3, [r3, #0]
 800122a:	685b      	ldr	r3, [r3, #4]
 800122c:	f403 6380 	and.w	r3, r3, #1024	; 0x400
 8001230:	2b00      	cmp	r3, #0
 8001232:	d007      	beq.n	8001244 <HAL_ADC_Start_IT+0xa4>
    {
      ADC_STATE_CLR_SET(hadc->State, HAL_ADC_STATE_INJ_EOC, HAL_ADC_STATE_INJ_BUSY);  
 8001234:	687b      	ldr	r3, [r7, #4]
 8001236:	6c1b      	ldr	r3, [r3, #64]	; 0x40
 8001238:	f423 5340 	bic.w	r3, r3, #12288	; 0x3000
 800123c:	f443 5280 	orr.w	r2, r3, #4096	; 0x1000
 8001240:	687b      	ldr	r3, [r7, #4]
 8001242:	641a      	str	r2, [r3, #64]	; 0x40
    }
    
    /* State machine update: Check if an injected conversion is ongoing */
    if (HAL_IS_BIT_SET(hadc->State, HAL_ADC_STATE_INJ_BUSY))
 8001244:	687b      	ldr	r3, [r7, #4]
 8001246:	6c1b      	ldr	r3, [r3, #64]	; 0x40
 8001248:	f403 5380 	and.w	r3, r3, #4096	; 0x1000
 800124c:	f5b3 5f80 	cmp.w	r3, #4096	; 0x1000
 8001250:	d106      	bne.n	8001260 <HAL_ADC_Start_IT+0xc0>
    {
      /* Reset ADC error code fields related to conversions on group regular */
      CLEAR_BIT(hadc->ErrorCode, (HAL_ADC_ERROR_OVR | HAL_ADC_ERROR_DMA));         
 8001252:	687b      	ldr	r3, [r7, #4]
 8001254:	6c5b      	ldr	r3, [r3, #68]	; 0x44
 8001256:	f023 0206 	bic.w	r2, r3, #6
 800125a:	687b      	ldr	r3, [r7, #4]
 800125c:	645a      	str	r2, [r3, #68]	; 0x44
 800125e:	e002      	b.n	8001266 <HAL_ADC_Start_IT+0xc6>
    }
    else
    {
      /* Reset ADC all error code fields */
      ADC_CLEAR_ERRORCODE(hadc);
 8001260:	687b      	ldr	r3, [r7, #4]
 8001262:	2200      	movs	r2, #0
 8001264:	645a      	str	r2, [r3, #68]	; 0x44
    }

    /* Process unlocked */
    /* Unlock before starting ADC conversions: in case of potential           */
    /* interruption, to let the process to ADC IRQ Handler.                   */
    __HAL_UNLOCK(hadc);
 8001266:	687b      	ldr	r3, [r7, #4]
 8001268:	2200      	movs	r2, #0
 800126a:	f883 203c 	strb.w	r2, [r3, #60]	; 0x3c

    /* Pointer to the common control register to which is belonging hadc    */
    /* (Depending on STM32F4 product, there may be up to 3 ADCs and 1 common */
    /* control register)                                                    */
    tmpADC_Common = ADC_COMMON_REGISTER(hadc);
 800126e:	4b37      	ldr	r3, [pc, #220]	; (800134c <HAL_ADC_Start_IT+0x1ac>)
 8001270:	60fb      	str	r3, [r7, #12]

    /* Clear regular group conversion flag and overrun flag */
    /* (To ensure of no unknown state from potential previous ADC operations) */
    __HAL_ADC_CLEAR_FLAG(hadc, ADC_FLAG_EOC | ADC_FLAG_OVR);
 8001272:	687b      	ldr	r3, [r7, #4]
 8001274:	681b      	ldr	r3, [r3, #0]
 8001276:	f06f 0222 	mvn.w	r2, #34	; 0x22
 800127a:	601a      	str	r2, [r3, #0]
    
    /* Enable end of conversion interrupt for regular group */
    __HAL_ADC_ENABLE_IT(hadc, (ADC_IT_EOC | ADC_IT_OVR));
 800127c:	687b      	ldr	r3, [r7, #4]
 800127e:	681b      	ldr	r3, [r3, #0]
 8001280:	685b      	ldr	r3, [r3, #4]
 8001282:	687a      	ldr	r2, [r7, #4]
 8001284:	6812      	ldr	r2, [r2, #0]
 8001286:	f043 6380 	orr.w	r3, r3, #67108864	; 0x4000000
 800128a:	f043 0320 	orr.w	r3, r3, #32
 800128e:	6053      	str	r3, [r2, #4]
    
    /* Check if Multimode enabled */
    if(HAL_IS_BIT_CLR(tmpADC_Common->CCR, ADC_CCR_MULTI))
 8001290:	68fb      	ldr	r3, [r7, #12]
 8001292:	685b      	ldr	r3, [r3, #4]
 8001294:	f003 031f 	and.w	r3, r3, #31
 8001298:	2b00      	cmp	r3, #0
 800129a:	d12a      	bne.n	80012f2 <HAL_ADC_Start_IT+0x152>
    {
#if defined(ADC2) && defined(ADC3)
      if((hadc->Instance == ADC1) || ((hadc->Instance == ADC2) && ((ADC->CCR & ADC_CCR_MULTI_Msk) < ADC_CCR_MULTI_0)) \
 800129c:	687b      	ldr	r3, [r7, #4]
 800129e:	681b      	ldr	r3, [r3, #0]
 80012a0:	4a2b      	ldr	r2, [pc, #172]	; (8001350 <HAL_ADC_Start_IT+0x1b0>)
 80012a2:	4293      	cmp	r3, r2
 80012a4:	d015      	beq.n	80012d2 <HAL_ADC_Start_IT+0x132>
 80012a6:	687b      	ldr	r3, [r7, #4]
 80012a8:	681b      	ldr	r3, [r3, #0]
 80012aa:	4a2a      	ldr	r2, [pc, #168]	; (8001354 <HAL_ADC_Start_IT+0x1b4>)
 80012ac:	4293      	cmp	r3, r2
 80012ae:	d105      	bne.n	80012bc <HAL_ADC_Start_IT+0x11c>
 80012b0:	4b26      	ldr	r3, [pc, #152]	; (800134c <HAL_ADC_Start_IT+0x1ac>)
 80012b2:	685b      	ldr	r3, [r3, #4]
 80012b4:	f003 031f 	and.w	r3, r3, #31
 80012b8:	2b00      	cmp	r3, #0
 80012ba:	d00a      	beq.n	80012d2 <HAL_ADC_Start_IT+0x132>
                                  || ((hadc->Instance == ADC3) && ((ADC->CCR & ADC_CCR_MULTI_Msk) < ADC_CCR_MULTI_4)))
 80012bc:	687b      	ldr	r3, [r7, #4]
 80012be:	681b      	ldr	r3, [r3, #0]
 80012c0:	4a25      	ldr	r2, [pc, #148]	; (8001358 <HAL_ADC_Start_IT+0x1b8>)
 80012c2:	4293      	cmp	r3, r2
 80012c4:	d136      	bne.n	8001334 <HAL_ADC_Start_IT+0x194>
 80012c6:	4b21      	ldr	r3, [pc, #132]	; (800134c <HAL_ADC_Start_IT+0x1ac>)
 80012c8:	685b      	ldr	r3, [r3, #4]
 80012ca:	f003 0310 	and.w	r3, r3, #16
 80012ce:	2b00      	cmp	r3, #0
 80012d0:	d130      	bne.n	8001334 <HAL_ADC_Start_IT+0x194>
      {
#endif /* ADC2 || ADC3 */
        /* if no external trigger present enable software conversion of regular channels */
        if((hadc->Instance->CR2 & ADC_CR2_EXTEN) == RESET) 
 80012d2:	687b      	ldr	r3, [r7, #4]
 80012d4:	681b      	ldr	r3, [r3, #0]
 80012d6:	689b      	ldr	r3, [r3, #8]
 80012d8:	f003 5340 	and.w	r3, r3, #805306368	; 0x30000000
 80012dc:	2b00      	cmp	r3, #0
 80012de:	d129      	bne.n	8001334 <HAL_ADC_Start_IT+0x194>
        {
          /* Enable the selected ADC software conversion for regular group */
          hadc->Instance->CR2 |= (uint32_t)ADC_CR2_SWSTART;
 80012e0:	687b      	ldr	r3, [r7, #4]
 80012e2:	681b      	ldr	r3, [r3, #0]
 80012e4:	689a      	ldr	r2, [r3, #8]
 80012e6:	687b      	ldr	r3, [r7, #4]
 80012e8:	681b      	ldr	r3, [r3, #0]
 80012ea:	f042 4280 	orr.w	r2, r2, #1073741824	; 0x40000000
 80012ee:	609a      	str	r2, [r3, #8]
 80012f0:	e020      	b.n	8001334 <HAL_ADC_Start_IT+0x194>
#endif /* ADC2 || ADC3 */
    }
    else
    {
      /* if instance of handle correspond to ADC1 and  no external trigger present enable software conversion of regular channels */
      if((hadc->Instance == ADC1) && ((hadc->Instance->CR2 & ADC_CR2_EXTEN) == RESET))
 80012f2:	687b      	ldr	r3, [r7, #4]
 80012f4:	681b      	ldr	r3, [r3, #0]
 80012f6:	4a16      	ldr	r2, [pc, #88]	; (8001350 <HAL_ADC_Start_IT+0x1b0>)
 80012f8:	4293      	cmp	r3, r2
 80012fa:	d11b      	bne.n	8001334 <HAL_ADC_Start_IT+0x194>
 80012fc:	687b      	ldr	r3, [r7, #4]
 80012fe:	681b      	ldr	r3, [r3, #0]
 8001300:	689b      	ldr	r3, [r3, #8]
 8001302:	f003 5340 	and.w	r3, r3, #805306368	; 0x30000000
 8001306:	2b00      	cmp	r3, #0
 8001308:	d114      	bne.n	8001334 <HAL_ADC_Start_IT+0x194>
      {
        /* Enable the selected ADC software conversion for regular group */
          hadc->Instance->CR2 |= (uint32_t)ADC_CR2_SWSTART;
 800130a:	687b      	ldr	r3, [r7, #4]
 800130c:	681b      	ldr	r3, [r3, #0]
 800130e:	689a      	ldr	r2, [r3, #8]
 8001310:	687b      	ldr	r3, [r7, #4]
 8001312:	681b      	ldr	r3, [r3, #0]
 8001314:	f042 4280 	orr.w	r2, r2, #1073741824	; 0x40000000
 8001318:	609a      	str	r2, [r3, #8]
 800131a:	e00b      	b.n	8001334 <HAL_ADC_Start_IT+0x194>
    }
  }
  else
  {
    /* Update ADC state machine to error */
    SET_BIT(hadc->State, HAL_ADC_STATE_ERROR_INTERNAL);
 800131c:	687b      	ldr	r3, [r7, #4]
 800131e:	6c1b      	ldr	r3, [r3, #64]	; 0x40
 8001320:	f043 0210 	orr.w	r2, r3, #16
 8001324:	687b      	ldr	r3, [r7, #4]
 8001326:	641a      	str	r2, [r3, #64]	; 0x40

    /* Set ADC error code to ADC IP internal error */
    SET_BIT(hadc->ErrorCode, HAL_ADC_ERROR_INTERNAL);
 8001328:	687b      	ldr	r3, [r7, #4]
 800132a:	6c5b      	ldr	r3, [r3, #68]	; 0x44
 800132c:	f043 0201 	orr.w	r2, r3, #1
 8001330:	687b      	ldr	r3, [r7, #4]
 8001332:	645a      	str	r2, [r3, #68]	; 0x44
  }
  
  /* Return function status */
  return HAL_OK;
 8001334:	2300      	movs	r3, #0
}
 8001336:	4618      	mov	r0, r3
 8001338:	3714      	adds	r7, #20
 800133a:	46bd      	mov	sp, r7
 800133c:	f85d 7b04 	ldr.w	r7, [sp], #4
 8001340:	4770      	bx	lr
 8001342:	bf00      	nop
 8001344:	20000004 	.word	0x20000004
 8001348:	431bde83 	.word	0x431bde83
 800134c:	40012300 	.word	0x40012300
 8001350:	40012000 	.word	0x40012000
 8001354:	40012100 	.word	0x40012100
 8001358:	40012200 	.word	0x40012200

0800135c <HAL_ADC_IRQHandler>:
  * @param  hadc pointer to a ADC_HandleTypeDef structure that contains
  *         the configuration information for the specified ADC.
  * @retval None
  */
void HAL_ADC_IRQHandler(ADC_HandleTypeDef* hadc)
{
 800135c:	b580      	push	{r7, lr}
 800135e:	b086      	sub	sp, #24
 8001360:	af00      	add	r7, sp, #0
 8001362:	6078      	str	r0, [r7, #4]
  uint32_t tmp1 = 0U, tmp2 = 0U;
 8001364:	2300      	movs	r3, #0
 8001366:	617b      	str	r3, [r7, #20]
 8001368:	2300      	movs	r3, #0
 800136a:	613b      	str	r3, [r7, #16]
  
  uint32_t tmp_sr = hadc->Instance->SR;
 800136c:	687b      	ldr	r3, [r7, #4]
 800136e:	681b      	ldr	r3, [r3, #0]
 8001370:	681b      	ldr	r3, [r3, #0]
 8001372:	60fb      	str	r3, [r7, #12]
  uint32_t tmp_cr1 = hadc->Instance->CR1;
 8001374:	687b      	ldr	r3, [r7, #4]
 8001376:	681b      	ldr	r3, [r3, #0]
 8001378:	685b      	ldr	r3, [r3, #4]
 800137a:	60bb      	str	r3, [r7, #8]
  /* Check the parameters */
  assert_param(IS_FUNCTIONAL_STATE(hadc->Init.ContinuousConvMode));
  assert_param(IS_ADC_REGULAR_LENGTH(hadc->Init.NbrOfConversion));
  assert_param(IS_ADC_EOCSelection(hadc->Init.EOCSelection));
  
  tmp1 = tmp_sr & ADC_FLAG_EOC;
 800137c:	68fb      	ldr	r3, [r7, #12]
 800137e:	f003 0302 	and.w	r3, r3, #2
 8001382:	617b      	str	r3, [r7, #20]
  tmp2 = tmp_cr1 & ADC_IT_EOC;
 8001384:	68bb      	ldr	r3, [r7, #8]
 8001386:	f003 0320 	and.w	r3, r3, #32
 800138a:	613b      	str	r3, [r7, #16]
  /* Check End of conversion flag for regular channels */
  if(tmp1 && tmp2)
 800138c:	697b      	ldr	r3, [r7, #20]
 800138e:	2b00      	cmp	r3, #0
 8001390:	d049      	beq.n	8001426 <HAL_ADC_IRQHandler+0xca>
 8001392:	693b      	ldr	r3, [r7, #16]
 8001394:	2b00      	cmp	r3, #0
 8001396:	d046      	beq.n	8001426 <HAL_ADC_IRQHandler+0xca>
  {
    /* Update state machine on conversion status if not in error state */
    if (HAL_IS_BIT_CLR(hadc->State, HAL_ADC_STATE_ERROR_INTERNAL))
 8001398:	687b      	ldr	r3, [r7, #4]
 800139a:	6c1b      	ldr	r3, [r3, #64]	; 0x40
 800139c:	f003 0310 	and.w	r3, r3, #16
 80013a0:	2b00      	cmp	r3, #0
 80013a2:	d105      	bne.n	80013b0 <HAL_ADC_IRQHandler+0x54>
    {
      /* Set ADC state */
      SET_BIT(hadc->State, HAL_ADC_STATE_REG_EOC); 
 80013a4:	687b      	ldr	r3, [r7, #4]
 80013a6:	6c1b      	ldr	r3, [r3, #64]	; 0x40
 80013a8:	f443 7200 	orr.w	r2, r3, #512	; 0x200
 80013ac:	687b      	ldr	r3, [r7, #4]
 80013ae:	641a      	str	r2, [r3, #64]	; 0x40
    /* by external trigger, continuous mode or scan sequence on going.      */
    /* Note: On STM32F4, there is no independent flag of end of sequence.   */
    /*       The test of scan sequence on going is done either with scan    */
    /*       sequence disabled or with end of conversion flag set to        */
    /*       of end of sequence.                                            */
    if(ADC_IS_SOFTWARE_START_REGULAR(hadc)                   &&
 80013b0:	687b      	ldr	r3, [r7, #4]
 80013b2:	681b      	ldr	r3, [r3, #0]
 80013b4:	689b      	ldr	r3, [r3, #8]
 80013b6:	f003 5340 	and.w	r3, r3, #805306368	; 0x30000000
 80013ba:	2b00      	cmp	r3, #0
 80013bc:	d12b      	bne.n	8001416 <HAL_ADC_IRQHandler+0xba>
       (hadc->Init.ContinuousConvMode == DISABLE)            &&
 80013be:	687b      	ldr	r3, [r7, #4]
 80013c0:	7e1b      	ldrb	r3, [r3, #24]
    if(ADC_IS_SOFTWARE_START_REGULAR(hadc)                   &&
 80013c2:	2b00      	cmp	r3, #0
 80013c4:	d127      	bne.n	8001416 <HAL_ADC_IRQHandler+0xba>
       (HAL_IS_BIT_CLR(hadc->Instance->SQR1, ADC_SQR1_L) || 
 80013c6:	687b      	ldr	r3, [r7, #4]
 80013c8:	681b      	ldr	r3, [r3, #0]
 80013ca:	6adb      	ldr	r3, [r3, #44]	; 0x2c
 80013cc:	f403 0370 	and.w	r3, r3, #15728640	; 0xf00000
       (hadc->Init.ContinuousConvMode == DISABLE)            &&
 80013d0:	2b00      	cmp	r3, #0
 80013d2:	d006      	beq.n	80013e2 <HAL_ADC_IRQHandler+0x86>
        HAL_IS_BIT_CLR(hadc->Instance->CR2, ADC_CR2_EOCS)  )   )
 80013d4:	687b      	ldr	r3, [r7, #4]
 80013d6:	681b      	ldr	r3, [r3, #0]
 80013d8:	689b      	ldr	r3, [r3, #8]
 80013da:	f403 6380 	and.w	r3, r3, #1024	; 0x400
       (HAL_IS_BIT_CLR(hadc->Instance->SQR1, ADC_SQR1_L) || 
 80013de:	2b00      	cmp	r3, #0
 80013e0:	d119      	bne.n	8001416 <HAL_ADC_IRQHandler+0xba>
    {
      /* Disable ADC end of single conversion interrupt on group regular */
      /* Note: Overrun interrupt was enabled with EOC interrupt in          */
      /* HAL_ADC_Start_IT(), but is not disabled here because can be used   */
      /* by overrun IRQ process below.                                      */
      __HAL_ADC_DISABLE_IT(hadc, ADC_IT_EOC);
 80013e2:	687b      	ldr	r3, [r7, #4]
 80013e4:	681b      	ldr	r3, [r3, #0]
 80013e6:	685a      	ldr	r2, [r3, #4]
 80013e8:	687b      	ldr	r3, [r7, #4]
 80013ea:	681b      	ldr	r3, [r3, #0]
 80013ec:	f022 0220 	bic.w	r2, r2, #32
 80013f0:	605a      	str	r2, [r3, #4]
      
      /* Set ADC state */
      CLEAR_BIT(hadc->State, HAL_ADC_STATE_REG_BUSY);
 80013f2:	687b      	ldr	r3, [r7, #4]
 80013f4:	6c1b      	ldr	r3, [r3, #64]	; 0x40
 80013f6:	f423 7280 	bic.w	r2, r3, #256	; 0x100
 80013fa:	687b      	ldr	r3, [r7, #4]
 80013fc:	641a      	str	r2, [r3, #64]	; 0x40
      
      if (HAL_IS_BIT_CLR(hadc->State, HAL_ADC_STATE_INJ_BUSY))
 80013fe:	687b      	ldr	r3, [r7, #4]
 8001400:	6c1b      	ldr	r3, [r3, #64]	; 0x40
 8001402:	f403 5380 	and.w	r3, r3, #4096	; 0x1000
 8001406:	2b00      	cmp	r3, #0
 8001408:	d105      	bne.n	8001416 <HAL_ADC_IRQHandler+0xba>
      {
        SET_BIT(hadc->State, HAL_ADC_STATE_READY);
 800140a:	687b      	ldr	r3, [r7, #4]
 800140c:	6c1b      	ldr	r3, [r3, #64]	; 0x40
 800140e:	f043 0201 	orr.w	r2, r3, #1
 8001412:	687b      	ldr	r3, [r7, #4]
 8001414:	641a      	str	r2, [r3, #64]	; 0x40
    
    /* Conversion complete callback */
#if (USE_HAL_ADC_REGISTER_CALLBACKS == 1)
    hadc->ConvCpltCallback(hadc);
#else
    HAL_ADC_ConvCpltCallback(hadc);
 8001416:	6878      	ldr	r0, [r7, #4]
 8001418:	f7ff f8ca 	bl	80005b0 <HAL_ADC_ConvCpltCallback>
#endif /* USE_HAL_ADC_REGISTER_CALLBACKS */
    
    /* Clear regular group conversion flag */
    __HAL_ADC_CLEAR_FLAG(hadc, ADC_FLAG_STRT | ADC_FLAG_EOC);
 800141c:	687b      	ldr	r3, [r7, #4]
 800141e:	681b      	ldr	r3, [r3, #0]
 8001420:	f06f 0212 	mvn.w	r2, #18
 8001424:	601a      	str	r2, [r3, #0]
  }
  
  tmp1 = tmp_sr & ADC_FLAG_JEOC;
 8001426:	68fb      	ldr	r3, [r7, #12]
 8001428:	f003 0304 	and.w	r3, r3, #4
 800142c:	617b      	str	r3, [r7, #20]
  tmp2 = tmp_cr1 & ADC_IT_JEOC;
 800142e:	68bb      	ldr	r3, [r7, #8]
 8001430:	f003 0380 	and.w	r3, r3, #128	; 0x80
 8001434:	613b      	str	r3, [r7, #16]
  /* Check End of conversion flag for injected channels */
  if(tmp1 && tmp2)
 8001436:	697b      	ldr	r3, [r7, #20]
 8001438:	2b00      	cmp	r3, #0
 800143a:	d057      	beq.n	80014ec <HAL_ADC_IRQHandler+0x190>
 800143c:	693b      	ldr	r3, [r7, #16]
 800143e:	2b00      	cmp	r3, #0
 8001440:	d054      	beq.n	80014ec <HAL_ADC_IRQHandler+0x190>
  {
    /* Update state machine on conversion status if not in error state */
    if (HAL_IS_BIT_CLR(hadc->State, HAL_ADC_STATE_ERROR_INTERNAL))
 8001442:	687b      	ldr	r3, [r7, #4]
 8001444:	6c1b      	ldr	r3, [r3, #64]	; 0x40
 8001446:	f003 0310 	and.w	r3, r3, #16
 800144a:	2b00      	cmp	r3, #0
 800144c:	d105      	bne.n	800145a <HAL_ADC_IRQHandler+0xfe>
    {
      /* Set ADC state */
      SET_BIT(hadc->State, HAL_ADC_STATE_INJ_EOC);
 800144e:	687b      	ldr	r3, [r7, #4]
 8001450:	6c1b      	ldr	r3, [r3, #64]	; 0x40
 8001452:	f443 5200 	orr.w	r2, r3, #8192	; 0x2000
 8001456:	687b      	ldr	r3, [r7, #4]
 8001458:	641a      	str	r2, [r3, #64]	; 0x40

    /* Determine whether any further conversion upcoming on group injected  */
    /* by external trigger, scan sequence on going or by automatic injected */
    /* conversion from group regular (same conditions as group regular      */
    /* interruption disabling above).                                       */
    if(ADC_IS_SOFTWARE_START_INJECTED(hadc)                    &&
 800145a:	687b      	ldr	r3, [r7, #4]
 800145c:	681b      	ldr	r3, [r3, #0]
 800145e:	689b      	ldr	r3, [r3, #8]
 8001460:	f403 1340 	and.w	r3, r3, #3145728	; 0x300000
 8001464:	2b00      	cmp	r3, #0
 8001466:	d139      	bne.n	80014dc <HAL_ADC_IRQHandler+0x180>
       (HAL_IS_BIT_CLR(hadc->Instance->JSQR, ADC_JSQR_JL)  ||
 8001468:	687b      	ldr	r3, [r7, #4]
 800146a:	681b      	ldr	r3, [r3, #0]
 800146c:	6b9b      	ldr	r3, [r3, #56]	; 0x38
 800146e:	f403 1340 	and.w	r3, r3, #3145728	; 0x300000
    if(ADC_IS_SOFTWARE_START_INJECTED(hadc)                    &&
 8001472:	2b00      	cmp	r3, #0
 8001474:	d006      	beq.n	8001484 <HAL_ADC_IRQHandler+0x128>
        HAL_IS_BIT_CLR(hadc->Instance->CR2, ADC_CR2_EOCS)    ) &&
 8001476:	687b      	ldr	r3, [r7, #4]
 8001478:	681b      	ldr	r3, [r3, #0]
 800147a:	689b      	ldr	r3, [r3, #8]
 800147c:	f403 6380 	and.w	r3, r3, #1024	; 0x400
       (HAL_IS_BIT_CLR(hadc->Instance->JSQR, ADC_JSQR_JL)  ||
 8001480:	2b00      	cmp	r3, #0
 8001482:	d12b      	bne.n	80014dc <HAL_ADC_IRQHandler+0x180>
       (HAL_IS_BIT_CLR(hadc->Instance->CR1, ADC_CR1_JAUTO) &&
 8001484:	687b      	ldr	r3, [r7, #4]
 8001486:	681b      	ldr	r3, [r3, #0]
 8001488:	685b      	ldr	r3, [r3, #4]
 800148a:	f403 6380 	and.w	r3, r3, #1024	; 0x400
        HAL_IS_BIT_CLR(hadc->Instance->CR2, ADC_CR2_EOCS)    ) &&
 800148e:	2b00      	cmp	r3, #0
 8001490:	d124      	bne.n	80014dc <HAL_ADC_IRQHandler+0x180>
        (ADC_IS_SOFTWARE_START_REGULAR(hadc)       &&
 8001492:	687b      	ldr	r3, [r7, #4]
 8001494:	681b      	ldr	r3, [r3, #0]
 8001496:	689b      	ldr	r3, [r3, #8]
 8001498:	f003 5340 	and.w	r3, r3, #805306368	; 0x30000000
       (HAL_IS_BIT_CLR(hadc->Instance->CR1, ADC_CR1_JAUTO) &&
 800149c:	2b00      	cmp	r3, #0
 800149e:	d11d      	bne.n	80014dc <HAL_ADC_IRQHandler+0x180>
        (hadc->Init.ContinuousConvMode == DISABLE)   )       )   )
 80014a0:	687b      	ldr	r3, [r7, #4]
 80014a2:	7e1b      	ldrb	r3, [r3, #24]
        (ADC_IS_SOFTWARE_START_REGULAR(hadc)       &&
 80014a4:	2b00      	cmp	r3, #0
 80014a6:	d119      	bne.n	80014dc <HAL_ADC_IRQHandler+0x180>
    {
      /* Disable ADC end of single conversion interrupt on group injected */
      __HAL_ADC_DISABLE_IT(hadc, ADC_IT_JEOC);
 80014a8:	687b      	ldr	r3, [r7, #4]
 80014aa:	681b      	ldr	r3, [r3, #0]
 80014ac:	685a      	ldr	r2, [r3, #4]
 80014ae:	687b      	ldr	r3, [r7, #4]
 80014b0:	681b      	ldr	r3, [r3, #0]
 80014b2:	f022 0280 	bic.w	r2, r2, #128	; 0x80
 80014b6:	605a      	str	r2, [r3, #4]
      
      /* Set ADC state */
      CLEAR_BIT(hadc->State, HAL_ADC_STATE_INJ_BUSY);   
 80014b8:	687b      	ldr	r3, [r7, #4]
 80014ba:	6c1b      	ldr	r3, [r3, #64]	; 0x40
 80014bc:	f423 5280 	bic.w	r2, r3, #4096	; 0x1000
 80014c0:	687b      	ldr	r3, [r7, #4]
 80014c2:	641a      	str	r2, [r3, #64]	; 0x40

      if (HAL_IS_BIT_CLR(hadc->State, HAL_ADC_STATE_REG_BUSY))
 80014c4:	687b      	ldr	r3, [r7, #4]
 80014c6:	6c1b      	ldr	r3, [r3, #64]	; 0x40
 80014c8:	f403 7380 	and.w	r3, r3, #256	; 0x100
 80014cc:	2b00      	cmp	r3, #0
 80014ce:	d105      	bne.n	80014dc <HAL_ADC_IRQHandler+0x180>
      { 
        SET_BIT(hadc->State, HAL_ADC_STATE_READY);
 80014d0:	687b      	ldr	r3, [r7, #4]
 80014d2:	6c1b      	ldr	r3, [r3, #64]	; 0x40
 80014d4:	f043 0201 	orr.w	r2, r3, #1
 80014d8:	687b      	ldr	r3, [r7, #4]
 80014da:	641a      	str	r2, [r3, #64]	; 0x40
    /* Conversion complete callback */ 
    /* Conversion complete callback */ 
#if (USE_HAL_ADC_REGISTER_CALLBACKS == 1)
      hadc->InjectedConvCpltCallback(hadc);
#else
      HAL_ADCEx_InjectedConvCpltCallback(hadc);
 80014dc:	6878      	ldr	r0, [r7, #4]
 80014de:	f000 fa8d 	bl	80019fc <HAL_ADCEx_InjectedConvCpltCallback>
#endif /* USE_HAL_ADC_REGISTER_CALLBACKS */
    
    /* Clear injected group conversion flag */
    __HAL_ADC_CLEAR_FLAG(hadc, (ADC_FLAG_JSTRT | ADC_FLAG_JEOC));
 80014e2:	687b      	ldr	r3, [r7, #4]
 80014e4:	681b      	ldr	r3, [r3, #0]
 80014e6:	f06f 020c 	mvn.w	r2, #12
 80014ea:	601a      	str	r2, [r3, #0]
  }
  
  tmp1 = tmp_sr & ADC_FLAG_AWD;
 80014ec:	68fb      	ldr	r3, [r7, #12]
 80014ee:	f003 0301 	and.w	r3, r3, #1
 80014f2:	617b      	str	r3, [r7, #20]
  tmp2 = tmp_cr1 & ADC_IT_AWD;
 80014f4:	68bb      	ldr	r3, [r7, #8]
 80014f6:	f003 0340 	and.w	r3, r3, #64	; 0x40
 80014fa:	613b      	str	r3, [r7, #16]
  /* Check Analog watchdog flag */
  if(tmp1 && tmp2)
 80014fc:	697b      	ldr	r3, [r7, #20]
 80014fe:	2b00      	cmp	r3, #0
 8001500:	d017      	beq.n	8001532 <HAL_ADC_IRQHandler+0x1d6>
 8001502:	693b      	ldr	r3, [r7, #16]
 8001504:	2b00      	cmp	r3, #0
 8001506:	d014      	beq.n	8001532 <HAL_ADC_IRQHandler+0x1d6>
  {
    if(__HAL_ADC_GET_FLAG(hadc, ADC_FLAG_AWD))
 8001508:	687b      	ldr	r3, [r7, #4]
 800150a:	681b      	ldr	r3, [r3, #0]
 800150c:	681b      	ldr	r3, [r3, #0]
 800150e:	f003 0301 	and.w	r3, r3, #1
 8001512:	2b01      	cmp	r3, #1
 8001514:	d10d      	bne.n	8001532 <HAL_ADC_IRQHandler+0x1d6>
    {
      /* Set ADC state */
      SET_BIT(hadc->State, HAL_ADC_STATE_AWD1);
 8001516:	687b      	ldr	r3, [r7, #4]
 8001518:	6c1b      	ldr	r3, [r3, #64]	; 0x40
 800151a:	f443 3280 	orr.w	r2, r3, #65536	; 0x10000
 800151e:	687b      	ldr	r3, [r7, #4]
 8001520:	641a      	str	r2, [r3, #64]	; 0x40
      
      /* Level out of window callback */
#if (USE_HAL_ADC_REGISTER_CALLBACKS == 1)
      hadc->LevelOutOfWindowCallback(hadc);
#else
      HAL_ADC_LevelOutOfWindowCallback(hadc);
 8001522:	6878      	ldr	r0, [r7, #4]
 8001524:	f000 f837 	bl	8001596 <HAL_ADC_LevelOutOfWindowCallback>
#endif /* USE_HAL_ADC_REGISTER_CALLBACKS */
      
      /* Clear the ADC analog watchdog flag */
      __HAL_ADC_CLEAR_FLAG(hadc, ADC_FLAG_AWD);
 8001528:	687b      	ldr	r3, [r7, #4]
 800152a:	681b      	ldr	r3, [r3, #0]
 800152c:	f06f 0201 	mvn.w	r2, #1
 8001530:	601a      	str	r2, [r3, #0]
    }
  }
  
  tmp1 = tmp_sr & ADC_FLAG_OVR;
 8001532:	68fb      	ldr	r3, [r7, #12]
 8001534:	f003 0320 	and.w	r3, r3, #32
 8001538:	617b      	str	r3, [r7, #20]
  tmp2 = tmp_cr1 & ADC_IT_OVR;
 800153a:	68bb      	ldr	r3, [r7, #8]
 800153c:	f003 6380 	and.w	r3, r3, #67108864	; 0x4000000
 8001540:	613b      	str	r3, [r7, #16]
  /* Check Overrun flag */
  if(tmp1 && tmp2)
 8001542:	697b      	ldr	r3, [r7, #20]
 8001544:	2b00      	cmp	r3, #0
 8001546:	d015      	beq.n	8001574 <HAL_ADC_IRQHandler+0x218>
 8001548:	693b      	ldr	r3, [r7, #16]
 800154a:	2b00      	cmp	r3, #0
 800154c:	d012      	beq.n	8001574 <HAL_ADC_IRQHandler+0x218>
    /* Note: On STM32F4, ADC overrun can be set through other parameters    */
    /*       refer to description of parameter "EOCSelection" for more      */
    /*       details.                                                       */
    
    /* Set ADC error code to overrun */
    SET_BIT(hadc->ErrorCode, HAL_ADC_ERROR_OVR);
 800154e:	687b      	ldr	r3, [r7, #4]
 8001550:	6c5b      	ldr	r3, [r3, #68]	; 0x44
 8001552:	f043 0202 	orr.w	r2, r3, #2
 8001556:	687b      	ldr	r3, [r7, #4]
 8001558:	645a      	str	r2, [r3, #68]	; 0x44
    
    /* Clear ADC overrun flag */
    __HAL_ADC_CLEAR_FLAG(hadc, ADC_FLAG_OVR);
 800155a:	687b      	ldr	r3, [r7, #4]
 800155c:	681b      	ldr	r3, [r3, #0]
 800155e:	f06f 0220 	mvn.w	r2, #32
 8001562:	601a      	str	r2, [r3, #0]
    
    /* Error callback */ 
#if (USE_HAL_ADC_REGISTER_CALLBACKS == 1)
      hadc->ErrorCallback(hadc);
#else
      HAL_ADC_ErrorCallback(hadc);
 8001564:	6878      	ldr	r0, [r7, #4]
 8001566:	f000 f820 	bl	80015aa <HAL_ADC_ErrorCallback>
#endif /* USE_HAL_ADC_REGISTER_CALLBACKS */
    
    /* Clear the Overrun flag */
    __HAL_ADC_CLEAR_FLAG(hadc, ADC_FLAG_OVR);
 800156a:	687b      	ldr	r3, [r7, #4]
 800156c:	681b      	ldr	r3, [r3, #0]
 800156e:	f06f 0220 	mvn.w	r2, #32
 8001572:	601a      	str	r2, [r3, #0]
  }
}
 8001574:	bf00      	nop
 8001576:	3718      	adds	r7, #24
 8001578:	46bd      	mov	sp, r7
 800157a:	bd80      	pop	{r7, pc}

0800157c <HAL_ADC_GetValue>:
  * @param  hadc pointer to a ADC_HandleTypeDef structure that contains
  *         the configuration information for the specified ADC.
  * @retval Converted value
  */
uint32_t HAL_ADC_GetValue(ADC_HandleTypeDef* hadc)
{       
 800157c:	b480      	push	{r7}
 800157e:	b083      	sub	sp, #12
 8001580:	af00      	add	r7, sp, #0
 8001582:	6078      	str	r0, [r7, #4]
  /* Return the selected ADC converted value */ 
  return hadc->Instance->DR;
 8001584:	687b      	ldr	r3, [r7, #4]
 8001586:	681b      	ldr	r3, [r3, #0]
 8001588:	6cdb      	ldr	r3, [r3, #76]	; 0x4c
}
 800158a:	4618      	mov	r0, r3
 800158c:	370c      	adds	r7, #12
 800158e:	46bd      	mov	sp, r7
 8001590:	f85d 7b04 	ldr.w	r7, [sp], #4
 8001594:	4770      	bx	lr

08001596 <HAL_ADC_LevelOutOfWindowCallback>:
  * @param  hadc pointer to a ADC_HandleTypeDef structure that contains
  *         the configuration information for the specified ADC.
  * @retval None
  */
__weak void HAL_ADC_LevelOutOfWindowCallback(ADC_HandleTypeDef* hadc)
{
 8001596:	b480      	push	{r7}
 8001598:	b083      	sub	sp, #12
 800159a:	af00      	add	r7, sp, #0
 800159c:	6078      	str	r0, [r7, #4]
  /* Prevent unused argument(s) compilation warning */
  UNUSED(hadc);
  /* NOTE : This function Should not be modified, when the callback is needed,
            the HAL_ADC_LevelOoutOfWindowCallback could be implemented in the user file
   */
}
 800159e:	bf00      	nop
 80015a0:	370c      	adds	r7, #12
 80015a2:	46bd      	mov	sp, r7
 80015a4:	f85d 7b04 	ldr.w	r7, [sp], #4
 80015a8:	4770      	bx	lr

080015aa <HAL_ADC_ErrorCallback>:
  * @param  hadc pointer to a ADC_HandleTypeDef structure that contains
  *         the configuration information for the specified ADC.
  * @retval None
  */
__weak void HAL_ADC_ErrorCallback(ADC_HandleTypeDef *hadc)
{
 80015aa:	b480      	push	{r7}
 80015ac:	b083      	sub	sp, #12
 80015ae:	af00      	add	r7, sp, #0
 80015b0:	6078      	str	r0, [r7, #4]
  /* Prevent unused argument(s) compilation warning */
  UNUSED(hadc);
  /* NOTE : This function Should not be modified, when the callback is needed,
            the HAL_ADC_ErrorCallback could be implemented in the user file
   */
}
 80015b2:	bf00      	nop
 80015b4:	370c      	adds	r7, #12
 80015b6:	46bd      	mov	sp, r7
 80015b8:	f85d 7b04 	ldr.w	r7, [sp], #4
 80015bc:	4770      	bx	lr
	...

080015c0 <HAL_ADC_ConfigChannel>:
  *         the configuration information for the specified ADC.
  * @param  sConfig ADC configuration structure. 
  * @retval HAL status
  */
HAL_StatusTypeDef HAL_ADC_ConfigChannel(ADC_HandleTypeDef* hadc, ADC_ChannelConfTypeDef* sConfig)
{
 80015c0:	b480      	push	{r7}
 80015c2:	b085      	sub	sp, #20
 80015c4:	af00      	add	r7, sp, #0
 80015c6:	6078      	str	r0, [r7, #4]
 80015c8:	6039      	str	r1, [r7, #0]
  __IO uint32_t counter = 0U;
 80015ca:	2300      	movs	r3, #0
 80015cc:	60bb      	str	r3, [r7, #8]
  assert_param(IS_ADC_CHANNEL(sConfig->Channel));
  assert_param(IS_ADC_REGULAR_RANK(sConfig->Rank));
  assert_param(IS_ADC_SAMPLE_TIME(sConfig->SamplingTime));
  
  /* Process locked */
  __HAL_LOCK(hadc);
 80015ce:	687b      	ldr	r3, [r7, #4]
 80015d0:	f893 303c 	ldrb.w	r3, [r3, #60]	; 0x3c
 80015d4:	2b01      	cmp	r3, #1
 80015d6:	d101      	bne.n	80015dc <HAL_ADC_ConfigChannel+0x1c>
 80015d8:	2302      	movs	r3, #2
 80015da:	e105      	b.n	80017e8 <HAL_ADC_ConfigChannel+0x228>
 80015dc:	687b      	ldr	r3, [r7, #4]
 80015de:	2201      	movs	r2, #1
 80015e0:	f883 203c 	strb.w	r2, [r3, #60]	; 0x3c
    
  /* if ADC_Channel_10 ... ADC_Channel_18 is selected */
  if (sConfig->Channel > ADC_CHANNEL_9)
 80015e4:	683b      	ldr	r3, [r7, #0]
 80015e6:	681b      	ldr	r3, [r3, #0]
 80015e8:	2b09      	cmp	r3, #9
 80015ea:	d925      	bls.n	8001638 <HAL_ADC_ConfigChannel+0x78>
  {
    /* Clear the old sample time */
    hadc->Instance->SMPR1 &= ~ADC_SMPR1(ADC_SMPR1_SMP10, sConfig->Channel);
 80015ec:	687b      	ldr	r3, [r7, #4]
 80015ee:	681b      	ldr	r3, [r3, #0]
 80015f0:	68d9      	ldr	r1, [r3, #12]
 80015f2:	683b      	ldr	r3, [r7, #0]
 80015f4:	681b      	ldr	r3, [r3, #0]
 80015f6:	b29b      	uxth	r3, r3
 80015f8:	461a      	mov	r2, r3
 80015fa:	4613      	mov	r3, r2
 80015fc:	005b      	lsls	r3, r3, #1
 80015fe:	4413      	add	r3, r2
 8001600:	3b1e      	subs	r3, #30
 8001602:	2207      	movs	r2, #7
 8001604:	fa02 f303 	lsl.w	r3, r2, r3
 8001608:	43da      	mvns	r2, r3
 800160a:	687b      	ldr	r3, [r7, #4]
 800160c:	681b      	ldr	r3, [r3, #0]
 800160e:	400a      	ands	r2, r1
 8001610:	60da      	str	r2, [r3, #12]
    
    /* Set the new sample time */
    hadc->Instance->SMPR1 |= ADC_SMPR1(sConfig->SamplingTime, sConfig->Channel);
 8001612:	687b      	ldr	r3, [r7, #4]
 8001614:	681b      	ldr	r3, [r3, #0]
 8001616:	68d9      	ldr	r1, [r3, #12]
 8001618:	683b      	ldr	r3, [r7, #0]
 800161a:	689a      	ldr	r2, [r3, #8]
 800161c:	683b      	ldr	r3, [r7, #0]
 800161e:	681b      	ldr	r3, [r3, #0]
 8001620:	b29b      	uxth	r3, r3
 8001622:	4618      	mov	r0, r3
 8001624:	4603      	mov	r3, r0
 8001626:	005b      	lsls	r3, r3, #1
 8001628:	4403      	add	r3, r0
 800162a:	3b1e      	subs	r3, #30
 800162c:	409a      	lsls	r2, r3
 800162e:	687b      	ldr	r3, [r7, #4]
 8001630:	681b      	ldr	r3, [r3, #0]
 8001632:	430a      	orrs	r2, r1
 8001634:	60da      	str	r2, [r3, #12]
 8001636:	e022      	b.n	800167e <HAL_ADC_ConfigChannel+0xbe>
  }
  else /* ADC_Channel include in ADC_Channel_[0..9] */
  {
    /* Clear the old sample time */
    hadc->Instance->SMPR2 &= ~ADC_SMPR2(ADC_SMPR2_SMP0, sConfig->Channel);
 8001638:	687b      	ldr	r3, [r7, #4]
 800163a:	681b      	ldr	r3, [r3, #0]
 800163c:	6919      	ldr	r1, [r3, #16]
 800163e:	683b      	ldr	r3, [r7, #0]
 8001640:	681b      	ldr	r3, [r3, #0]
 8001642:	b29b      	uxth	r3, r3
 8001644:	461a      	mov	r2, r3
 8001646:	4613      	mov	r3, r2
 8001648:	005b      	lsls	r3, r3, #1
 800164a:	4413      	add	r3, r2
 800164c:	2207      	movs	r2, #7
 800164e:	fa02 f303 	lsl.w	r3, r2, r3
 8001652:	43da      	mvns	r2, r3
 8001654:	687b      	ldr	r3, [r7, #4]
 8001656:	681b      	ldr	r3, [r3, #0]
 8001658:	400a      	ands	r2, r1
 800165a:	611a      	str	r2, [r3, #16]
    
    /* Set the new sample time */
    hadc->Instance->SMPR2 |= ADC_SMPR2(sConfig->SamplingTime, sConfig->Channel);
 800165c:	687b      	ldr	r3, [r7, #4]
 800165e:	681b      	ldr	r3, [r3, #0]
 8001660:	6919      	ldr	r1, [r3, #16]
 8001662:	683b      	ldr	r3, [r7, #0]
 8001664:	689a      	ldr	r2, [r3, #8]
 8001666:	683b      	ldr	r3, [r7, #0]
 8001668:	681b      	ldr	r3, [r3, #0]
 800166a:	b29b      	uxth	r3, r3
 800166c:	4618      	mov	r0, r3
 800166e:	4603      	mov	r3, r0
 8001670:	005b      	lsls	r3, r3, #1
 8001672:	4403      	add	r3, r0
 8001674:	409a      	lsls	r2, r3
 8001676:	687b      	ldr	r3, [r7, #4]
 8001678:	681b      	ldr	r3, [r3, #0]
 800167a:	430a      	orrs	r2, r1
 800167c:	611a      	str	r2, [r3, #16]
  }
  
  /* For Rank 1 to 6 */
  if (sConfig->Rank < 7U)
 800167e:	683b      	ldr	r3, [r7, #0]
 8001680:	685b      	ldr	r3, [r3, #4]
 8001682:	2b06      	cmp	r3, #6
 8001684:	d824      	bhi.n	80016d0 <HAL_ADC_ConfigChannel+0x110>
  {
    /* Clear the old SQx bits for the selected rank */
    hadc->Instance->SQR3 &= ~ADC_SQR3_RK(ADC_SQR3_SQ1, sConfig->Rank);
 8001686:	687b      	ldr	r3, [r7, #4]
 8001688:	681b      	ldr	r3, [r3, #0]
 800168a:	6b59      	ldr	r1, [r3, #52]	; 0x34
 800168c:	683b      	ldr	r3, [r7, #0]
 800168e:	685a      	ldr	r2, [r3, #4]
 8001690:	4613      	mov	r3, r2
 8001692:	009b      	lsls	r3, r3, #2
 8001694:	4413      	add	r3, r2
 8001696:	3b05      	subs	r3, #5
 8001698:	221f      	movs	r2, #31
 800169a:	fa02 f303 	lsl.w	r3, r2, r3
 800169e:	43da      	mvns	r2, r3
 80016a0:	687b      	ldr	r3, [r7, #4]
 80016a2:	681b      	ldr	r3, [r3, #0]
 80016a4:	400a      	ands	r2, r1
 80016a6:	635a      	str	r2, [r3, #52]	; 0x34
    
    /* Set the SQx bits for the selected rank */
    hadc->Instance->SQR3 |= ADC_SQR3_RK(sConfig->Channel, sConfig->Rank);
 80016a8:	687b      	ldr	r3, [r7, #4]
 80016aa:	681b      	ldr	r3, [r3, #0]
 80016ac:	6b59      	ldr	r1, [r3, #52]	; 0x34
 80016ae:	683b      	ldr	r3, [r7, #0]
 80016b0:	681b      	ldr	r3, [r3, #0]
 80016b2:	b29b      	uxth	r3, r3
 80016b4:	4618      	mov	r0, r3
 80016b6:	683b      	ldr	r3, [r7, #0]
 80016b8:	685a      	ldr	r2, [r3, #4]
 80016ba:	4613      	mov	r3, r2
 80016bc:	009b      	lsls	r3, r3, #2
 80016be:	4413      	add	r3, r2
 80016c0:	3b05      	subs	r3, #5
 80016c2:	fa00 f203 	lsl.w	r2, r0, r3
 80016c6:	687b      	ldr	r3, [r7, #4]
 80016c8:	681b      	ldr	r3, [r3, #0]
 80016ca:	430a      	orrs	r2, r1
 80016cc:	635a      	str	r2, [r3, #52]	; 0x34
 80016ce:	e04c      	b.n	800176a <HAL_ADC_ConfigChannel+0x1aa>
  }
  /* For Rank 7 to 12 */
  else if (sConfig->Rank < 13U)
 80016d0:	683b      	ldr	r3, [r7, #0]
 80016d2:	685b      	ldr	r3, [r3, #4]
 80016d4:	2b0c      	cmp	r3, #12
 80016d6:	d824      	bhi.n	8001722 <HAL_ADC_ConfigChannel+0x162>
  {
    /* Clear the old SQx bits for the selected rank */
    hadc->Instance->SQR2 &= ~ADC_SQR2_RK(ADC_SQR2_SQ7, sConfig->Rank);
 80016d8:	687b      	ldr	r3, [r7, #4]
 80016da:	681b      	ldr	r3, [r3, #0]
 80016dc:	6b19      	ldr	r1, [r3, #48]	; 0x30
 80016de:	683b      	ldr	r3, [r7, #0]
 80016e0:	685a      	ldr	r2, [r3, #4]
 80016e2:	4613      	mov	r3, r2
 80016e4:	009b      	lsls	r3, r3, #2
 80016e6:	4413      	add	r3, r2
 80016e8:	3b23      	subs	r3, #35	; 0x23
 80016ea:	221f      	movs	r2, #31
 80016ec:	fa02 f303 	lsl.w	r3, r2, r3
 80016f0:	43da      	mvns	r2, r3
 80016f2:	687b      	ldr	r3, [r7, #4]
 80016f4:	681b      	ldr	r3, [r3, #0]
 80016f6:	400a      	ands	r2, r1
 80016f8:	631a      	str	r2, [r3, #48]	; 0x30
    
    /* Set the SQx bits for the selected rank */
    hadc->Instance->SQR2 |= ADC_SQR2_RK(sConfig->Channel, sConfig->Rank);
 80016fa:	687b      	ldr	r3, [r7, #4]
 80016fc:	681b      	ldr	r3, [r3, #0]
 80016fe:	6b19      	ldr	r1, [r3, #48]	; 0x30
 8001700:	683b      	ldr	r3, [r7, #0]
 8001702:	681b      	ldr	r3, [r3, #0]
 8001704:	b29b      	uxth	r3, r3
 8001706:	4618      	mov	r0, r3
 8001708:	683b      	ldr	r3, [r7, #0]
 800170a:	685a      	ldr	r2, [r3, #4]
 800170c:	4613      	mov	r3, r2
 800170e:	009b      	lsls	r3, r3, #2
 8001710:	4413      	add	r3, r2
 8001712:	3b23      	subs	r3, #35	; 0x23
 8001714:	fa00 f203 	lsl.w	r2, r0, r3
 8001718:	687b      	ldr	r3, [r7, #4]
 800171a:	681b      	ldr	r3, [r3, #0]
 800171c:	430a      	orrs	r2, r1
 800171e:	631a      	str	r2, [r3, #48]	; 0x30
 8001720:	e023      	b.n	800176a <HAL_ADC_ConfigChannel+0x1aa>
  }
  /* For Rank 13 to 16 */
  else
  {
    /* Clear the old SQx bits for the selected rank */
    hadc->Instance->SQR1 &= ~ADC_SQR1_RK(ADC_SQR1_SQ13, sConfig->Rank);
 8001722:	687b      	ldr	r3, [r7, #4]
 8001724:	681b      	ldr	r3, [r3, #0]
 8001726:	6ad9      	ldr	r1, [r3, #44]	; 0x2c
 8001728:	683b      	ldr	r3, [r7, #0]
 800172a:	685a      	ldr	r2, [r3, #4]
 800172c:	4613      	mov	r3, r2
 800172e:	009b      	lsls	r3, r3, #2
 8001730:	4413      	add	r3, r2
 8001732:	3b41      	subs	r3, #65	; 0x41
 8001734:	221f      	movs	r2, #31
 8001736:	fa02 f303 	lsl.w	r3, r2, r3
 800173a:	43da      	mvns	r2, r3
 800173c:	687b      	ldr	r3, [r7, #4]
 800173e:	681b      	ldr	r3, [r3, #0]
 8001740:	400a      	ands	r2, r1
 8001742:	62da      	str	r2, [r3, #44]	; 0x2c
    
    /* Set the SQx bits for the selected rank */
    hadc->Instance->SQR1 |= ADC_SQR1_RK(sConfig->Channel, sConfig->Rank);
 8001744:	687b      	ldr	r3, [r7, #4]
 8001746:	681b      	ldr	r3, [r3, #0]
 8001748:	6ad9      	ldr	r1, [r3, #44]	; 0x2c
 800174a:	683b      	ldr	r3, [r7, #0]
 800174c:	681b      	ldr	r3, [r3, #0]
 800174e:	b29b      	uxth	r3, r3
 8001750:	4618      	mov	r0, r3
 8001752:	683b      	ldr	r3, [r7, #0]
 8001754:	685a      	ldr	r2, [r3, #4]
 8001756:	4613      	mov	r3, r2
 8001758:	009b      	lsls	r3, r3, #2
 800175a:	4413      	add	r3, r2
 800175c:	3b41      	subs	r3, #65	; 0x41
 800175e:	fa00 f203 	lsl.w	r2, r0, r3
 8001762:	687b      	ldr	r3, [r7, #4]
 8001764:	681b      	ldr	r3, [r3, #0]
 8001766:	430a      	orrs	r2, r1
 8001768:	62da      	str	r2, [r3, #44]	; 0x2c
  }

    /* Pointer to the common control register to which is belonging hadc    */
    /* (Depending on STM32F4 product, there may be up to 3 ADCs and 1 common */
    /* control register)                                                    */
    tmpADC_Common = ADC_COMMON_REGISTER(hadc);
 800176a:	4b22      	ldr	r3, [pc, #136]	; (80017f4 <HAL_ADC_ConfigChannel+0x234>)
 800176c:	60fb      	str	r3, [r7, #12]

  /* if ADC1 Channel_18 is selected for VBAT Channel ennable VBATE */
  if ((hadc->Instance == ADC1) && (sConfig->Channel == ADC_CHANNEL_VBAT))
 800176e:	687b      	ldr	r3, [r7, #4]
 8001770:	681b      	ldr	r3, [r3, #0]
 8001772:	4a21      	ldr	r2, [pc, #132]	; (80017f8 <HAL_ADC_ConfigChannel+0x238>)
 8001774:	4293      	cmp	r3, r2
 8001776:	d109      	bne.n	800178c <HAL_ADC_ConfigChannel+0x1cc>
 8001778:	683b      	ldr	r3, [r7, #0]
 800177a:	681b      	ldr	r3, [r3, #0]
 800177c:	2b12      	cmp	r3, #18
 800177e:	d105      	bne.n	800178c <HAL_ADC_ConfigChannel+0x1cc>
    if ((uint16_t)ADC_CHANNEL_TEMPSENSOR == (uint16_t)ADC_CHANNEL_VBAT)
    {
      tmpADC_Common->CCR &= ~ADC_CCR_TSVREFE;
    }
    /* Enable the VBAT channel*/
    tmpADC_Common->CCR |= ADC_CCR_VBATE;
 8001780:	68fb      	ldr	r3, [r7, #12]
 8001782:	685b      	ldr	r3, [r3, #4]
 8001784:	f443 0280 	orr.w	r2, r3, #4194304	; 0x400000
 8001788:	68fb      	ldr	r3, [r7, #12]
 800178a:	605a      	str	r2, [r3, #4]
  }
  
  /* if ADC1 Channel_16 or Channel_18 is selected for Temperature sensor or 
     Channel_17 is selected for VREFINT enable TSVREFE */
  if ((hadc->Instance == ADC1) && ((sConfig->Channel == ADC_CHANNEL_TEMPSENSOR) || (sConfig->Channel == ADC_CHANNEL_VREFINT)))
 800178c:	687b      	ldr	r3, [r7, #4]
 800178e:	681b      	ldr	r3, [r3, #0]
 8001790:	4a19      	ldr	r2, [pc, #100]	; (80017f8 <HAL_ADC_ConfigChannel+0x238>)
 8001792:	4293      	cmp	r3, r2
 8001794:	d123      	bne.n	80017de <HAL_ADC_ConfigChannel+0x21e>
 8001796:	683b      	ldr	r3, [r7, #0]
 8001798:	681b      	ldr	r3, [r3, #0]
 800179a:	2b10      	cmp	r3, #16
 800179c:	d003      	beq.n	80017a6 <HAL_ADC_ConfigChannel+0x1e6>
 800179e:	683b      	ldr	r3, [r7, #0]
 80017a0:	681b      	ldr	r3, [r3, #0]
 80017a2:	2b11      	cmp	r3, #17
 80017a4:	d11b      	bne.n	80017de <HAL_ADC_ConfigChannel+0x21e>
    if ((uint16_t)ADC_CHANNEL_TEMPSENSOR == (uint16_t)ADC_CHANNEL_VBAT)
    {
      tmpADC_Common->CCR &= ~ADC_CCR_VBATE;
    }
    /* Enable the Temperature sensor and VREFINT channel*/
    tmpADC_Common->CCR |= ADC_CCR_TSVREFE;
 80017a6:	68fb      	ldr	r3, [r7, #12]
 80017a8:	685b      	ldr	r3, [r3, #4]
 80017aa:	f443 0200 	orr.w	r2, r3, #8388608	; 0x800000
 80017ae:	68fb      	ldr	r3, [r7, #12]
 80017b0:	605a      	str	r2, [r3, #4]
    
    if(sConfig->Channel == ADC_CHANNEL_TEMPSENSOR)
 80017b2:	683b      	ldr	r3, [r7, #0]
 80017b4:	681b      	ldr	r3, [r3, #0]
 80017b6:	2b10      	cmp	r3, #16
 80017b8:	d111      	bne.n	80017de <HAL_ADC_ConfigChannel+0x21e>
    {
      /* Delay for temperature sensor stabilization time */
      /* Compute number of CPU cycles to wait for */
      counter = (ADC_TEMPSENSOR_DELAY_US * (SystemCoreClock / 1000000U));
 80017ba:	4b10      	ldr	r3, [pc, #64]	; (80017fc <HAL_ADC_ConfigChannel+0x23c>)
 80017bc:	681b      	ldr	r3, [r3, #0]
 80017be:	4a10      	ldr	r2, [pc, #64]	; (8001800 <HAL_ADC_ConfigChannel+0x240>)
 80017c0:	fba2 2303 	umull	r2, r3, r2, r3
 80017c4:	0c9a      	lsrs	r2, r3, #18
 80017c6:	4613      	mov	r3, r2
 80017c8:	009b      	lsls	r3, r3, #2
 80017ca:	4413      	add	r3, r2
 80017cc:	005b      	lsls	r3, r3, #1
 80017ce:	60bb      	str	r3, [r7, #8]
      while(counter != 0U)
 80017d0:	e002      	b.n	80017d8 <HAL_ADC_ConfigChannel+0x218>
      {
        counter--;
 80017d2:	68bb      	ldr	r3, [r7, #8]
 80017d4:	3b01      	subs	r3, #1
 80017d6:	60bb      	str	r3, [r7, #8]
      while(counter != 0U)
 80017d8:	68bb      	ldr	r3, [r7, #8]
 80017da:	2b00      	cmp	r3, #0
 80017dc:	d1f9      	bne.n	80017d2 <HAL_ADC_ConfigChannel+0x212>
      }
    }
  }
  
  /* Process unlocked */
  __HAL_UNLOCK(hadc);
 80017de:	687b      	ldr	r3, [r7, #4]
 80017e0:	2200      	movs	r2, #0
 80017e2:	f883 203c 	strb.w	r2, [r3, #60]	; 0x3c
  
  /* Return function status */
  return HAL_OK;
 80017e6:	2300      	movs	r3, #0
}
 80017e8:	4618      	mov	r0, r3
 80017ea:	3714      	adds	r7, #20
 80017ec:	46bd      	mov	sp, r7
 80017ee:	f85d 7b04 	ldr.w	r7, [sp], #4
 80017f2:	4770      	bx	lr
 80017f4:	40012300 	.word	0x40012300
 80017f8:	40012000 	.word	0x40012000
 80017fc:	20000004 	.word	0x20000004
 8001800:	431bde83 	.word	0x431bde83

08001804 <ADC_Init>:
  * @param  hadc pointer to a ADC_HandleTypeDef structure that contains
  *         the configuration information for the specified ADC.  
  * @retval None
  */
static void ADC_Init(ADC_HandleTypeDef* hadc)
{
 8001804:	b480      	push	{r7}
 8001806:	b085      	sub	sp, #20
 8001808:	af00      	add	r7, sp, #0
 800180a:	6078      	str	r0, [r7, #4]
  
  /* Set ADC parameters */
  /* Pointer to the common control register to which is belonging hadc    */
  /* (Depending on STM32F4 product, there may be up to 3 ADCs and 1 common */
  /* control register)                                                    */
  tmpADC_Common = ADC_COMMON_REGISTER(hadc);
 800180c:	4b79      	ldr	r3, [pc, #484]	; (80019f4 <ADC_Init+0x1f0>)
 800180e:	60fb      	str	r3, [r7, #12]
  
  /* Set the ADC clock prescaler */
  tmpADC_Common->CCR &= ~(ADC_CCR_ADCPRE);
 8001810:	68fb      	ldr	r3, [r7, #12]
 8001812:	685b      	ldr	r3, [r3, #4]
 8001814:	f423 3240 	bic.w	r2, r3, #196608	; 0x30000
 8001818:	68fb      	ldr	r3, [r7, #12]
 800181a:	605a      	str	r2, [r3, #4]
  tmpADC_Common->CCR |=  hadc->Init.ClockPrescaler;
 800181c:	68fb      	ldr	r3, [r7, #12]
 800181e:	685a      	ldr	r2, [r3, #4]
 8001820:	687b      	ldr	r3, [r7, #4]
 8001822:	685b      	ldr	r3, [r3, #4]
 8001824:	431a      	orrs	r2, r3
 8001826:	68fb      	ldr	r3, [r7, #12]
 8001828:	605a      	str	r2, [r3, #4]
  
  /* Set ADC scan mode */
  hadc->Instance->CR1 &= ~(ADC_CR1_SCAN);
 800182a:	687b      	ldr	r3, [r7, #4]
 800182c:	681b      	ldr	r3, [r3, #0]
 800182e:	685a      	ldr	r2, [r3, #4]
 8001830:	687b      	ldr	r3, [r7, #4]
 8001832:	681b      	ldr	r3, [r3, #0]
 8001834:	f422 7280 	bic.w	r2, r2, #256	; 0x100
 8001838:	605a      	str	r2, [r3, #4]
  hadc->Instance->CR1 |=  ADC_CR1_SCANCONV(hadc->Init.ScanConvMode);
 800183a:	687b      	ldr	r3, [r7, #4]
 800183c:	681b      	ldr	r3, [r3, #0]
 800183e:	6859      	ldr	r1, [r3, #4]
 8001840:	687b      	ldr	r3, [r7, #4]
 8001842:	691b      	ldr	r3, [r3, #16]
 8001844:	021a      	lsls	r2, r3, #8
 8001846:	687b      	ldr	r3, [r7, #4]
 8001848:	681b      	ldr	r3, [r3, #0]
 800184a:	430a      	orrs	r2, r1
 800184c:	605a      	str	r2, [r3, #4]
  
  /* Set ADC resolution */
  hadc->Instance->CR1 &= ~(ADC_CR1_RES);
 800184e:	687b      	ldr	r3, [r7, #4]
 8001850:	681b      	ldr	r3, [r3, #0]
 8001852:	685a      	ldr	r2, [r3, #4]
 8001854:	687b      	ldr	r3, [r7, #4]
 8001856:	681b      	ldr	r3, [r3, #0]
 8001858:	f022 7240 	bic.w	r2, r2, #50331648	; 0x3000000
 800185c:	605a      	str	r2, [r3, #4]
  hadc->Instance->CR1 |=  hadc->Init.Resolution;
 800185e:	687b      	ldr	r3, [r7, #4]
 8001860:	681b      	ldr	r3, [r3, #0]
 8001862:	6859      	ldr	r1, [r3, #4]
 8001864:	687b      	ldr	r3, [r7, #4]
 8001866:	689a      	ldr	r2, [r3, #8]
 8001868:	687b      	ldr	r3, [r7, #4]
 800186a:	681b      	ldr	r3, [r3, #0]
 800186c:	430a      	orrs	r2, r1
 800186e:	605a      	str	r2, [r3, #4]
  
  /* Set ADC data alignment */
  hadc->Instance->CR2 &= ~(ADC_CR2_ALIGN);
 8001870:	687b      	ldr	r3, [r7, #4]
 8001872:	681b      	ldr	r3, [r3, #0]
 8001874:	689a      	ldr	r2, [r3, #8]
 8001876:	687b      	ldr	r3, [r7, #4]
 8001878:	681b      	ldr	r3, [r3, #0]
 800187a:	f422 6200 	bic.w	r2, r2, #2048	; 0x800
 800187e:	609a      	str	r2, [r3, #8]
  hadc->Instance->CR2 |= hadc->Init.DataAlign;
 8001880:	687b      	ldr	r3, [r7, #4]
 8001882:	681b      	ldr	r3, [r3, #0]
 8001884:	6899      	ldr	r1, [r3, #8]
 8001886:	687b      	ldr	r3, [r7, #4]
 8001888:	68da      	ldr	r2, [r3, #12]
 800188a:	687b      	ldr	r3, [r7, #4]
 800188c:	681b      	ldr	r3, [r3, #0]
 800188e:	430a      	orrs	r2, r1
 8001890:	609a      	str	r2, [r3, #8]
  /* Enable external trigger if trigger selection is different of software  */
  /* start.                                                                 */
  /* Note: This configuration keeps the hardware feature of parameter       */
  /*       ExternalTrigConvEdge "trigger edge none" equivalent to           */
  /*       software start.                                                  */
  if(hadc->Init.ExternalTrigConv != ADC_SOFTWARE_START)
 8001892:	687b      	ldr	r3, [r7, #4]
 8001894:	6a9b      	ldr	r3, [r3, #40]	; 0x28
 8001896:	4a58      	ldr	r2, [pc, #352]	; (80019f8 <ADC_Init+0x1f4>)
 8001898:	4293      	cmp	r3, r2
 800189a:	d022      	beq.n	80018e2 <ADC_Init+0xde>
  {
    /* Select external trigger to start conversion */
    hadc->Instance->CR2 &= ~(ADC_CR2_EXTSEL);
 800189c:	687b      	ldr	r3, [r7, #4]
 800189e:	681b      	ldr	r3, [r3, #0]
 80018a0:	689a      	ldr	r2, [r3, #8]
 80018a2:	687b      	ldr	r3, [r7, #4]
 80018a4:	681b      	ldr	r3, [r3, #0]
 80018a6:	f022 6270 	bic.w	r2, r2, #251658240	; 0xf000000
 80018aa:	609a      	str	r2, [r3, #8]
    hadc->Instance->CR2 |= hadc->Init.ExternalTrigConv;
 80018ac:	687b      	ldr	r3, [r7, #4]
 80018ae:	681b      	ldr	r3, [r3, #0]
 80018b0:	6899      	ldr	r1, [r3, #8]
 80018b2:	687b      	ldr	r3, [r7, #4]
 80018b4:	6a9a      	ldr	r2, [r3, #40]	; 0x28
 80018b6:	687b      	ldr	r3, [r7, #4]
 80018b8:	681b      	ldr	r3, [r3, #0]
 80018ba:	430a      	orrs	r2, r1
 80018bc:	609a      	str	r2, [r3, #8]
    
    /* Select external trigger polarity */
    hadc->Instance->CR2 &= ~(ADC_CR2_EXTEN);
 80018be:	687b      	ldr	r3, [r7, #4]
 80018c0:	681b      	ldr	r3, [r3, #0]
 80018c2:	689a      	ldr	r2, [r3, #8]
 80018c4:	687b      	ldr	r3, [r7, #4]
 80018c6:	681b      	ldr	r3, [r3, #0]
 80018c8:	f022 5240 	bic.w	r2, r2, #805306368	; 0x30000000
 80018cc:	609a      	str	r2, [r3, #8]
    hadc->Instance->CR2 |= hadc->Init.ExternalTrigConvEdge;
 80018ce:	687b      	ldr	r3, [r7, #4]
 80018d0:	681b      	ldr	r3, [r3, #0]
 80018d2:	6899      	ldr	r1, [r3, #8]
 80018d4:	687b      	ldr	r3, [r7, #4]
 80018d6:	6ada      	ldr	r2, [r3, #44]	; 0x2c
 80018d8:	687b      	ldr	r3, [r7, #4]
 80018da:	681b      	ldr	r3, [r3, #0]
 80018dc:	430a      	orrs	r2, r1
 80018de:	609a      	str	r2, [r3, #8]
 80018e0:	e00f      	b.n	8001902 <ADC_Init+0xfe>
  }
  else
  {
    /* Reset the external trigger */
    hadc->Instance->CR2 &= ~(ADC_CR2_EXTSEL);
 80018e2:	687b      	ldr	r3, [r7, #4]
 80018e4:	681b      	ldr	r3, [r3, #0]
 80018e6:	689a      	ldr	r2, [r3, #8]
 80018e8:	687b      	ldr	r3, [r7, #4]
 80018ea:	681b      	ldr	r3, [r3, #0]
 80018ec:	f022 6270 	bic.w	r2, r2, #251658240	; 0xf000000
 80018f0:	609a      	str	r2, [r3, #8]
    hadc->Instance->CR2 &= ~(ADC_CR2_EXTEN);
 80018f2:	687b      	ldr	r3, [r7, #4]
 80018f4:	681b      	ldr	r3, [r3, #0]
 80018f6:	689a      	ldr	r2, [r3, #8]
 80018f8:	687b      	ldr	r3, [r7, #4]
 80018fa:	681b      	ldr	r3, [r3, #0]
 80018fc:	f022 5240 	bic.w	r2, r2, #805306368	; 0x30000000
 8001900:	609a      	str	r2, [r3, #8]
  }
  
  /* Enable or disable ADC continuous conversion mode */
  hadc->Instance->CR2 &= ~(ADC_CR2_CONT);
 8001902:	687b      	ldr	r3, [r7, #4]
 8001904:	681b      	ldr	r3, [r3, #0]
 8001906:	689a      	ldr	r2, [r3, #8]
 8001908:	687b      	ldr	r3, [r7, #4]
 800190a:	681b      	ldr	r3, [r3, #0]
 800190c:	f022 0202 	bic.w	r2, r2, #2
 8001910:	609a      	str	r2, [r3, #8]
  hadc->Instance->CR2 |= ADC_CR2_CONTINUOUS((uint32_t)hadc->Init.ContinuousConvMode);
 8001912:	687b      	ldr	r3, [r7, #4]
 8001914:	681b      	ldr	r3, [r3, #0]
 8001916:	6899      	ldr	r1, [r3, #8]
 8001918:	687b      	ldr	r3, [r7, #4]
 800191a:	7e1b      	ldrb	r3, [r3, #24]
 800191c:	005a      	lsls	r2, r3, #1
 800191e:	687b      	ldr	r3, [r7, #4]
 8001920:	681b      	ldr	r3, [r3, #0]
 8001922:	430a      	orrs	r2, r1
 8001924:	609a      	str	r2, [r3, #8]
  
  if(hadc->Init.DiscontinuousConvMode != DISABLE)
 8001926:	687b      	ldr	r3, [r7, #4]
 8001928:	f893 3020 	ldrb.w	r3, [r3, #32]
 800192c:	2b00      	cmp	r3, #0
 800192e:	d01b      	beq.n	8001968 <ADC_Init+0x164>
  {
    assert_param(IS_ADC_REGULAR_DISC_NUMBER(hadc->Init.NbrOfDiscConversion));
  
    /* Enable the selected ADC regular discontinuous mode */
    hadc->Instance->CR1 |= (uint32_t)ADC_CR1_DISCEN;
 8001930:	687b      	ldr	r3, [r7, #4]
 8001932:	681b      	ldr	r3, [r3, #0]
 8001934:	685a      	ldr	r2, [r3, #4]
 8001936:	687b      	ldr	r3, [r7, #4]
 8001938:	681b      	ldr	r3, [r3, #0]
 800193a:	f442 6200 	orr.w	r2, r2, #2048	; 0x800
 800193e:	605a      	str	r2, [r3, #4]
    
    /* Set the number of channels to be converted in discontinuous mode */
    hadc->Instance->CR1 &= ~(ADC_CR1_DISCNUM);
 8001940:	687b      	ldr	r3, [r7, #4]
 8001942:	681b      	ldr	r3, [r3, #0]
 8001944:	685a      	ldr	r2, [r3, #4]
 8001946:	687b      	ldr	r3, [r7, #4]
 8001948:	681b      	ldr	r3, [r3, #0]
 800194a:	f422 4260 	bic.w	r2, r2, #57344	; 0xe000
 800194e:	605a      	str	r2, [r3, #4]
    hadc->Instance->CR1 |=  ADC_CR1_DISCONTINUOUS(hadc->Init.NbrOfDiscConversion);
 8001950:	687b      	ldr	r3, [r7, #4]
 8001952:	681b      	ldr	r3, [r3, #0]
 8001954:	6859      	ldr	r1, [r3, #4]
 8001956:	687b      	ldr	r3, [r7, #4]
 8001958:	6a5b      	ldr	r3, [r3, #36]	; 0x24
 800195a:	3b01      	subs	r3, #1
 800195c:	035a      	lsls	r2, r3, #13
 800195e:	687b      	ldr	r3, [r7, #4]
 8001960:	681b      	ldr	r3, [r3, #0]
 8001962:	430a      	orrs	r2, r1
 8001964:	605a      	str	r2, [r3, #4]
 8001966:	e007      	b.n	8001978 <ADC_Init+0x174>
  }
  else
  {
    /* Disable the selected ADC regular discontinuous mode */
    hadc->Instance->CR1 &= ~(ADC_CR1_DISCEN);
 8001968:	687b      	ldr	r3, [r7, #4]
 800196a:	681b      	ldr	r3, [r3, #0]
 800196c:	685a      	ldr	r2, [r3, #4]
 800196e:	687b      	ldr	r3, [r7, #4]
 8001970:	681b      	ldr	r3, [r3, #0]
 8001972:	f422 6200 	bic.w	r2, r2, #2048	; 0x800
 8001976:	605a      	str	r2, [r3, #4]
  }
  
  /* Set ADC number of conversion */
  hadc->Instance->SQR1 &= ~(ADC_SQR1_L);
 8001978:	687b      	ldr	r3, [r7, #4]
 800197a:	681b      	ldr	r3, [r3, #0]
 800197c:	6ada      	ldr	r2, [r3, #44]	; 0x2c
 800197e:	687b      	ldr	r3, [r7, #4]
 8001980:	681b      	ldr	r3, [r3, #0]
 8001982:	f422 0270 	bic.w	r2, r2, #15728640	; 0xf00000
 8001986:	62da      	str	r2, [r3, #44]	; 0x2c
  hadc->Instance->SQR1 |=  ADC_SQR1(hadc->Init.NbrOfConversion);
 8001988:	687b      	ldr	r3, [r7, #4]
 800198a:	681b      	ldr	r3, [r3, #0]
 800198c:	6ad9      	ldr	r1, [r3, #44]	; 0x2c
 800198e:	687b      	ldr	r3, [r7, #4]
 8001990:	69db      	ldr	r3, [r3, #28]
 8001992:	3b01      	subs	r3, #1
 8001994:	051a      	lsls	r2, r3, #20
 8001996:	687b      	ldr	r3, [r7, #4]
 8001998:	681b      	ldr	r3, [r3, #0]
 800199a:	430a      	orrs	r2, r1
 800199c:	62da      	str	r2, [r3, #44]	; 0x2c
  
  /* Enable or disable ADC DMA continuous request */
  hadc->Instance->CR2 &= ~(ADC_CR2_DDS);
 800199e:	687b      	ldr	r3, [r7, #4]
 80019a0:	681b      	ldr	r3, [r3, #0]
 80019a2:	689a      	ldr	r2, [r3, #8]
 80019a4:	687b      	ldr	r3, [r7, #4]
 80019a6:	681b      	ldr	r3, [r3, #0]
 80019a8:	f422 7200 	bic.w	r2, r2, #512	; 0x200
 80019ac:	609a      	str	r2, [r3, #8]
  hadc->Instance->CR2 |= ADC_CR2_DMAContReq((uint32_t)hadc->Init.DMAContinuousRequests);
 80019ae:	687b      	ldr	r3, [r7, #4]
 80019b0:	681b      	ldr	r3, [r3, #0]
 80019b2:	6899      	ldr	r1, [r3, #8]
 80019b4:	687b      	ldr	r3, [r7, #4]
 80019b6:	f893 3030 	ldrb.w	r3, [r3, #48]	; 0x30
 80019ba:	025a      	lsls	r2, r3, #9
 80019bc:	687b      	ldr	r3, [r7, #4]
 80019be:	681b      	ldr	r3, [r3, #0]
 80019c0:	430a      	orrs	r2, r1
 80019c2:	609a      	str	r2, [r3, #8]
  
  /* Enable or disable ADC end of conversion selection */
  hadc->Instance->CR2 &= ~(ADC_CR2_EOCS);
 80019c4:	687b      	ldr	r3, [r7, #4]
 80019c6:	681b      	ldr	r3, [r3, #0]
 80019c8:	689a      	ldr	r2, [r3, #8]
 80019ca:	687b      	ldr	r3, [r7, #4]
 80019cc:	681b      	ldr	r3, [r3, #0]
 80019ce:	f422 6280 	bic.w	r2, r2, #1024	; 0x400
 80019d2:	609a      	str	r2, [r3, #8]
  hadc->Instance->CR2 |= ADC_CR2_EOCSelection(hadc->Init.EOCSelection);
 80019d4:	687b      	ldr	r3, [r7, #4]
 80019d6:	681b      	ldr	r3, [r3, #0]
 80019d8:	6899      	ldr	r1, [r3, #8]
 80019da:	687b      	ldr	r3, [r7, #4]
 80019dc:	695b      	ldr	r3, [r3, #20]
 80019de:	029a      	lsls	r2, r3, #10
 80019e0:	687b      	ldr	r3, [r7, #4]
 80019e2:	681b      	ldr	r3, [r3, #0]
 80019e4:	430a      	orrs	r2, r1
 80019e6:	609a      	str	r2, [r3, #8]
}
 80019e8:	bf00      	nop
 80019ea:	3714      	adds	r7, #20
 80019ec:	46bd      	mov	sp, r7
 80019ee:	f85d 7b04 	ldr.w	r7, [sp], #4
 80019f2:	4770      	bx	lr
 80019f4:	40012300 	.word	0x40012300
 80019f8:	0f000001 	.word	0x0f000001

080019fc <HAL_ADCEx_InjectedConvCpltCallback>:
  * @param  hadc pointer to a ADC_HandleTypeDef structure that contains
  *         the configuration information for the specified ADC.
  * @retval None
  */
__weak void HAL_ADCEx_InjectedConvCpltCallback(ADC_HandleTypeDef* hadc)
{
 80019fc:	b480      	push	{r7}
 80019fe:	b083      	sub	sp, #12
 8001a00:	af00      	add	r7, sp, #0
 8001a02:	6078      	str	r0, [r7, #4]
  /* Prevent unused argument(s) compilation warning */
  UNUSED(hadc);
  /* NOTE : This function Should not be modified, when the callback is needed,
            the HAL_ADC_InjectedConvCpltCallback could be implemented in the user file
   */
}
 8001a04:	bf00      	nop
 8001a06:	370c      	adds	r7, #12
 8001a08:	46bd      	mov	sp, r7
 8001a0a:	f85d 7b04 	ldr.w	r7, [sp], #4
 8001a0e:	4770      	bx	lr

08001a10 <__NVIC_SetPriorityGrouping>:
           In case of a conflict between priority grouping and available
           priority bits (__NVIC_PRIO_BITS), the smallest possible priority group is set.
  \param [in]      PriorityGroup  Priority grouping field.
 */
__STATIC_INLINE void __NVIC_SetPriorityGrouping(uint32_t PriorityGroup)
{
 8001a10:	b480      	push	{r7}
 8001a12:	b085      	sub	sp, #20
 8001a14:	af00      	add	r7, sp, #0
 8001a16:	6078      	str	r0, [r7, #4]
  uint32_t reg_value;
  uint32_t PriorityGroupTmp = (PriorityGroup & (uint32_t)0x07UL);             /* only values 0..7 are used          */
 8001a18:	687b      	ldr	r3, [r7, #4]
 8001a1a:	f003 0307 	and.w	r3, r3, #7
 8001a1e:	60fb      	str	r3, [r7, #12]

  reg_value  =  SCB->AIRCR;                                                   /* read old register configuration    */
 8001a20:	4b0c      	ldr	r3, [pc, #48]	; (8001a54 <__NVIC_SetPriorityGrouping+0x44>)
 8001a22:	68db      	ldr	r3, [r3, #12]
 8001a24:	60bb      	str	r3, [r7, #8]
  reg_value &= ~((uint32_t)(SCB_AIRCR_VECTKEY_Msk | SCB_AIRCR_PRIGROUP_Msk)); /* clear bits to change               */
 8001a26:	68ba      	ldr	r2, [r7, #8]
 8001a28:	f64f 03ff 	movw	r3, #63743	; 0xf8ff
 8001a2c:	4013      	ands	r3, r2
 8001a2e:	60bb      	str	r3, [r7, #8]
  reg_value  =  (reg_value                                   |
                ((uint32_t)0x5FAUL << SCB_AIRCR_VECTKEY_Pos) |
                (PriorityGroupTmp << SCB_AIRCR_PRIGROUP_Pos)  );              /* Insert write key and priority group */
 8001a30:	68fb      	ldr	r3, [r7, #12]
 8001a32:	021a      	lsls	r2, r3, #8
                ((uint32_t)0x5FAUL << SCB_AIRCR_VECTKEY_Pos) |
 8001a34:	68bb      	ldr	r3, [r7, #8]
 8001a36:	4313      	orrs	r3, r2
  reg_value  =  (reg_value                                   |
 8001a38:	f043 63bf 	orr.w	r3, r3, #100139008	; 0x5f80000
 8001a3c:	f443 3300 	orr.w	r3, r3, #131072	; 0x20000
 8001a40:	60bb      	str	r3, [r7, #8]
  SCB->AIRCR =  reg_value;
 8001a42:	4a04      	ldr	r2, [pc, #16]	; (8001a54 <__NVIC_SetPriorityGrouping+0x44>)
 8001a44:	68bb      	ldr	r3, [r7, #8]
 8001a46:	60d3      	str	r3, [r2, #12]
}
 8001a48:	bf00      	nop
 8001a4a:	3714      	adds	r7, #20
 8001a4c:	46bd      	mov	sp, r7
 8001a4e:	f85d 7b04 	ldr.w	r7, [sp], #4
 8001a52:	4770      	bx	lr
 8001a54:	e000ed00 	.word	0xe000ed00

08001a58 <__NVIC_GetPriorityGrouping>:
  \brief   Get Priority Grouping
  \details Reads the priority grouping field from the NVIC Interrupt Controller.
  \return                Priority grouping field (SCB->AIRCR [10:8] PRIGROUP field).
 */
__STATIC_INLINE uint32_t __NVIC_GetPriorityGrouping(void)
{
 8001a58:	b480      	push	{r7}
 8001a5a:	af00      	add	r7, sp, #0
  return ((uint32_t)((SCB->AIRCR & SCB_AIRCR_PRIGROUP_Msk) >> SCB_AIRCR_PRIGROUP_Pos));
 8001a5c:	4b04      	ldr	r3, [pc, #16]	; (8001a70 <__NVIC_GetPriorityGrouping+0x18>)
 8001a5e:	68db      	ldr	r3, [r3, #12]
 8001a60:	0a1b      	lsrs	r3, r3, #8
 8001a62:	f003 0307 	and.w	r3, r3, #7
}
 8001a66:	4618      	mov	r0, r3
 8001a68:	46bd      	mov	sp, r7
 8001a6a:	f85d 7b04 	ldr.w	r7, [sp], #4
 8001a6e:	4770      	bx	lr
 8001a70:	e000ed00 	.word	0xe000ed00

08001a74 <__NVIC_EnableIRQ>:
  \details Enables a device specific interrupt in the NVIC interrupt controller.
  \param [in]      IRQn  Device specific interrupt number.
  \note    IRQn must not be negative.
 */
__STATIC_INLINE void __NVIC_EnableIRQ(IRQn_Type IRQn)
{
 8001a74:	b480      	push	{r7}
 8001a76:	b083      	sub	sp, #12
 8001a78:	af00      	add	r7, sp, #0
 8001a7a:	4603      	mov	r3, r0
 8001a7c:	71fb      	strb	r3, [r7, #7]
  if ((int32_t)(IRQn) >= 0)
 8001a7e:	f997 3007 	ldrsb.w	r3, [r7, #7]
 8001a82:	2b00      	cmp	r3, #0
 8001a84:	db0b      	blt.n	8001a9e <__NVIC_EnableIRQ+0x2a>
  {
    NVIC->ISER[(((uint32_t)IRQn) >> 5UL)] = (uint32_t)(1UL << (((uint32_t)IRQn) & 0x1FUL));
 8001a86:	79fb      	ldrb	r3, [r7, #7]
 8001a88:	f003 021f 	and.w	r2, r3, #31
 8001a8c:	4907      	ldr	r1, [pc, #28]	; (8001aac <__NVIC_EnableIRQ+0x38>)
 8001a8e:	f997 3007 	ldrsb.w	r3, [r7, #7]
 8001a92:	095b      	lsrs	r3, r3, #5
 8001a94:	2001      	movs	r0, #1
 8001a96:	fa00 f202 	lsl.w	r2, r0, r2
 8001a9a:	f841 2023 	str.w	r2, [r1, r3, lsl #2]
  }
}
 8001a9e:	bf00      	nop
 8001aa0:	370c      	adds	r7, #12
 8001aa2:	46bd      	mov	sp, r7
 8001aa4:	f85d 7b04 	ldr.w	r7, [sp], #4
 8001aa8:	4770      	bx	lr
 8001aaa:	bf00      	nop
 8001aac:	e000e100 	.word	0xe000e100

08001ab0 <__NVIC_SetPriority>:
  \param [in]      IRQn  Interrupt number.
  \param [in]  priority  Priority to set.
  \note    The priority cannot be set for every processor exception.
 */
__STATIC_INLINE void __NVIC_SetPriority(IRQn_Type IRQn, uint32_t priority)
{
 8001ab0:	b480      	push	{r7}
 8001ab2:	b083      	sub	sp, #12
 8001ab4:	af00      	add	r7, sp, #0
 8001ab6:	4603      	mov	r3, r0
 8001ab8:	6039      	str	r1, [r7, #0]
 8001aba:	71fb      	strb	r3, [r7, #7]
  if ((int32_t)(IRQn) >= 0)
 8001abc:	f997 3007 	ldrsb.w	r3, [r7, #7]
 8001ac0:	2b00      	cmp	r3, #0
 8001ac2:	db0a      	blt.n	8001ada <__NVIC_SetPriority+0x2a>
  {
    NVIC->IP[((uint32_t)IRQn)]               = (uint8_t)((priority << (8U - __NVIC_PRIO_BITS)) & (uint32_t)0xFFUL);
 8001ac4:	683b      	ldr	r3, [r7, #0]
 8001ac6:	b2da      	uxtb	r2, r3
 8001ac8:	490c      	ldr	r1, [pc, #48]	; (8001afc <__NVIC_SetPriority+0x4c>)
 8001aca:	f997 3007 	ldrsb.w	r3, [r7, #7]
 8001ace:	0112      	lsls	r2, r2, #4
 8001ad0:	b2d2      	uxtb	r2, r2
 8001ad2:	440b      	add	r3, r1
 8001ad4:	f883 2300 	strb.w	r2, [r3, #768]	; 0x300
  }
  else
  {
    SCB->SHP[(((uint32_t)IRQn) & 0xFUL)-4UL] = (uint8_t)((priority << (8U - __NVIC_PRIO_BITS)) & (uint32_t)0xFFUL);
  }
}
 8001ad8:	e00a      	b.n	8001af0 <__NVIC_SetPriority+0x40>
    SCB->SHP[(((uint32_t)IRQn) & 0xFUL)-4UL] = (uint8_t)((priority << (8U - __NVIC_PRIO_BITS)) & (uint32_t)0xFFUL);
 8001ada:	683b      	ldr	r3, [r7, #0]
 8001adc:	b2da      	uxtb	r2, r3
 8001ade:	4908      	ldr	r1, [pc, #32]	; (8001b00 <__NVIC_SetPriority+0x50>)
 8001ae0:	79fb      	ldrb	r3, [r7, #7]
 8001ae2:	f003 030f 	and.w	r3, r3, #15
 8001ae6:	3b04      	subs	r3, #4
 8001ae8:	0112      	lsls	r2, r2, #4
 8001aea:	b2d2      	uxtb	r2, r2
 8001aec:	440b      	add	r3, r1
 8001aee:	761a      	strb	r2, [r3, #24]
}
 8001af0:	bf00      	nop
 8001af2:	370c      	adds	r7, #12
 8001af4:	46bd      	mov	sp, r7
 8001af6:	f85d 7b04 	ldr.w	r7, [sp], #4
 8001afa:	4770      	bx	lr
 8001afc:	e000e100 	.word	0xe000e100
 8001b00:	e000ed00 	.word	0xe000ed00

08001b04 <NVIC_EncodePriority>:
  \param [in]   PreemptPriority  Preemptive priority value (starting from 0).
  \param [in]       SubPriority  Subpriority value (starting from 0).
  \return                        Encoded priority. Value can be used in the function \ref NVIC_SetPriority().
 */
__STATIC_INLINE uint32_t NVIC_EncodePriority (uint32_t PriorityGroup, uint32_t PreemptPriority, uint32_t SubPriority)
{
 8001b04:	b480      	push	{r7}
 8001b06:	b089      	sub	sp, #36	; 0x24
 8001b08:	af00      	add	r7, sp, #0
 8001b0a:	60f8      	str	r0, [r7, #12]
 8001b0c:	60b9      	str	r1, [r7, #8]
 8001b0e:	607a      	str	r2, [r7, #4]
  uint32_t PriorityGroupTmp = (PriorityGroup & (uint32_t)0x07UL);   /* only values 0..7 are used          */
 8001b10:	68fb      	ldr	r3, [r7, #12]
 8001b12:	f003 0307 	and.w	r3, r3, #7
 8001b16:	61fb      	str	r3, [r7, #28]
  uint32_t PreemptPriorityBits;
  uint32_t SubPriorityBits;

  PreemptPriorityBits = ((7UL - PriorityGroupTmp) > (uint32_t)(__NVIC_PRIO_BITS)) ? (uint32_t)(__NVIC_PRIO_BITS) : (uint32_t)(7UL - PriorityGroupTmp);
 8001b18:	69fb      	ldr	r3, [r7, #28]
 8001b1a:	f1c3 0307 	rsb	r3, r3, #7
 8001b1e:	2b04      	cmp	r3, #4
 8001b20:	bf28      	it	cs
 8001b22:	2304      	movcs	r3, #4
 8001b24:	61bb      	str	r3, [r7, #24]
  SubPriorityBits     = ((PriorityGroupTmp + (uint32_t)(__NVIC_PRIO_BITS)) < (uint32_t)7UL) ? (uint32_t)0UL : (uint32_t)((PriorityGroupTmp - 7UL) + (uint32_t)(__NVIC_PRIO_BITS));
 8001b26:	69fb      	ldr	r3, [r7, #28]
 8001b28:	3304      	adds	r3, #4
 8001b2a:	2b06      	cmp	r3, #6
 8001b2c:	d902      	bls.n	8001b34 <NVIC_EncodePriority+0x30>
 8001b2e:	69fb      	ldr	r3, [r7, #28]
 8001b30:	3b03      	subs	r3, #3
 8001b32:	e000      	b.n	8001b36 <NVIC_EncodePriority+0x32>
 8001b34:	2300      	movs	r3, #0
 8001b36:	617b      	str	r3, [r7, #20]

  return (
           ((PreemptPriority & (uint32_t)((1UL << (PreemptPriorityBits)) - 1UL)) << SubPriorityBits) |
 8001b38:	f04f 32ff 	mov.w	r2, #4294967295
 8001b3c:	69bb      	ldr	r3, [r7, #24]
 8001b3e:	fa02 f303 	lsl.w	r3, r2, r3
 8001b42:	43da      	mvns	r2, r3
 8001b44:	68bb      	ldr	r3, [r7, #8]
 8001b46:	401a      	ands	r2, r3
 8001b48:	697b      	ldr	r3, [r7, #20]
 8001b4a:	409a      	lsls	r2, r3
           ((SubPriority     & (uint32_t)((1UL << (SubPriorityBits    )) - 1UL)))
 8001b4c:	f04f 31ff 	mov.w	r1, #4294967295
 8001b50:	697b      	ldr	r3, [r7, #20]
 8001b52:	fa01 f303 	lsl.w	r3, r1, r3
 8001b56:	43d9      	mvns	r1, r3
 8001b58:	687b      	ldr	r3, [r7, #4]
 8001b5a:	400b      	ands	r3, r1
           ((PreemptPriority & (uint32_t)((1UL << (PreemptPriorityBits)) - 1UL)) << SubPriorityBits) |
 8001b5c:	4313      	orrs	r3, r2
         );
}
 8001b5e:	4618      	mov	r0, r3
 8001b60:	3724      	adds	r7, #36	; 0x24
 8001b62:	46bd      	mov	sp, r7
 8001b64:	f85d 7b04 	ldr.w	r7, [sp], #4
 8001b68:	4770      	bx	lr
	...

08001b6c <SysTick_Config>:
  \note    When the variable <b>__Vendor_SysTickConfig</b> is set to 1, then the
           function <b>SysTick_Config</b> is not included. In this case, the file <b><i>device</i>.h</b>
           must contain a vendor-specific implementation of this function.
 */
__STATIC_INLINE uint32_t SysTick_Config(uint32_t ticks)
{
 8001b6c:	b580      	push	{r7, lr}
 8001b6e:	b082      	sub	sp, #8
 8001b70:	af00      	add	r7, sp, #0
 8001b72:	6078      	str	r0, [r7, #4]
  if ((ticks - 1UL) > SysTick_LOAD_RELOAD_Msk)
 8001b74:	687b      	ldr	r3, [r7, #4]
 8001b76:	3b01      	subs	r3, #1
 8001b78:	f1b3 7f80 	cmp.w	r3, #16777216	; 0x1000000
 8001b7c:	d301      	bcc.n	8001b82 <SysTick_Config+0x16>
  {
    return (1UL);                                                   /* Reload value impossible */
 8001b7e:	2301      	movs	r3, #1
 8001b80:	e00f      	b.n	8001ba2 <SysTick_Config+0x36>
  }

  SysTick->LOAD  = (uint32_t)(ticks - 1UL);                         /* set reload register */
 8001b82:	4a0a      	ldr	r2, [pc, #40]	; (8001bac <SysTick_Config+0x40>)
 8001b84:	687b      	ldr	r3, [r7, #4]
 8001b86:	3b01      	subs	r3, #1
 8001b88:	6053      	str	r3, [r2, #4]
  NVIC_SetPriority (SysTick_IRQn, (1UL << __NVIC_PRIO_BITS) - 1UL); /* set Priority for Systick Interrupt */
 8001b8a:	210f      	movs	r1, #15
 8001b8c:	f04f 30ff 	mov.w	r0, #4294967295
 8001b90:	f7ff ff8e 	bl	8001ab0 <__NVIC_SetPriority>
  SysTick->VAL   = 0UL;                                             /* Load the SysTick Counter Value */
 8001b94:	4b05      	ldr	r3, [pc, #20]	; (8001bac <SysTick_Config+0x40>)
 8001b96:	2200      	movs	r2, #0
 8001b98:	609a      	str	r2, [r3, #8]
  SysTick->CTRL  = SysTick_CTRL_CLKSOURCE_Msk |
 8001b9a:	4b04      	ldr	r3, [pc, #16]	; (8001bac <SysTick_Config+0x40>)
 8001b9c:	2207      	movs	r2, #7
 8001b9e:	601a      	str	r2, [r3, #0]
                   SysTick_CTRL_TICKINT_Msk   |
                   SysTick_CTRL_ENABLE_Msk;                         /* Enable SysTick IRQ and SysTick Timer */
  return (0UL);                                                     /* Function successful */
 8001ba0:	2300      	movs	r3, #0
}
 8001ba2:	4618      	mov	r0, r3
 8001ba4:	3708      	adds	r7, #8
 8001ba6:	46bd      	mov	sp, r7
 8001ba8:	bd80      	pop	{r7, pc}
 8001baa:	bf00      	nop
 8001bac:	e000e010 	.word	0xe000e010

08001bb0 <HAL_NVIC_SetPriorityGrouping>:
  * @note   When the NVIC_PriorityGroup_0 is selected, IRQ preemption is no more possible. 
  *         The pending IRQ priority will be managed only by the subpriority. 
  * @retval None
  */
void HAL_NVIC_SetPriorityGrouping(uint32_t PriorityGroup)
{
 8001bb0:	b580      	push	{r7, lr}
 8001bb2:	b082      	sub	sp, #8
 8001bb4:	af00      	add	r7, sp, #0
 8001bb6:	6078      	str	r0, [r7, #4]
  /* Check the parameters */
  assert_param(IS_NVIC_PRIORITY_GROUP(PriorityGroup));
  
  /* Set the PRIGROUP[10:8] bits according to the PriorityGroup parameter value */
  NVIC_SetPriorityGrouping(PriorityGroup);
 8001bb8:	6878      	ldr	r0, [r7, #4]
 8001bba:	f7ff ff29 	bl	8001a10 <__NVIC_SetPriorityGrouping>
}
 8001bbe:	bf00      	nop
 8001bc0:	3708      	adds	r7, #8
 8001bc2:	46bd      	mov	sp, r7
 8001bc4:	bd80      	pop	{r7, pc}

08001bc6 <HAL_NVIC_SetPriority>:
  *         This parameter can be a value between 0 and 15
  *         A lower priority value indicates a higher priority.          
  * @retval None
  */
void HAL_NVIC_SetPriority(IRQn_Type IRQn, uint32_t PreemptPriority, uint32_t SubPriority)
{ 
 8001bc6:	b580      	push	{r7, lr}
 8001bc8:	b086      	sub	sp, #24
 8001bca:	af00      	add	r7, sp, #0
 8001bcc:	4603      	mov	r3, r0
 8001bce:	60b9      	str	r1, [r7, #8]
 8001bd0:	607a      	str	r2, [r7, #4]
 8001bd2:	73fb      	strb	r3, [r7, #15]
  uint32_t prioritygroup = 0x00U;
 8001bd4:	2300      	movs	r3, #0
 8001bd6:	617b      	str	r3, [r7, #20]
  
  /* Check the parameters */
  assert_param(IS_NVIC_SUB_PRIORITY(SubPriority));
  assert_param(IS_NVIC_PREEMPTION_PRIORITY(PreemptPriority));
  
  prioritygroup = NVIC_GetPriorityGrouping();
 8001bd8:	f7ff ff3e 	bl	8001a58 <__NVIC_GetPriorityGrouping>
 8001bdc:	6178      	str	r0, [r7, #20]
  
  NVIC_SetPriority(IRQn, NVIC_EncodePriority(prioritygroup, PreemptPriority, SubPriority));
 8001bde:	687a      	ldr	r2, [r7, #4]
 8001be0:	68b9      	ldr	r1, [r7, #8]
 8001be2:	6978      	ldr	r0, [r7, #20]
 8001be4:	f7ff ff8e 	bl	8001b04 <NVIC_EncodePriority>
 8001be8:	4602      	mov	r2, r0
 8001bea:	f997 300f 	ldrsb.w	r3, [r7, #15]
 8001bee:	4611      	mov	r1, r2
 8001bf0:	4618      	mov	r0, r3
 8001bf2:	f7ff ff5d 	bl	8001ab0 <__NVIC_SetPriority>
}
 8001bf6:	bf00      	nop
 8001bf8:	3718      	adds	r7, #24
 8001bfa:	46bd      	mov	sp, r7
 8001bfc:	bd80      	pop	{r7, pc}

08001bfe <HAL_NVIC_EnableIRQ>:
  *         This parameter can be an enumerator of IRQn_Type enumeration
  *         (For the complete STM32 Devices IRQ Channels list, please refer to the appropriate CMSIS device file (stm32f4xxxx.h))
  * @retval None
  */
void HAL_NVIC_EnableIRQ(IRQn_Type IRQn)
{
 8001bfe:	b580      	push	{r7, lr}
 8001c00:	b082      	sub	sp, #8
 8001c02:	af00      	add	r7, sp, #0
 8001c04:	4603      	mov	r3, r0
 8001c06:	71fb      	strb	r3, [r7, #7]
  /* Check the parameters */
  assert_param(IS_NVIC_DEVICE_IRQ(IRQn));
  
  /* Enable interrupt */
  NVIC_EnableIRQ(IRQn);
 8001c08:	f997 3007 	ldrsb.w	r3, [r7, #7]
 8001c0c:	4618      	mov	r0, r3
 8001c0e:	f7ff ff31 	bl	8001a74 <__NVIC_EnableIRQ>
}
 8001c12:	bf00      	nop
 8001c14:	3708      	adds	r7, #8
 8001c16:	46bd      	mov	sp, r7
 8001c18:	bd80      	pop	{r7, pc}

08001c1a <HAL_SYSTICK_Config>:
  * @param  TicksNumb Specifies the ticks Number of ticks between two interrupts.
  * @retval status:  - 0  Function succeeded.
  *                  - 1  Function failed.
  */
uint32_t HAL_SYSTICK_Config(uint32_t TicksNumb)
{
 8001c1a:	b580      	push	{r7, lr}
 8001c1c:	b082      	sub	sp, #8
 8001c1e:	af00      	add	r7, sp, #0
 8001c20:	6078      	str	r0, [r7, #4]
   return SysTick_Config(TicksNumb);
 8001c22:	6878      	ldr	r0, [r7, #4]
 8001c24:	f7ff ffa2 	bl	8001b6c <SysTick_Config>
 8001c28:	4603      	mov	r3, r0
}
 8001c2a:	4618      	mov	r0, r3
 8001c2c:	3708      	adds	r7, #8
 8001c2e:	46bd      	mov	sp, r7
 8001c30:	bd80      	pop	{r7, pc}

08001c32 <HAL_DAC_Init>:
  * @param  hdac pointer to a DAC_HandleTypeDef structure that contains
  *         the configuration information for the specified DAC.
  * @retval HAL status
  */
HAL_StatusTypeDef HAL_DAC_Init(DAC_HandleTypeDef *hdac)
{
 8001c32:	b580      	push	{r7, lr}
 8001c34:	b082      	sub	sp, #8
 8001c36:	af00      	add	r7, sp, #0
 8001c38:	6078      	str	r0, [r7, #4]
  /* Check DAC handle */
  if (hdac == NULL)
 8001c3a:	687b      	ldr	r3, [r7, #4]
 8001c3c:	2b00      	cmp	r3, #0
 8001c3e:	d101      	bne.n	8001c44 <HAL_DAC_Init+0x12>
  {
    return HAL_ERROR;
 8001c40:	2301      	movs	r3, #1
 8001c42:	e014      	b.n	8001c6e <HAL_DAC_Init+0x3c>
  }
  /* Check the parameters */
  assert_param(IS_DAC_ALL_INSTANCE(hdac->Instance));

  if (hdac->State == HAL_DAC_STATE_RESET)
 8001c44:	687b      	ldr	r3, [r7, #4]
 8001c46:	791b      	ldrb	r3, [r3, #4]
 8001c48:	b2db      	uxtb	r3, r3
 8001c4a:	2b00      	cmp	r3, #0
 8001c4c:	d105      	bne.n	8001c5a <HAL_DAC_Init+0x28>
      hdac->MspInitCallback             = HAL_DAC_MspInit;
    }
#endif /* USE_HAL_DAC_REGISTER_CALLBACKS */

    /* Allocate lock resource and initialize it */
    hdac->Lock = HAL_UNLOCKED;
 8001c4e:	687b      	ldr	r3, [r7, #4]
 8001c50:	2200      	movs	r2, #0
 8001c52:	715a      	strb	r2, [r3, #5]
#if (USE_HAL_DAC_REGISTER_CALLBACKS == 1)
    /* Init the low level hardware */
    hdac->MspInitCallback(hdac);
#else
    /* Init the low level hardware */
    HAL_DAC_MspInit(hdac);
 8001c54:	6878      	ldr	r0, [r7, #4]
 8001c56:	f7ff f847 	bl	8000ce8 <HAL_DAC_MspInit>
#endif /* USE_HAL_DAC_REGISTER_CALLBACKS */
  }

  /* Initialize the DAC state*/
  hdac->State = HAL_DAC_STATE_BUSY;
 8001c5a:	687b      	ldr	r3, [r7, #4]
 8001c5c:	2202      	movs	r2, #2
 8001c5e:	711a      	strb	r2, [r3, #4]

  /* Set DAC error code to none */
  hdac->ErrorCode = HAL_DAC_ERROR_NONE;
 8001c60:	687b      	ldr	r3, [r7, #4]
 8001c62:	2200      	movs	r2, #0
 8001c64:	611a      	str	r2, [r3, #16]

  /* Initialize the DAC state*/
  hdac->State = HAL_DAC_STATE_READY;
 8001c66:	687b      	ldr	r3, [r7, #4]
 8001c68:	2201      	movs	r2, #1
 8001c6a:	711a      	strb	r2, [r3, #4]

  /* Return function status */
  return HAL_OK;
 8001c6c:	2300      	movs	r3, #0
}
 8001c6e:	4618      	mov	r0, r3
 8001c70:	3708      	adds	r7, #8
 8001c72:	46bd      	mov	sp, r7
 8001c74:	bd80      	pop	{r7, pc}

08001c76 <HAL_DAC_Start>:
  *            @arg DAC_CHANNEL_1: DAC Channel1 selected
  *            @arg DAC_CHANNEL_2: DAC Channel2 selected
  * @retval HAL status
  */
HAL_StatusTypeDef HAL_DAC_Start(DAC_HandleTypeDef *hdac, uint32_t Channel)
{
 8001c76:	b480      	push	{r7}
 8001c78:	b083      	sub	sp, #12
 8001c7a:	af00      	add	r7, sp, #0
 8001c7c:	6078      	str	r0, [r7, #4]
 8001c7e:	6039      	str	r1, [r7, #0]
  /* Check the parameters */
  assert_param(IS_DAC_CHANNEL(Channel));

  /* Process locked */
  __HAL_LOCK(hdac);
 8001c80:	687b      	ldr	r3, [r7, #4]
 8001c82:	795b      	ldrb	r3, [r3, #5]
 8001c84:	2b01      	cmp	r3, #1
 8001c86:	d101      	bne.n	8001c8c <HAL_DAC_Start+0x16>
 8001c88:	2302      	movs	r3, #2
 8001c8a:	e040      	b.n	8001d0e <HAL_DAC_Start+0x98>
 8001c8c:	687b      	ldr	r3, [r7, #4]
 8001c8e:	2201      	movs	r2, #1
 8001c90:	715a      	strb	r2, [r3, #5]

  /* Change DAC state */
  hdac->State = HAL_DAC_STATE_BUSY;
 8001c92:	687b      	ldr	r3, [r7, #4]
 8001c94:	2202      	movs	r2, #2
 8001c96:	711a      	strb	r2, [r3, #4]

  /* Enable the Peripheral */
  __HAL_DAC_ENABLE(hdac, Channel);
 8001c98:	687b      	ldr	r3, [r7, #4]
 8001c9a:	681b      	ldr	r3, [r3, #0]
 8001c9c:	6819      	ldr	r1, [r3, #0]
 8001c9e:	683b      	ldr	r3, [r7, #0]
 8001ca0:	f003 0310 	and.w	r3, r3, #16
 8001ca4:	2201      	movs	r2, #1
 8001ca6:	409a      	lsls	r2, r3
 8001ca8:	687b      	ldr	r3, [r7, #4]
 8001caa:	681b      	ldr	r3, [r3, #0]
 8001cac:	430a      	orrs	r2, r1
 8001cae:	601a      	str	r2, [r3, #0]

  if (Channel == DAC_CHANNEL_1)
 8001cb0:	683b      	ldr	r3, [r7, #0]
 8001cb2:	2b00      	cmp	r3, #0
 8001cb4:	d10f      	bne.n	8001cd6 <HAL_DAC_Start+0x60>
  {
    /* Check if software trigger enabled */
    if ((hdac->Instance->CR & (DAC_CR_TEN1 | DAC_CR_TSEL1)) == DAC_TRIGGER_SOFTWARE)
 8001cb6:	687b      	ldr	r3, [r7, #4]
 8001cb8:	681b      	ldr	r3, [r3, #0]
 8001cba:	681b      	ldr	r3, [r3, #0]
 8001cbc:	f003 033c 	and.w	r3, r3, #60	; 0x3c
 8001cc0:	2b3c      	cmp	r3, #60	; 0x3c
 8001cc2:	d11d      	bne.n	8001d00 <HAL_DAC_Start+0x8a>
    {
      /* Enable the selected DAC software conversion */
      SET_BIT(hdac->Instance->SWTRIGR, DAC_SWTRIGR_SWTRIG1);
 8001cc4:	687b      	ldr	r3, [r7, #4]
 8001cc6:	681b      	ldr	r3, [r3, #0]
 8001cc8:	685a      	ldr	r2, [r3, #4]
 8001cca:	687b      	ldr	r3, [r7, #4]
 8001ccc:	681b      	ldr	r3, [r3, #0]
 8001cce:	f042 0201 	orr.w	r2, r2, #1
 8001cd2:	605a      	str	r2, [r3, #4]
 8001cd4:	e014      	b.n	8001d00 <HAL_DAC_Start+0x8a>
  }
#if defined(DAC_CHANNEL2_SUPPORT)
  else
  {
    /* Check if software trigger enabled */
    if ((hdac->Instance->CR & (DAC_CR_TEN2 | DAC_CR_TSEL2)) == (DAC_TRIGGER_SOFTWARE << (Channel & 0x10UL)))
 8001cd6:	687b      	ldr	r3, [r7, #4]
 8001cd8:	681b      	ldr	r3, [r3, #0]
 8001cda:	681b      	ldr	r3, [r3, #0]
 8001cdc:	f403 1270 	and.w	r2, r3, #3932160	; 0x3c0000
 8001ce0:	683b      	ldr	r3, [r7, #0]
 8001ce2:	f003 0310 	and.w	r3, r3, #16
 8001ce6:	213c      	movs	r1, #60	; 0x3c
 8001ce8:	fa01 f303 	lsl.w	r3, r1, r3
 8001cec:	429a      	cmp	r2, r3
 8001cee:	d107      	bne.n	8001d00 <HAL_DAC_Start+0x8a>
    {
      /* Enable the selected DAC software conversion*/
      SET_BIT(hdac->Instance->SWTRIGR, DAC_SWTRIGR_SWTRIG2);
 8001cf0:	687b      	ldr	r3, [r7, #4]
 8001cf2:	681b      	ldr	r3, [r3, #0]
 8001cf4:	685a      	ldr	r2, [r3, #4]
 8001cf6:	687b      	ldr	r3, [r7, #4]
 8001cf8:	681b      	ldr	r3, [r3, #0]
 8001cfa:	f042 0202 	orr.w	r2, r2, #2
 8001cfe:	605a      	str	r2, [r3, #4]
    }
  }
#endif /* DAC_CHANNEL2_SUPPORT */

  /* Change DAC state */
  hdac->State = HAL_DAC_STATE_READY;
 8001d00:	687b      	ldr	r3, [r7, #4]
 8001d02:	2201      	movs	r2, #1
 8001d04:	711a      	strb	r2, [r3, #4]

  /* Process unlocked */
  __HAL_UNLOCK(hdac);
 8001d06:	687b      	ldr	r3, [r7, #4]
 8001d08:	2200      	movs	r2, #0
 8001d0a:	715a      	strb	r2, [r3, #5]

  /* Return function status */
  return HAL_OK;
 8001d0c:	2300      	movs	r3, #0
}
 8001d0e:	4618      	mov	r0, r3
 8001d10:	370c      	adds	r7, #12
 8001d12:	46bd      	mov	sp, r7
 8001d14:	f85d 7b04 	ldr.w	r7, [sp], #4
 8001d18:	4770      	bx	lr

08001d1a <HAL_DAC_SetValue>:
  *            @arg DAC_ALIGN_12B_R: 12bit right data alignment selected
  * @param  Data Data to be loaded in the selected data holding register.
  * @retval HAL status
  */
HAL_StatusTypeDef HAL_DAC_SetValue(DAC_HandleTypeDef *hdac, uint32_t Channel, uint32_t Alignment, uint32_t Data)
{
 8001d1a:	b480      	push	{r7}
 8001d1c:	b087      	sub	sp, #28
 8001d1e:	af00      	add	r7, sp, #0
 8001d20:	60f8      	str	r0, [r7, #12]
 8001d22:	60b9      	str	r1, [r7, #8]
 8001d24:	607a      	str	r2, [r7, #4]
 8001d26:	603b      	str	r3, [r7, #0]
  __IO uint32_t tmp = 0UL;
 8001d28:	2300      	movs	r3, #0
 8001d2a:	617b      	str	r3, [r7, #20]
  /* Check the parameters */
  assert_param(IS_DAC_CHANNEL(Channel));
  assert_param(IS_DAC_ALIGN(Alignment));
  assert_param(IS_DAC_DATA(Data));

  tmp = (uint32_t)hdac->Instance;
 8001d2c:	68fb      	ldr	r3, [r7, #12]
 8001d2e:	681b      	ldr	r3, [r3, #0]
 8001d30:	617b      	str	r3, [r7, #20]
  if (Channel == DAC_CHANNEL_1)
 8001d32:	68bb      	ldr	r3, [r7, #8]
 8001d34:	2b00      	cmp	r3, #0
 8001d36:	d105      	bne.n	8001d44 <HAL_DAC_SetValue+0x2a>
  {
    tmp += DAC_DHR12R1_ALIGNMENT(Alignment);
 8001d38:	697a      	ldr	r2, [r7, #20]
 8001d3a:	687b      	ldr	r3, [r7, #4]
 8001d3c:	4413      	add	r3, r2
 8001d3e:	3308      	adds	r3, #8
 8001d40:	617b      	str	r3, [r7, #20]
 8001d42:	e004      	b.n	8001d4e <HAL_DAC_SetValue+0x34>
  }
#if defined(DAC_CHANNEL2_SUPPORT)
  else
  {
    tmp += DAC_DHR12R2_ALIGNMENT(Alignment);
 8001d44:	697a      	ldr	r2, [r7, #20]
 8001d46:	687b      	ldr	r3, [r7, #4]
 8001d48:	4413      	add	r3, r2
 8001d4a:	3314      	adds	r3, #20
 8001d4c:	617b      	str	r3, [r7, #20]
  }
#endif /* DAC_CHANNEL2_SUPPORT */

  /* Set the DAC channel selected data holding register */
  *(__IO uint32_t *) tmp = Data;
 8001d4e:	697b      	ldr	r3, [r7, #20]
 8001d50:	461a      	mov	r2, r3
 8001d52:	683b      	ldr	r3, [r7, #0]
 8001d54:	6013      	str	r3, [r2, #0]

  /* Return function status */
  return HAL_OK;
 8001d56:	2300      	movs	r3, #0
}
 8001d58:	4618      	mov	r0, r3
 8001d5a:	371c      	adds	r7, #28
 8001d5c:	46bd      	mov	sp, r7
 8001d5e:	f85d 7b04 	ldr.w	r7, [sp], #4
 8001d62:	4770      	bx	lr

08001d64 <HAL_DAC_ConfigChannel>:
  *            @arg DAC_CHANNEL_1: DAC Channel1 selected
  *            @arg DAC_CHANNEL_2: DAC Channel2 selected
  * @retval HAL status
  */
HAL_StatusTypeDef HAL_DAC_ConfigChannel(DAC_HandleTypeDef *hdac, DAC_ChannelConfTypeDef *sConfig, uint32_t Channel)
{
 8001d64:	b480      	push	{r7}
 8001d66:	b087      	sub	sp, #28
 8001d68:	af00      	add	r7, sp, #0
 8001d6a:	60f8      	str	r0, [r7, #12]
 8001d6c:	60b9      	str	r1, [r7, #8]
 8001d6e:	607a      	str	r2, [r7, #4]
  assert_param(IS_DAC_TRIGGER(sConfig->DAC_Trigger));
  assert_param(IS_DAC_OUTPUT_BUFFER_STATE(sConfig->DAC_OutputBuffer));
  assert_param(IS_DAC_CHANNEL(Channel));

  /* Process locked */
  __HAL_LOCK(hdac);
 8001d70:	68fb      	ldr	r3, [r7, #12]
 8001d72:	795b      	ldrb	r3, [r3, #5]
 8001d74:	2b01      	cmp	r3, #1
 8001d76:	d101      	bne.n	8001d7c <HAL_DAC_ConfigChannel+0x18>
 8001d78:	2302      	movs	r3, #2
 8001d7a:	e03c      	b.n	8001df6 <HAL_DAC_ConfigChannel+0x92>
 8001d7c:	68fb      	ldr	r3, [r7, #12]
 8001d7e:	2201      	movs	r2, #1
 8001d80:	715a      	strb	r2, [r3, #5]

  /* Change DAC state */
  hdac->State = HAL_DAC_STATE_BUSY;
 8001d82:	68fb      	ldr	r3, [r7, #12]
 8001d84:	2202      	movs	r2, #2
 8001d86:	711a      	strb	r2, [r3, #4]

  /* Get the DAC CR value */
  tmpreg1 = hdac->Instance->CR;
 8001d88:	68fb      	ldr	r3, [r7, #12]
 8001d8a:	681b      	ldr	r3, [r3, #0]
 8001d8c:	681b      	ldr	r3, [r3, #0]
 8001d8e:	617b      	str	r3, [r7, #20]
  /* Clear BOFFx, TENx, TSELx, WAVEx and MAMPx bits */
  tmpreg1 &= ~(((uint32_t)(DAC_CR_MAMP1 | DAC_CR_WAVE1 | DAC_CR_TSEL1 | DAC_CR_TEN1 | DAC_CR_BOFF1)) << (Channel & 0x10UL));
 8001d90:	687b      	ldr	r3, [r7, #4]
 8001d92:	f003 0310 	and.w	r3, r3, #16
 8001d96:	f640 72fe 	movw	r2, #4094	; 0xffe
 8001d9a:	fa02 f303 	lsl.w	r3, r2, r3
 8001d9e:	43db      	mvns	r3, r3
 8001da0:	697a      	ldr	r2, [r7, #20]
 8001da2:	4013      	ands	r3, r2
 8001da4:	617b      	str	r3, [r7, #20]
  /* Configure for the selected DAC channel: buffer output, trigger */
  /* Set TSELx and TENx bits according to DAC_Trigger value */
  /* Set BOFFx bit according to DAC_OutputBuffer value */
  tmpreg2 = (sConfig->DAC_Trigger | sConfig->DAC_OutputBuffer);
 8001da6:	68bb      	ldr	r3, [r7, #8]
 8001da8:	681a      	ldr	r2, [r3, #0]
 8001daa:	68bb      	ldr	r3, [r7, #8]
 8001dac:	685b      	ldr	r3, [r3, #4]
 8001dae:	4313      	orrs	r3, r2
 8001db0:	613b      	str	r3, [r7, #16]
  /* Calculate CR register value depending on DAC_Channel */
  tmpreg1 |= tmpreg2 << (Channel & 0x10UL);
 8001db2:	687b      	ldr	r3, [r7, #4]
 8001db4:	f003 0310 	and.w	r3, r3, #16
 8001db8:	693a      	ldr	r2, [r7, #16]
 8001dba:	fa02 f303 	lsl.w	r3, r2, r3
 8001dbe:	697a      	ldr	r2, [r7, #20]
 8001dc0:	4313      	orrs	r3, r2
 8001dc2:	617b      	str	r3, [r7, #20]
  /* Write to DAC CR */
  hdac->Instance->CR = tmpreg1;
 8001dc4:	68fb      	ldr	r3, [r7, #12]
 8001dc6:	681b      	ldr	r3, [r3, #0]
 8001dc8:	697a      	ldr	r2, [r7, #20]
 8001dca:	601a      	str	r2, [r3, #0]
  /* Disable wave generation */
  CLEAR_BIT(hdac->Instance->CR, (DAC_CR_WAVE1 << (Channel & 0x10UL)));
 8001dcc:	68fb      	ldr	r3, [r7, #12]
 8001dce:	681b      	ldr	r3, [r3, #0]
 8001dd0:	6819      	ldr	r1, [r3, #0]
 8001dd2:	687b      	ldr	r3, [r7, #4]
 8001dd4:	f003 0310 	and.w	r3, r3, #16
 8001dd8:	22c0      	movs	r2, #192	; 0xc0
 8001dda:	fa02 f303 	lsl.w	r3, r2, r3
 8001dde:	43da      	mvns	r2, r3
 8001de0:	68fb      	ldr	r3, [r7, #12]
 8001de2:	681b      	ldr	r3, [r3, #0]
 8001de4:	400a      	ands	r2, r1
 8001de6:	601a      	str	r2, [r3, #0]

  /* Change DAC state */
  hdac->State = HAL_DAC_STATE_READY;
 8001de8:	68fb      	ldr	r3, [r7, #12]
 8001dea:	2201      	movs	r2, #1
 8001dec:	711a      	strb	r2, [r3, #4]

  /* Process unlocked */
  __HAL_UNLOCK(hdac);
 8001dee:	68fb      	ldr	r3, [r7, #12]
 8001df0:	2200      	movs	r2, #0
 8001df2:	715a      	strb	r2, [r3, #5]

  /* Return function status */
  return HAL_OK;
 8001df4:	2300      	movs	r3, #0
}
 8001df6:	4618      	mov	r0, r3
 8001df8:	371c      	adds	r7, #28
 8001dfa:	46bd      	mov	sp, r7
 8001dfc:	f85d 7b04 	ldr.w	r7, [sp], #4
 8001e00:	4770      	bx	lr
	...

08001e04 <HAL_GPIO_Init>:
  * @param  GPIO_Init pointer to a GPIO_InitTypeDef structure that contains
  *         the configuration information for the specified GPIO peripheral.
  * @retval None
  */
void HAL_GPIO_Init(GPIO_TypeDef  *GPIOx, GPIO_InitTypeDef *GPIO_Init)
{
 8001e04:	b480      	push	{r7}
 8001e06:	b089      	sub	sp, #36	; 0x24
 8001e08:	af00      	add	r7, sp, #0
 8001e0a:	6078      	str	r0, [r7, #4]
 8001e0c:	6039      	str	r1, [r7, #0]
  uint32_t position;
  uint32_t ioposition = 0x00U;
 8001e0e:	2300      	movs	r3, #0
 8001e10:	617b      	str	r3, [r7, #20]
  uint32_t iocurrent = 0x00U;
 8001e12:	2300      	movs	r3, #0
 8001e14:	613b      	str	r3, [r7, #16]
  uint32_t temp = 0x00U;
 8001e16:	2300      	movs	r3, #0
 8001e18:	61bb      	str	r3, [r7, #24]
  assert_param(IS_GPIO_ALL_INSTANCE(GPIOx));
  assert_param(IS_GPIO_PIN(GPIO_Init->Pin));
  assert_param(IS_GPIO_MODE(GPIO_Init->Mode));

  /* Configure the port pins */
  for(position = 0U; position < GPIO_NUMBER; position++)
 8001e1a:	2300      	movs	r3, #0
 8001e1c:	61fb      	str	r3, [r7, #28]
 8001e1e:	e16b      	b.n	80020f8 <HAL_GPIO_Init+0x2f4>
  {
    /* Get the IO position */
    ioposition = 0x01U << position;
 8001e20:	2201      	movs	r2, #1
 8001e22:	69fb      	ldr	r3, [r7, #28]
 8001e24:	fa02 f303 	lsl.w	r3, r2, r3
 8001e28:	617b      	str	r3, [r7, #20]
    /* Get the current IO position */
    iocurrent = (uint32_t)(GPIO_Init->Pin) & ioposition;
 8001e2a:	683b      	ldr	r3, [r7, #0]
 8001e2c:	681b      	ldr	r3, [r3, #0]
 8001e2e:	697a      	ldr	r2, [r7, #20]
 8001e30:	4013      	ands	r3, r2
 8001e32:	613b      	str	r3, [r7, #16]

    if(iocurrent == ioposition)
 8001e34:	693a      	ldr	r2, [r7, #16]
 8001e36:	697b      	ldr	r3, [r7, #20]
 8001e38:	429a      	cmp	r2, r3
 8001e3a:	f040 815a 	bne.w	80020f2 <HAL_GPIO_Init+0x2ee>
    {
      /*--------------------- GPIO Mode Configuration ------------------------*/
      /* In case of Output or Alternate function mode selection */
      if(((GPIO_Init->Mode & GPIO_MODE) == MODE_OUTPUT) || \
 8001e3e:	683b      	ldr	r3, [r7, #0]
 8001e40:	685b      	ldr	r3, [r3, #4]
 8001e42:	f003 0303 	and.w	r3, r3, #3
 8001e46:	2b01      	cmp	r3, #1
 8001e48:	d005      	beq.n	8001e56 <HAL_GPIO_Init+0x52>
          (GPIO_Init->Mode & GPIO_MODE) == MODE_AF)
 8001e4a:	683b      	ldr	r3, [r7, #0]
 8001e4c:	685b      	ldr	r3, [r3, #4]
 8001e4e:	f003 0303 	and.w	r3, r3, #3
      if(((GPIO_Init->Mode & GPIO_MODE) == MODE_OUTPUT) || \
 8001e52:	2b02      	cmp	r3, #2
 8001e54:	d130      	bne.n	8001eb8 <HAL_GPIO_Init+0xb4>
      {
        /* Check the Speed parameter */
        assert_param(IS_GPIO_SPEED(GPIO_Init->Speed));
        /* Configure the IO Speed */
        temp = GPIOx->OSPEEDR; 
 8001e56:	687b      	ldr	r3, [r7, #4]
 8001e58:	689b      	ldr	r3, [r3, #8]
 8001e5a:	61bb      	str	r3, [r7, #24]
        temp &= ~(GPIO_OSPEEDER_OSPEEDR0 << (position * 2U));
 8001e5c:	69fb      	ldr	r3, [r7, #28]
 8001e5e:	005b      	lsls	r3, r3, #1
 8001e60:	2203      	movs	r2, #3
 8001e62:	fa02 f303 	lsl.w	r3, r2, r3
 8001e66:	43db      	mvns	r3, r3
 8001e68:	69ba      	ldr	r2, [r7, #24]
 8001e6a:	4013      	ands	r3, r2
 8001e6c:	61bb      	str	r3, [r7, #24]
        temp |= (GPIO_Init->Speed << (position * 2U));
 8001e6e:	683b      	ldr	r3, [r7, #0]
 8001e70:	68da      	ldr	r2, [r3, #12]
 8001e72:	69fb      	ldr	r3, [r7, #28]
 8001e74:	005b      	lsls	r3, r3, #1
 8001e76:	fa02 f303 	lsl.w	r3, r2, r3
 8001e7a:	69ba      	ldr	r2, [r7, #24]
 8001e7c:	4313      	orrs	r3, r2
 8001e7e:	61bb      	str	r3, [r7, #24]
        GPIOx->OSPEEDR = temp;
 8001e80:	687b      	ldr	r3, [r7, #4]
 8001e82:	69ba      	ldr	r2, [r7, #24]
 8001e84:	609a      	str	r2, [r3, #8]

        /* Configure the IO Output Type */
        temp = GPIOx->OTYPER;
 8001e86:	687b      	ldr	r3, [r7, #4]
 8001e88:	685b      	ldr	r3, [r3, #4]
 8001e8a:	61bb      	str	r3, [r7, #24]
        temp &= ~(GPIO_OTYPER_OT_0 << position) ;
 8001e8c:	2201      	movs	r2, #1
 8001e8e:	69fb      	ldr	r3, [r7, #28]
 8001e90:	fa02 f303 	lsl.w	r3, r2, r3
 8001e94:	43db      	mvns	r3, r3
 8001e96:	69ba      	ldr	r2, [r7, #24]
 8001e98:	4013      	ands	r3, r2
 8001e9a:	61bb      	str	r3, [r7, #24]
        temp |= (((GPIO_Init->Mode & OUTPUT_TYPE) >> OUTPUT_TYPE_Pos) << position);
 8001e9c:	683b      	ldr	r3, [r7, #0]
 8001e9e:	685b      	ldr	r3, [r3, #4]
 8001ea0:	091b      	lsrs	r3, r3, #4
 8001ea2:	f003 0201 	and.w	r2, r3, #1
 8001ea6:	69fb      	ldr	r3, [r7, #28]
 8001ea8:	fa02 f303 	lsl.w	r3, r2, r3
 8001eac:	69ba      	ldr	r2, [r7, #24]
 8001eae:	4313      	orrs	r3, r2
 8001eb0:	61bb      	str	r3, [r7, #24]
        GPIOx->OTYPER = temp;
 8001eb2:	687b      	ldr	r3, [r7, #4]
 8001eb4:	69ba      	ldr	r2, [r7, #24]
 8001eb6:	605a      	str	r2, [r3, #4]
       }

      if((GPIO_Init->Mode & GPIO_MODE) != MODE_ANALOG)
 8001eb8:	683b      	ldr	r3, [r7, #0]
 8001eba:	685b      	ldr	r3, [r3, #4]
 8001ebc:	f003 0303 	and.w	r3, r3, #3
 8001ec0:	2b03      	cmp	r3, #3
 8001ec2:	d017      	beq.n	8001ef4 <HAL_GPIO_Init+0xf0>
      {
        /* Check the parameters */
        assert_param(IS_GPIO_PULL(GPIO_Init->Pull));
        
        /* Activate the Pull-up or Pull down resistor for the current IO */
        temp = GPIOx->PUPDR;
 8001ec4:	687b      	ldr	r3, [r7, #4]
 8001ec6:	68db      	ldr	r3, [r3, #12]
 8001ec8:	61bb      	str	r3, [r7, #24]
        temp &= ~(GPIO_PUPDR_PUPDR0 << (position * 2U));
 8001eca:	69fb      	ldr	r3, [r7, #28]
 8001ecc:	005b      	lsls	r3, r3, #1
 8001ece:	2203      	movs	r2, #3
 8001ed0:	fa02 f303 	lsl.w	r3, r2, r3
 8001ed4:	43db      	mvns	r3, r3
 8001ed6:	69ba      	ldr	r2, [r7, #24]
 8001ed8:	4013      	ands	r3, r2
 8001eda:	61bb      	str	r3, [r7, #24]
        temp |= ((GPIO_Init->Pull) << (position * 2U));
 8001edc:	683b      	ldr	r3, [r7, #0]
 8001ede:	689a      	ldr	r2, [r3, #8]
 8001ee0:	69fb      	ldr	r3, [r7, #28]
 8001ee2:	005b      	lsls	r3, r3, #1
 8001ee4:	fa02 f303 	lsl.w	r3, r2, r3
 8001ee8:	69ba      	ldr	r2, [r7, #24]
 8001eea:	4313      	orrs	r3, r2
 8001eec:	61bb      	str	r3, [r7, #24]
        GPIOx->PUPDR = temp;
 8001eee:	687b      	ldr	r3, [r7, #4]
 8001ef0:	69ba      	ldr	r2, [r7, #24]
 8001ef2:	60da      	str	r2, [r3, #12]
      }

      /* In case of Alternate function mode selection */
      if((GPIO_Init->Mode & GPIO_MODE) == MODE_AF)
 8001ef4:	683b      	ldr	r3, [r7, #0]
 8001ef6:	685b      	ldr	r3, [r3, #4]
 8001ef8:	f003 0303 	and.w	r3, r3, #3
 8001efc:	2b02      	cmp	r3, #2
 8001efe:	d123      	bne.n	8001f48 <HAL_GPIO_Init+0x144>
      {
        /* Check the Alternate function parameter */
        assert_param(IS_GPIO_AF(GPIO_Init->Alternate));
        /* Configure Alternate function mapped with the current IO */
        temp = GPIOx->AFR[position >> 3U];
 8001f00:	69fb      	ldr	r3, [r7, #28]
 8001f02:	08da      	lsrs	r2, r3, #3
 8001f04:	687b      	ldr	r3, [r7, #4]
 8001f06:	3208      	adds	r2, #8
 8001f08:	f853 3022 	ldr.w	r3, [r3, r2, lsl #2]
 8001f0c:	61bb      	str	r3, [r7, #24]
        temp &= ~(0xFU << ((uint32_t)(position & 0x07U) * 4U)) ;
 8001f0e:	69fb      	ldr	r3, [r7, #28]
 8001f10:	f003 0307 	and.w	r3, r3, #7
 8001f14:	009b      	lsls	r3, r3, #2
 8001f16:	220f      	movs	r2, #15
 8001f18:	fa02 f303 	lsl.w	r3, r2, r3
 8001f1c:	43db      	mvns	r3, r3
 8001f1e:	69ba      	ldr	r2, [r7, #24]
 8001f20:	4013      	ands	r3, r2
 8001f22:	61bb      	str	r3, [r7, #24]
        temp |= ((uint32_t)(GPIO_Init->Alternate) << (((uint32_t)position & 0x07U) * 4U));
 8001f24:	683b      	ldr	r3, [r7, #0]
 8001f26:	691a      	ldr	r2, [r3, #16]
 8001f28:	69fb      	ldr	r3, [r7, #28]
 8001f2a:	f003 0307 	and.w	r3, r3, #7
 8001f2e:	009b      	lsls	r3, r3, #2
 8001f30:	fa02 f303 	lsl.w	r3, r2, r3
 8001f34:	69ba      	ldr	r2, [r7, #24]
 8001f36:	4313      	orrs	r3, r2
 8001f38:	61bb      	str	r3, [r7, #24]
        GPIOx->AFR[position >> 3U] = temp;
 8001f3a:	69fb      	ldr	r3, [r7, #28]
 8001f3c:	08da      	lsrs	r2, r3, #3
 8001f3e:	687b      	ldr	r3, [r7, #4]
 8001f40:	3208      	adds	r2, #8
 8001f42:	69b9      	ldr	r1, [r7, #24]
 8001f44:	f843 1022 	str.w	r1, [r3, r2, lsl #2]
      }

      /* Configure IO Direction mode (Input, Output, Alternate or Analog) */
      temp = GPIOx->MODER;
 8001f48:	687b      	ldr	r3, [r7, #4]
 8001f4a:	681b      	ldr	r3, [r3, #0]
 8001f4c:	61bb      	str	r3, [r7, #24]
      temp &= ~(GPIO_MODER_MODER0 << (position * 2U));
 8001f4e:	69fb      	ldr	r3, [r7, #28]
 8001f50:	005b      	lsls	r3, r3, #1
 8001f52:	2203      	movs	r2, #3
 8001f54:	fa02 f303 	lsl.w	r3, r2, r3
 8001f58:	43db      	mvns	r3, r3
 8001f5a:	69ba      	ldr	r2, [r7, #24]
 8001f5c:	4013      	ands	r3, r2
 8001f5e:	61bb      	str	r3, [r7, #24]
      temp |= ((GPIO_Init->Mode & GPIO_MODE) << (position * 2U));
 8001f60:	683b      	ldr	r3, [r7, #0]
 8001f62:	685b      	ldr	r3, [r3, #4]
 8001f64:	f003 0203 	and.w	r2, r3, #3
 8001f68:	69fb      	ldr	r3, [r7, #28]
 8001f6a:	005b      	lsls	r3, r3, #1
 8001f6c:	fa02 f303 	lsl.w	r3, r2, r3
 8001f70:	69ba      	ldr	r2, [r7, #24]
 8001f72:	4313      	orrs	r3, r2
 8001f74:	61bb      	str	r3, [r7, #24]
      GPIOx->MODER = temp;
 8001f76:	687b      	ldr	r3, [r7, #4]
 8001f78:	69ba      	ldr	r2, [r7, #24]
 8001f7a:	601a      	str	r2, [r3, #0]

      /*--------------------- EXTI Mode Configuration ------------------------*/
      /* Configure the External Interrupt or event for the current IO */
      if((GPIO_Init->Mode & EXTI_MODE) != 0x00U)
 8001f7c:	683b      	ldr	r3, [r7, #0]
 8001f7e:	685b      	ldr	r3, [r3, #4]
 8001f80:	f403 3340 	and.w	r3, r3, #196608	; 0x30000
 8001f84:	2b00      	cmp	r3, #0
 8001f86:	f000 80b4 	beq.w	80020f2 <HAL_GPIO_Init+0x2ee>
      {
        /* Enable SYSCFG Clock */
        __HAL_RCC_SYSCFG_CLK_ENABLE();
 8001f8a:	2300      	movs	r3, #0
 8001f8c:	60fb      	str	r3, [r7, #12]
 8001f8e:	4b60      	ldr	r3, [pc, #384]	; (8002110 <HAL_GPIO_Init+0x30c>)
 8001f90:	6c5b      	ldr	r3, [r3, #68]	; 0x44
 8001f92:	4a5f      	ldr	r2, [pc, #380]	; (8002110 <HAL_GPIO_Init+0x30c>)
 8001f94:	f443 4380 	orr.w	r3, r3, #16384	; 0x4000
 8001f98:	6453      	str	r3, [r2, #68]	; 0x44
 8001f9a:	4b5d      	ldr	r3, [pc, #372]	; (8002110 <HAL_GPIO_Init+0x30c>)
 8001f9c:	6c5b      	ldr	r3, [r3, #68]	; 0x44
 8001f9e:	f403 4380 	and.w	r3, r3, #16384	; 0x4000
 8001fa2:	60fb      	str	r3, [r7, #12]
 8001fa4:	68fb      	ldr	r3, [r7, #12]

        temp = SYSCFG->EXTICR[position >> 2U];
 8001fa6:	4a5b      	ldr	r2, [pc, #364]	; (8002114 <HAL_GPIO_Init+0x310>)
 8001fa8:	69fb      	ldr	r3, [r7, #28]
 8001faa:	089b      	lsrs	r3, r3, #2
 8001fac:	3302      	adds	r3, #2
 8001fae:	f852 3023 	ldr.w	r3, [r2, r3, lsl #2]
 8001fb2:	61bb      	str	r3, [r7, #24]
        temp &= ~(0x0FU << (4U * (position & 0x03U)));
 8001fb4:	69fb      	ldr	r3, [r7, #28]
 8001fb6:	f003 0303 	and.w	r3, r3, #3
 8001fba:	009b      	lsls	r3, r3, #2
 8001fbc:	220f      	movs	r2, #15
 8001fbe:	fa02 f303 	lsl.w	r3, r2, r3
 8001fc2:	43db      	mvns	r3, r3
 8001fc4:	69ba      	ldr	r2, [r7, #24]
 8001fc6:	4013      	ands	r3, r2
 8001fc8:	61bb      	str	r3, [r7, #24]
        temp |= ((uint32_t)(GPIO_GET_INDEX(GPIOx)) << (4U * (position & 0x03U)));
 8001fca:	687b      	ldr	r3, [r7, #4]
 8001fcc:	4a52      	ldr	r2, [pc, #328]	; (8002118 <HAL_GPIO_Init+0x314>)
 8001fce:	4293      	cmp	r3, r2
 8001fd0:	d02b      	beq.n	800202a <HAL_GPIO_Init+0x226>
 8001fd2:	687b      	ldr	r3, [r7, #4]
 8001fd4:	4a51      	ldr	r2, [pc, #324]	; (800211c <HAL_GPIO_Init+0x318>)
 8001fd6:	4293      	cmp	r3, r2
 8001fd8:	d025      	beq.n	8002026 <HAL_GPIO_Init+0x222>
 8001fda:	687b      	ldr	r3, [r7, #4]
 8001fdc:	4a50      	ldr	r2, [pc, #320]	; (8002120 <HAL_GPIO_Init+0x31c>)
 8001fde:	4293      	cmp	r3, r2
 8001fe0:	d01f      	beq.n	8002022 <HAL_GPIO_Init+0x21e>
 8001fe2:	687b      	ldr	r3, [r7, #4]
 8001fe4:	4a4f      	ldr	r2, [pc, #316]	; (8002124 <HAL_GPIO_Init+0x320>)
 8001fe6:	4293      	cmp	r3, r2
 8001fe8:	d019      	beq.n	800201e <HAL_GPIO_Init+0x21a>
 8001fea:	687b      	ldr	r3, [r7, #4]
 8001fec:	4a4e      	ldr	r2, [pc, #312]	; (8002128 <HAL_GPIO_Init+0x324>)
 8001fee:	4293      	cmp	r3, r2
 8001ff0:	d013      	beq.n	800201a <HAL_GPIO_Init+0x216>
 8001ff2:	687b      	ldr	r3, [r7, #4]
 8001ff4:	4a4d      	ldr	r2, [pc, #308]	; (800212c <HAL_GPIO_Init+0x328>)
 8001ff6:	4293      	cmp	r3, r2
 8001ff8:	d00d      	beq.n	8002016 <HAL_GPIO_Init+0x212>
 8001ffa:	687b      	ldr	r3, [r7, #4]
 8001ffc:	4a4c      	ldr	r2, [pc, #304]	; (8002130 <HAL_GPIO_Init+0x32c>)
 8001ffe:	4293      	cmp	r3, r2
 8002000:	d007      	beq.n	8002012 <HAL_GPIO_Init+0x20e>
 8002002:	687b      	ldr	r3, [r7, #4]
 8002004:	4a4b      	ldr	r2, [pc, #300]	; (8002134 <HAL_GPIO_Init+0x330>)
 8002006:	4293      	cmp	r3, r2
 8002008:	d101      	bne.n	800200e <HAL_GPIO_Init+0x20a>
 800200a:	2307      	movs	r3, #7
 800200c:	e00e      	b.n	800202c <HAL_GPIO_Init+0x228>
 800200e:	2308      	movs	r3, #8
 8002010:	e00c      	b.n	800202c <HAL_GPIO_Init+0x228>
 8002012:	2306      	movs	r3, #6
 8002014:	e00a      	b.n	800202c <HAL_GPIO_Init+0x228>
 8002016:	2305      	movs	r3, #5
 8002018:	e008      	b.n	800202c <HAL_GPIO_Init+0x228>
 800201a:	2304      	movs	r3, #4
 800201c:	e006      	b.n	800202c <HAL_GPIO_Init+0x228>
 800201e:	2303      	movs	r3, #3
 8002020:	e004      	b.n	800202c <HAL_GPIO_Init+0x228>
 8002022:	2302      	movs	r3, #2
 8002024:	e002      	b.n	800202c <HAL_GPIO_Init+0x228>
 8002026:	2301      	movs	r3, #1
 8002028:	e000      	b.n	800202c <HAL_GPIO_Init+0x228>
 800202a:	2300      	movs	r3, #0
 800202c:	69fa      	ldr	r2, [r7, #28]
 800202e:	f002 0203 	and.w	r2, r2, #3
 8002032:	0092      	lsls	r2, r2, #2
